S00E0000626C696E6B792E737265638D
S315020000000021002251800A023D7F0A024D800A0227
S315020000104D800A024D800A024D800A024D800A0274
S315020000200000000000000000000000004D800A02EF
S315020000304D800A02000000004D800A024D800A022D
S3150200004000000000000000000000000000000000A8
S315020000500000000000000000000000000000000098
S315020000600000000000000000000000000000000088
S315020000700000000000000000000000000000000078
S315020000800000000000000000000000000000000068
S315020000900000000000000000000000000000000058
S315020000A00000000000000000000000000000000048
S315020000B00000000000000000000000000000000038
S315020000C00000000000000000000000000000000028
S315020000D00000000000000000000000000000000018
S315020000E00000000000000000000000000000000008
S315020000F000000000000000000000000000000000F8
S3150200010000000000000000000000000000000000E7
S3150200011000000000000000000000000000000000D7
S3150200012000000000000000000000000000000000C7
S3150200013000000000000000000000000000000000B7
S31502000140D8F81C00D9F81C4000194FF0000B4BEBF5
S315020001500B0B4FEA4B0B0BEBD07B13270BFB07FB6F
S3150200016020F00047B8E80F00B9E870044FF0010C20
S31502000170ECFB640BECFB651BECFB662BECFB6A3BB6
S3150200018099E8700098E80007ECFB684BECFB695BAA
S31502000190ECFB6A6B5F44704798E8FF00B9E8001D04
S315020001A0B0EB080071EB0A0172EB0B0273EB0C0366
S315020001B099E8000F74EB080475EB090576EB0A065D
S315020001C077EB0B0768EB080828F0250910EB090006
S315020001D051EB080152EB080253EB080354EB0804F7
S315020001E055EB080556EB080657EB080758F10008C9
S315020001F028F0250910EB0900704704B587B03CCA00
S31502000200B1E80144A2FB006BA3FB007CE2FB6A7B24
S31502000210C0B4A4FB0086E3FB6A8BA5FB0097E4FB54
S315020002206A9BE5FB6AB7E2FB6E8CE3FB6E9CE4FB22
S315020002306EBCE5FB6EC7B1E80144E2FB6096E3FBE8
S3150200024060B6E4FB60C6E5FB6067CDE902894FF064
S315020002500009E2FB6AB9E3FB6AC9E4FB6A69E5FBEA
S315020002606A794FF0000AE2FB6ECAE3FB6E6AE4FBB0
S315020002706E7AE5FB6E9A51F8048B4FF0000EE2FBA4
S3150200028068E6E3FB6876E4FB6896E5FB68A651F848
S315020002901C894FF00000E2FB6870E3FB6890E4FB08
S315020002A068A0E5FB686001B40A9A10323CCA51F8AC
S315020002B0048B4FF00000E2FB68B0CDF814B0E3FB0C
S315020002C068C0E4FB68E0E5FB680751F8048B4FF071
S315020002D0000BE2FB68CBCDF818C0E3FB68EBE4FB4E
S315020002E0680BE5FB68B751F8048B4FF0000CE2FB94
S315020002F068ECCDF81CE0E3FB680CE4FB68BCE5FBAC
S3150200030068AC51F8048B4FF0000EE2FB680E0890C1
S31502000310E3FB68BEE4FB68AEE5FB686EB1E801018B
S31502000320E2FB60B9CDF824B0E3FB609AE4FB60A679
S315020003305DF804BBE5FB60B6E2FB6897E3FB68A7E2
S31502000340E4FB68B7E5FB6867B1E80101E2FB60AC74
S31502000350E3FB60BCE4FB606CE5FB607CE2FB68BE31
S31502000360E3FB686EE4FB68E7E5FB687CDDE90745CD
S3150200037026234FF00008E3FB6C484FEA480848EA98
S31502000380D47824F0004C132408FB04F807BCE3FBE2
S315020003906508E3FB6918E3FB6A284FF0260918BCD7
S315020003A0E9FB6B38E9FB664860BCE9FB6E58E9FB82
S315020003B0676808EB0C0703B000BD00B585B0A0FB6B
S315020003C0009AA0FB01BC1BEB0B0B4FF0000EEEFBE1
S315020003D06EAB2DE900064FF00008E0FB628C58EB8D
S315020003E00808E1FB618BA0FB039AE1FB629C59EBD7
S315020003F00909EEFB6E9BCDE902894FF00009E0FB8D
S31502000400649AE1FB639C59EB0909E2FB629BCDF816
S315020004101090A0FB0598E1FB649AE2FB639C59EB02
S315020004200909EEFB6E9BCDF814904FF00009E1FB33
S315020004306598E2FB649CE0FB669A59EB0909E3FBCB
S31502000440639BCDF81890A0FB0709E1FB660AE2FB65
S31502000450650CE3FB64084041EEFB6E0BE1FB67981B
S31502000460E2FB669AE3FB65C95CEB0C0CE4FB64BC3D
S31502000470E2FB6798E3FB66A90022E4FB65A25AEB5E
S315020004800A0AEEFB6ECAE3FB6728E4FB669259EBA7
S315020004900909E5FB65A90023E4FB6738E5FB66323B
S315020004A05B41EEFB6E93E5FB678258EB0808E6FBC1
S315020004B06638AEFB0E45E6FB67426441EEFB6E48CC
S315020004C05241E7FB678252EB0E024FF02606E6FB2D
S315020004D0620E4FEA4E0E4EEAD07E20F000471325FA
S315020004E00EFB05FE03BCE6FB6B0EE6FB6C1E9B4693
S315020004F0A4463CBCE6FB6A2EE6FB693EE6FB6B4E77
S31502000500E6FB6C5E40BC4FF0260CECFB686E774453
S3150200051000BD2DE90041FFF750FFDDF80080B8F17C
S315020005200108CDF80080F6D101B00DF1040888E883
S31502000530FF0000BD08688A68CB680C694D698E6940
S31502000540CF69496870472DE9F14F9246FFF7F2FFEE
S3150200055020F0070047F08047FFB45FF000082DE95E
S3150200056004015146FFF7E6FF27F00047FFB45FF0AC
S315020005700109A8FB08AB4FF0000C2DE9001D2DE97F
S31502000580001EFFB4A8FB08672DE9C01D2DE9C01D9A
S315020005902DE9001EFE20002341091DF1A80252F892
S315020005A0211000F01F04E14001F00101CDE928010C
S315020005B05940D1F1000E684610A94FF0040B90E89D
S315020005C03C0091E8C003724002EA0E0A96EA0A0665
S315020005D072407B4003EA0E0A97EA0A077B4094EAD6
S315020005E0080404EA0E0A98EA0A0894EA080495EA54
S315020005F0090505EA0E0A99EA0A0995EA09053CC0BF
S31502000600A1E8C003BBF1010BD9D1E8460DF12009DF
S31502000610FFF796FDFFB4FFF7D0FEFFB40DF14008D9
S315020006200DF16009FFF7B8FDFFB4FFF7C6FEFFB490
S31502000630694610AAFFF7E1FD0DF1800888E8FF0080
S315020006400DF14008E946FFF7A7FD0DF1400888E8DD
S31502000650FF00DFF84CE2DDF81CC04FF0000BEEFBAA
S3150200066067CB4FEA4B0B0BEBDC7B13270BFB07FB32
S315020006702CF00047BDE80017EEFB608BEEFB619B9A
S31502000680EEFB62ABEEFB63CB07BCEEFB640BEEFB51
S31502000690651BEEFB662B5F4401B087B42DE900179C
S315020006A0694610AAFFF7A9FD0DF1A00888E8FF0028
S315020006B00DF1C0080DF1E009FFF742FD8DE8FF00DC
S315020006C0694608AAFFF799FD0DF1200888E8FF00A0
S315020006D00DF1C0080DF1E009FFF75EFD8DE8FF00A0
S315020006E0694618AAFFF789FD8DE8FF00E8460DF175
S315020006F02009FFF725FDFFF760FE0DF1C00888E827
S31502000700FF00E8460DF12009FFF746FDFFF755FE0B
S315020007108DE8FF00694640AAFFF76FFD0DF1E0087C
S3150200072088E8FF0020B0DDE92823501E7FF534AFAC
S3150200073008A8FFC8FFF741FEFFB4FFF73EFEFFF72A
S315020007403CFEFFB418A96A46FFF757FD8DE8FF0085
S31502000750694608AAFFF751FD0DF1200888E8FF0057
S31502000760FFF72BFEFFB4694608AAFFF746FD0DF117
S31502000770200888E8FF004FF00508FFF7CAFE694621
S3150200078008AAFFF73AFD0DF1200888E8FF005FF09E
S315020007900A08FFF7BEFE694608AAFFF72EFD8DE896
S315020007A0FF005FF0140888B0FFF7B3FE694608AA97
S315020007B0FFF723FD08B05FF00A08FFF7AAFE6946B5
S315020007C008AAFFF71AFD0DF1200888E8FF005FF07E
S315020007D03208FFF79EFE694608AAFFF70EFD8DE86E
S315020007E0FF005FF0640888B0FFF793FE694608AA27
S315020007F0FFF703FD08B05FF03208FFF78AFE69468D
S3150200080008AAFFF7FAFC5FF00508FFF782FE6946C1
S3150200081010AAFFF7F2FC8DE8FF00694618AAFFF757
S31502000820ECFC4FEAD7784FF0130908FB09F84FF0B2
S31502000830000A08F1130810EB080851EB0A0852EBFC
S315020008400A0853EB0A0854EB0A0855EB0A0856EB5A
S315020008500A0857EB0A085AEB0A0B4FEAD87848EA15
S315020008604B0808FB09F8DDF8289110EB0800C9F8D7
S31502000870000000204141C9F8041049464241434163
S31502000880444145414641474127F000478A60CB60D3
S315020008900C614D618E61CF614BB0BDE8F08F0000F7
S315020008A042DB0100B2F1000FB0F9003018BF4FEA87
S315020008B00103A0F8003070472DE9F04F40F2190EFF
S315020008C0F8C9B2E8001FD3FA48F3D4FA49F4D5FAC4
S315020008D04AF5D6FA4BF6D7FA4CF7F8C0BEF1010E36
S315020008E07FF4EEAF38C9B2E80007D3FA48F3D4FA78
S315020008F049F4D5FA4AF538C0BDE8F08F2DE9F04F34
S3150200090040F2190EF8C9B2E8001F93FA48F394FAB6
S3150200091049F495FA4AF596FA4BF697FA4CF7F8C067
S31502000920BEF1010E7FF4EEAF38C9B2E8000793FAC2
S3150200093048F394FA49F495FA4AF538C0BDE8F08FBF
S315020009402DE9F04F40F2400E51F8044B52F8046B79
S3150200095051F8045B52F8047BD3F804B053F808CB81
S315020009602CFB06FC40F804CB24FB16FC40F804CB17
S315020009702BFB07FC40F804CB25FB17FC40F804CB05
S31502000980BEF1010E7FF4E0AFBDE8F08F2DE9F04F26
S3150200099040F2400E51F8044B52F8046BD0F8005066
S315020009A053F804CBD0F804702CFB065C40F804CB59
S315020009B024FB167B40F804BB51F8044B52F8046B37
S315020009C0D0F8005053F804CBD0F804702CFB065C28
S315020009D040F804CB24FB167B40F804BBBEF1010EA3
S315020009E07FF4D8AFBDE8F08F2DE9F04F46F608093F
S315020009F0C0F601584FF2013AC6F6A83ADDF824B01D
S31502000A0040F2400E51F8044B52F8046B5BF8045B5B
S31502000A1053F804CB5BF8047B2CFB065505FB0AF561
S31502000A2015FB389524FB167707FB0AF717FB389751
S31502000A30C7EA254540F8045B51F8044B52F8046BAB
S31502000A405BF8045B53F804CB5BF8047B2CFB06557E
S31502000A5005FB0AF515FB389524FB167707FB0AF703
S31502000A6017FB3897C7EA254540F8045BBEF1010E2D
S31502000A707FF4C8AFBDE8F08F2DE9F04F2DED088A5F
S31502000A80C0F6015CB1EC0F4A00F5007E04EE10EAF6
S31502000A900BEE900AD0F82020D0F82430D0F8284067
S31502000AA0D0F82C50D0F83060D0F83470D0F83880B6
S31502000AB0D0F83C9046F6080092FA03FED2FA03F307
S31502000AC094FA05FBD4FA05F596FA07F2D6FA07F771
S31502000AD098FA09F4D8FA09F99EFA0BF8DEFA0BFB32
S31502000AE092FA04F6D2FA04F415EE10AA3AFB05FEBF
S31502000AF03AFB15F51EFB1C0E15FB1C05C5EA2E4E10
S31502000B00D3FA4EF593FA4EF33AFB09FE3AFB19F97C
S31502000B101EFB1C0E19FB1C09C9EA2E4ED7FA4EF90A
S31502000B2097FA4EF798FA06F2D8FA06F616EE10AAD1
S31502000B303AFB07FE3AFB17F71EFB1C0E17FB1C07B8
S31502000B40C7EA2E4ED3FA4EF793FA4EF316EE90AA52
S31502000B503AFB04FE3AFB14F41EFB1C0E14FB1C04A7
S31502000B60C4EA2E4EDBFA0EF89BFA0EF417EE10AA22
S31502000B703AFB09FE3AFB19F91EFB1C0E19FB1C096E
S31502000B80C9EA2E4ED5FA4EF995FA4EF518EE10BA76
S31502000B903BFB03FE3BFB13F31EFB1C0E13FB1C036A
S31502000BA0C3EA2E4318EE90AA19EE10BA3AFB04FED7
S31502000BB03AFB14F41EFB1C0E14FB1C04C4EA2E445E
S31502000BC03BFB05FE3BFB15F51EFB1C0E15FB1C0530
S31502000BD0C5EA2E4519EE90AA1AEE10BA3AFB06FE9F
S31502000BE03AFB16F61EFB1C0E16FB1C06C6EA2E4622
S31502000BF03BFB07FE3BFB17F71EFB1C0E17FB1C07F6
S31502000C00C7EA2E471AEE90AA1BEE10BA3AFB08FE66
S31502000C103AFB18F81EFB1C0E18FB1C08C8EA2E48E5
S31502000C203BFB09FE3BFB19F91EFB1C0E19FB1C09BB
S31502000C30C9EA2E4900EE102A00EE903A01EE104A59
S31502000C4001EE905A02EE106A02EE907A03EE108AD4
S31502000C5003EE909A1BEE900AD0F80020D0F80430EA
S31502000C60D0F80840D0F80C50D0F81060D0F81470C4
S31502000C70D0F81880D0F81C9046F6080092FA03FEC7
S31502000C80D2FA03F394FA05FBD4FA05F596FA07F2BB
S31502000C90D6FA07F798FA09F4D8FA09F99EFA0BF880
S31502000CA0DEFA0BFB92FA04F6D2FA04F415EE10AA57
S31502000CB03AFB05FE3AFB15F51EFB1C0E15FB1C0541
S31502000CC0C5EA2E4ED3FA4EF593FA4EF33AFB09FED7
S31502000CD03AFB19F91EFB1C0E19FB1C09C9EA2E4E1A
S31502000CE0D7FA4EF997FA4EF798FA06F2D8FA06F6B6
S31502000CF016EE10AA3AFB07FE3AFB17F71EFB1C0E6E
S31502000D0017FB1C07C7EA2E4ED3FA4EF793FA4EF399
S31502000D1016EE90AA3AFB04FE3AFB14F41EFB1C0ED6
S31502000D2014FB1C04C4EA2E4EDBFA0EF89BFA0EF4F0
S31502000D3017EE10AA3AFB09FE3AFB19F91EFB1C0E26
S31502000D4019FB1C09C9EA2E4ED5FA4EF995FA4EF54B
S31502000D501BEE900A10EE90BA93FA4BFED3FA4BF3BF
S31502000D60C0F804E0C0F8243011EE90BA95FA4BFEB2
S31502000D70D5FA4BF5C0F80CE0C0F82C5012EE90BA3A
S31502000D8097FA4BFED7FA4BF7C0F814E0C0F8347066
S31502000D9013EE90BA99FA4BFED9FA4BF9C0F81CE059
S31502000DA0C0F83C9011EE105A94FA45FED4FA45FB6F
S31502000DB0C0F808E0C0F828B012EE107A96FA47FE9C
S31502000DC0D6FA47FBC0F810E0C0F830B013EE109A1E
S31502000DD098FA49FED8FA49FBC0F818E0C0F838B0CC
S31502000DE010EE103A92FA43FED2FA43FBC0F820B054
S31502000DF040F840EB14EE10EAB0EB0E0F7FF448AE6B
S31502000E00A0F5007003EE100AD0F80020D0F84030AA
S31502000E10D0F88040D0F8C050D0F80061D0F84071C8
S31502000E20D0F88081D0F8C091B1EC060A46F60800E7
S31502000E304AF6B87AC0F2130A3AFB02FE3AFB12F2FB
S31502000E401EFB1C0E12FB1C02C2EA2E423AFB03FEDA
S31502000E503AFB13F31EFB1C0E13FB1C03C3EA2E43C1
S31502000E603AFB04FE3AFB14F41EFB1C0E14FB1C0494
S31502000E70C4EA2E443AFB05FE3AFB15F51EFB1C0E90
S31502000E8015FB1C05C5EA2E453AFB06FE3AFB16F68D
S31502000E901EFB1C0E16FB1C06C6EA2E463AFB07FE76
S31502000EA03AFB17F71EFB1C0E17FB1C07C7EA2E4759
S31502000EB03AFB08FE3AFB18F81EFB1C0E18FB1C0830
S31502000EC0C8EA2E483AFB09FE3AFB19F91EFB1C0E2C
S31502000ED019FB1C09C9EA2E4992FA03FED2FA03F358
S31502000EE094FA05FBD4FA05F596FA07F2D6FA07F74D
S31502000EF098FA09F4D8FA09F99EFA0BF8DEFA0BFB0E
S31502000F0092FA04F6D2FA04F410EE90AA3AFB05FE1F
S31502000F103AFB15F51EFB1C0E15FB1C05C5EA2E4EEB
S31502000F20D3FA4EF593FA4EF33AFB09FE3AFB19F958
S31502000F301EFB1C0E19FB1C09C9EA2E4ED7FA4EF9E6
S31502000F4097FA4EF798FA06F2D8FA06F611EE90AA32
S31502000F503AFB07FE3AFB17F71EFB1C0E17FB1C0794
S31502000F60C7EA2E4ED3FA4EF793FA4EF312EE10AAB2
S31502000F703AFB04FE3AFB14F41EFB1C0E14FB1C0483
S31502000F80C4EA2E4EDBFA0EF89BFA0EF412EE90AA83
S31502000F903AFB09FE3AFB19F91EFB1C0E19FB1C094A
S31502000FA0C9EA2E4ED5FA4EF995FA4EF5F1E802AB9C
S31502000FB03AFB02FE3AFB12F21EFB1C0E12FB1C024D
S31502000FC0C2EA2E423BFB03FE3BFB13F31EFB1C0E47
S31502000FD013FB1C03C3EA2E43F1E802AB3AFB04FE01
S31502000FE03AFB14F41EFB1C0E14FB1C04C4EA2E442A
S31502000FF03BFB05FE3BFB15F51EFB1C0E15FB1C05FC
S31502001000C5EA2E45F1E802AB3AFB06FE3AFB16F6B6
S315020010101EFB1C0E16FB1C06C6EA2E463BFB07FEF3
S315020010203BFB17F71EFB1C0E17FB1C07C7EA2E47D6
S31502001030F1E802AB3AFB08FE3AFB18F81EFB1C0E5F
S3150200104018FB1C08C8EA2E483BFB09FE3BFB19F9B4
S315020010501EFB1C0E19FB1C09C9EA2E4913EE100AC7
S31502001060C0F80061C0F84071C0F88081C0F8C09134
S31502001070C0F84030C0F88040C0F8C05040F8042B99
S3150200108000F13C0E07EE10EA03EE100AD0F800203B
S31502001090D0F84030D0F88040D0F8C050D0F8006187
S315020010A0D0F84071D0F88081D0F8C09146F6080099
S315020010B051F804AB3AFB03FE3AFB13F31EFB1C0E7C
S315020010C013FB1C03C3EA2E4ED2FA4EF392FA4EF2E9
S315020010D03AFB05FE3AFB15F51EFB1C0E15FB1C051D
S315020010E0C5EA2E4ED4FA4EF594FA4EF43AFB07FEB2
S315020010F03AFB17F71EFB1C0E17FB1C07C7EA2E4E00
S31502001100D6FA4EF796FA4EF63AFB09FE3AFB19F96B
S315020011101EFB1C0E19FB1C09C9EA2E4ED8FA4EF903
S3150200112098FA4EF8F1E802AB3AFB04FE3AFB14F4E5
S315020011301EFB1C0E14FB1C04C4EA2E4ED2FA4EF4FD
S3150200114092FA4EF23BFB05FE3BFB15F51EFB1C0E0F
S3150200115015FB1C05C5EA2E4ED3FA4EF593FA4EF34D
S315020011603AFB08FE3AFB18F81EFB1C0E18FB1C087D
S31502001170C8EA2E4ED6FA4EF896FA4EF63BFB09FE12
S315020011803BFB19F91EFB1C0E19FB1C09C9EA2E4E64
S31502001190D7FA4EF997FA4EF7F1E802AB3AFB06FE9A
S315020011A03AFB16F61EFB1C0E16FB1C06C6EA2E4E54
S315020011B0D2FA4EF692FA4EF23BFB07FE3BFB17F7CC
S315020011C01EFB1C0E17FB1C07C7EA2E4ED3FA4EF760
S315020011D093FA4EF3F1E802AB3AFB08FE3AFB18F833
S315020011E01EFB1C0E18FB1C08C8EA2E4ED4FA4EF83B
S315020011F094FA4EF43BFB09FE3BFB19F91EFB1C0E4F
S3150200120019FB1C09C9EA2E4ED5FA4EF995FA4EF586
S31502001210F1E802AB3AFB02FE3AFB12F21EFB1C0E8F
S3150200122012FB1C02C2EA2E423BFB03FE3BFB13F3FC
S315020012301EFB1C0E13FB1C03C3EA2E43F1E802AB92
S315020012403AFB04FE3AFB14F41EFB1C0E14FB1C04B0
S31502001250C4EA2E443BFB05FE3BFB15F51EFB1C0EAA
S3150200126015FB1C05C5EA2E45F1E802AB3AFB06FE64
S315020012703AFB16F61EFB1C0E16FB1C06C6EA2E468B
S315020012803BFB07FE3BFB17F71EFB1C0E17FB1C075F
S31502001290C7EA2E47F1E802AB3AFB08FE3AFB18F81A
S315020012A01EFB1C0E18FB1C08C8EA2E483BFB09FE57
S315020012B03BFB19F91EFB1C0E19FB1C09C9EA2E4938
S315020012C013EE100AC0F80061C0F84071C0F88081C0
S315020012D0C0F8C091C0F84030C0F88040C0F8C05095
S315020012E040F8042B17EE10EAB0EB0E0F7FF4CCAEEB
S315020012F0BDEC088ABDE8F08F2DE9F04F2DED098A85
S31502001300C0F6015CB1EC0F4A00F1200E0CEE10EAB9
S315020013100BEE900AD0F82020D0F86030D0F8A0402A
S31502001320D0F8E050D0F82061D0F86071D0F8A081F2
S31502001330D0F8E09146F6080014EE10AA3AFB06FE33
S315020013403AFB16F61EFB1C0E16FB1C06C6EA2E4EB2
S31502001350D2FA4EF692FA4EF23AFB07FE3AFB17F72C
S315020013601EFB1C0E17FB1C07C7EA2E4ED3FA4EF7BE
S3150200137093FA4EF33AFB08FE3AFB18F81EFB1C0ED4
S3150200138018FB1C08C8EA2E4ED4FA4EF894FA4EF40C
S315020013903AFB09FE3AFB19F91EFB1C0E19FB1C0946
S315020013A0C9EA2E4ED5FA4EF995FA4EF514EE90AAE2
S315020013B015EE10BA3AFB04FE3AFB14F41EFB1C0EA1
S315020013C014FB1C04C4EA2E4ED2FA4EF492FA4EF2E2
S315020013D03AFB05FE3AFB15F51EFB1C0E15FB1C051A
S315020013E0C5EA2E4ED3FA4EF593FA4EF33BFB08FEB0
S315020013F03BFB18F81EFB1C0E18FB1C08C8EA2E4EF7
S31502001400D6FA4EF896FA4EF63BFB09FE3BFB19F965
S315020014101EFB1C0E19FB1C09C9EA2E4ED7FA4EF901
S3150200142097FA4EF715EE90AA16EE10BA3AFB03FE9D
S315020014303AFB13F31EFB1C0E13FB1C03C3EA2E4ED0
S31502001440D2FA4EF392FA4EF23BFB05FE3BFB15F542
S315020014501EFB1C0E15FB1C05C5EA2E4ED4FA4EF5D4
S3150200146094FA4EF416EE90AA17EE10BA3AFB07FE5D
S315020014703AFB17F71EFB1C0E17FB1C07C7EA2E4E7C
S31502001480D6FA4EF796FA4EF63BFB09FE3BFB19F9E6
S315020014901EFB1C0E19FB1C09C9EA2E4ED8FA4EF980
S315020014A098FA4EF817EE90AA18EE10BA3AFB02FE18
S315020014B03AFB12F21EFB1C0E12FB1C02C2EA2E4261
S315020014C03BFB03FE3BFB13F31EFB1C0E13FB1C0331
S315020014D0C3EA2E4318EE90AA19EE10BA3AFB04FE9E
S315020014E03AFB14F41EFB1C0E14FB1C04C4EA2E4425
S315020014F03BFB05FE3BFB15F51EFB1C0E15FB1C05F7
S31502001500C5EA2E4519EE90AA1AEE10BA3AFB06FE65
S315020015103AFB16F61EFB1C0E16FB1C06C6EA2E46E8
S315020015203BFB07FE3BFB17F71EFB1C0E17FB1C07BC
S31502001530C7EA2E471AEE90AA1BEE10BA3AFB08FE2D
S315020015403AFB18F81EFB1C0E18FB1C08C8EA2E48AC
S315020015503BFB09FE3BFB19F91EFB1C0E19FB1C0982
S31502001560C9EA2E4900EE102A00EE903A01EE104A20
S3150200157001EE905A02EE106A02EE907A03EE108A9B
S3150200158003EE909A1BEE900AD0F80020D0F8403075
S31502001590D0F88040D0F8C050D0F80061D0F8407141
S315020015A0D0F88081D0F8C09146F6080014EE10AA51
S315020015B03AFB06FE3AFB16F61EFB1C0E16FB1C0633
S315020015C0C6EA2E4ED2FA4EF692FA4EF23AFB07FED1
S315020015D03AFB17F71EFB1C0E17FB1C07C7EA2E4E1B
S315020015E0D3FA4EF793FA4EF33AFB08FE3AFB18F893
S315020015F01EFB1C0E18FB1C08C8EA2E4ED4FA4EF827
S3150200160094FA4EF43AFB09FE3AFB19F91EFB1C0E3C
S3150200161019FB1C09C9EA2E4ED5FA4EF995FA4EF572
S3150200162014EE90AA15EE10BA3AFB04FE3AFB14F435
S315020016301EFB1C0E14FB1C04C4EA2E4ED2FA4EF4F8
S3150200164092FA4EF23AFB05FE3AFB15F51EFB1C0E0C
S3150200165015FB1C05C5EA2E4ED3FA4EF593FA4EF348
S315020016603BFB08FE3BFB18F81EFB1C0E18FB1C0876
S31502001670C8EA2E4ED6FA4EF896FA4EF63BFB09FE0D
S315020016803BFB19F91EFB1C0E19FB1C09C9EA2E4E5F
S31502001690D7FA4EF997FA4EF715EE90AA16EE10BA49
S315020016A03AFB03FE3AFB13F31EFB1C0E13FB1C0351
S315020016B0C3EA2E4ED2FA4EF392FA4EF23BFB05FEE7
S315020016C03BFB15F51EFB1C0E15FB1C05C5EA2E4E33
S315020016D0D4FA4EF594FA4EF416EE90AA17EE10BA14
S315020016E03AFB07FE3AFB17F71EFB1C0E17FB1C07FD
S315020016F0C7EA2E4ED6FA4EF796FA4EF63BFB09FE8F
S315020017003BFB19F91EFB1C0E19FB1C09C9EA2E4EDE
S31502001710D8FA4EF998FA4EF81BEE900A10EE90AAF5
S3150200172093FA4AFED3FA4AF3C0F840E0C0F86030B2
S3150200173011EE90AA95FA4AFED5FA4AF5C0F8C0E02B
S31502001740C0F8E05012EE90AA97FA4AFED7FA4AF784
S31502001750C0F840E1C0F8607113EE90AA99FA4AFE09
S31502001760D9FA4AF9C0F8C0E1C0F8E09111EE105A70
S3150200177094FA45FED4FA45FAC0F880E0C0F8A0A073
S3150200178012EE107A96FA47FED6FA47FAC0F800E148
S31502001790C0F820A113EE109A98FA49FED8FA49FA2F
S315020017A0C0F880E1C0F8A0A110EE103A92FA43FE0A
S315020017B0D2FA43FAC0F820A040F804EB1CEE10EA75
S315020017C0B0EB0E0F7FF4A4ADA0F1200000F5007E71
S315020017D006EE90EA0BEE900AD0F80020D0F804301C
S315020017E0D0F80840D0F80C50D0F81060D0F8147039
S315020017F0D0F81880D0F81C9046F6080051F804ABD1
S315020018003AFB06FE3AFB16F61EFB1C0E16FB1C06E0
S31502001810C6EA2E4ED2FA4EF692FA4EF23AFB07FE7E
S315020018203AFB17F71EFB1C0E17FB1C07C7EA2E4EC8
S31502001830D3FA4EF793FA4EF33AFB08FE3AFB18F840
S315020018401EFB1C0E18FB1C08C8EA2E4ED4FA4EF8D4
S3150200185094FA4EF43AFB09FE3AFB19F91EFB1C0EEA
S3150200186019FB1C09C9EA2E4ED5FA4EF995FA4EF520
S31502001870F1E802AB3AFB04FE3AFB14F41EFB1C0E23
S3150200188014FB1C04C4EA2E4ED2FA4EF492FA4EF21D
S315020018903AFB05FE3AFB15F51EFB1C0E15FB1C0555
S315020018A0C5EA2E4ED3FA4EF593FA4EF33BFB08FEEB
S315020018B03BFB18F81EFB1C0E18FB1C08C8EA2E4E32
S315020018C0D6FA4EF896FA4EF63BFB09FE3BFB19F9A1
S315020018D01EFB1C0E19FB1C09C9EA2E4ED7FA4EF93D
S315020018E097FA4EF7F1E802AB3AFB03FE3AFB13F323
S315020018F01EFB1C0E13FB1C03C3EA2E4ED2FA4EF33A
S3150200190092FA4EF23BFB05FE3BFB15F51EFB1C0E47
S3150200191015FB1C05C5EA2E4ED4FA4EF594FA4EF482
S31502001920F1E802AB3AFB07FE3AFB17F71EFB1C0E69
S3150200193017FB1C07C7EA2E4ED6FA4EF796FA4EF654
S315020019403BFB09FE3BFB19F91EFB1C0E19FB1C098E
S31502001950C9EA2E4ED8FA4EF998FA4EF81BEE900ABC
S31502001960C0F81060C0F81470C0F81880C0F81C9057
S31502001970C0F80430C0F80840C0F80C5040F8202BDC
S3150200198016EE90EAB0EB0E0F7FF424AFBDEC098A97
S31502001990BDE8F08F2DE9FF4F46F6080B40F6015AD7
S315020019A04FF2013CC6F6A83C40F20009DDF834408D
S315020019B0DDF838700DEE107ADDF83C700DEE907A97
S315020019C040F2000E08EE903A33F8025B13F8016B10
S315020019D0C5F3033747EA0616C5F30B05C6F30B062E
S315020019E0B5EB0A0F80F04E8022F8025B09F101097D
S315020019F0B9F1040F40F04680A2F1080209EE103A4E
S31502001A0009EE90EA0AEE106A1DEE908A51F8043B3E
S31502001A10D2F8009054F804EB3EFB13F515FB0AB519
S31502001A20C3EA050548F8045B15FB39F613FB09669C
S31502001A3023FB19F5C0F8045040F8086BCEF1000EEE
S31502001A4051F8043BD2F804903EFB13F515FB0AB598
S31502001A50C3EA050548F8045B15FB39F613FB09666C
S31502001A6023FB19F5C0F8045040F8086B0DEE908A76
S31502001A7019EE103A19EE90EA1AEE106A0EF1010EFC
S31502001A8040F20009B6EB0A0F80F04E80BEF1400F1D
S31502001A9080F24A8022F8026B09F10109B9F1040FBA
S31502001AA040F04280A2F1080209EE103A09EE90EAED
S31502001AB01DEE908A51F8043BD2F8009054F804EBDC
S31502001AC03EFB13F515FB0AB5C3EA050548F8045BA8
S31502001AD015FB39F613FB096623FB19F5C0F804500A
S31502001AE040F8086BCEF1000E51F8043BD2F8049090
S31502001AF03EFB13F515FB0AB5C3EA050548F8045B78
S31502001B0015FB39F613FB096623FB19F5C0F80450D9
S31502001B1040F8086B0DEE908A19EE103A19EE90EA2B
S31502001B200EF1010E40F2000918EE907A07F1A807AD
S31502001B3003F10308B8EB070F40F32380BEF1400F11
S31502001B4080F21F8018EE903A08EE10CA09EE100ACB
S31502001B5009EE901A0AEE102A0AEE90EA184640F2A8
S31502001B6001011DEE102A0DF09FFD18EE10CA19EEA6
S31502001B70100A19EE901A1AEE102A1AEE90EA18EEC8
S31502001B80903ABEF1400FFFF61FAFBDE8FF8F00BFD0
S31502001B902DE9FF4F46F6080B40F6015A4FF2013C7B
S31502001BA0C6F6A83C40F20009DDF83440DDF838708C
S31502001BB00DEE107ADDF83C700DEE907A40F2000ED2
S31502001BC008EE903A33F8025B13F8016BC5F303375C
S31502001BD047EA0616C5F30B05C6F30B06B5EB0A0F65
S31502001BE080F0548022F8025B09F10109B9F1040F71
S31502001BF040F04C80A2F1080209EE103A09EE90EA92
S31502001C000AEE106A1DEE908A51F8043BD2F8009053
S31502001C10076854F804EB3EFB13F515FB0AB5C3EA55
S31502001C20050548F8045B15FB397513FB095740F89F
S31502001C30047BD0F8007023FB197740F8047BCEF1C1
S31502001C40000E51F8043BD2F8049007683EFB13F5E8
S31502001C5015FB0AB5C3EA050548F8045B15FB397599
S31502001C6013FB095740F8047BD0F8007023FB197761
S31502001C7040F8047B0DEE908A19EE103A19EE90EABE
S31502001C801AEE106A0EF1010E40F20009B6EB0A0FC7
S31502001C9080F05480BEF1400F80F2508022F8026B31
S31502001CA009F10109B9F1040F40F04880A2F10802D6
S31502001CB009EE103A09EE90EA1DEE908A51F8043BBD
S31502001CC0D2F80090076854F804EB3EFB13F515FBB7
S31502001CD00AB5C3EA050548F8045B15FB397513FB1B
S31502001CE0095740F8047BD0F8007023FB197740F8B7
S31502001CF0047BCEF1000E51F8043BD2F8049007683B
S31502001D003EFB13F515FB0AB5C3EA050548F8045B65
S31502001D1015FB397513FB095740F8047BD0F80070A0
S31502001D2023FB197740F8047B0DEE908A19EE103AE0
S31502001D3019EE90EA0EF1010E40F2000918EE907AC1
S31502001D4007F1A80703F10308B8EB070F40F3238056
S31502001D50BEF1400F80F21F8018EE903A08EE10CACC
S31502001D6009EE100A09EE901A0AEE102A0AEE90EA15
S31502001D70184640F201011DEE102A0DF095FC18EEF0
S31502001D8010CA19EE100A19EE901A1AEE102A1AEE55
S31502001D9090EA18EE903ABEF1400FFFF613AFBDE897
S31502001DA0FF8F00BF2DE9FF4F46F6080B40F6015A9A
S31502001DB04FF2013CC6F6A83C40F20009DDF8344079
S31502001DC0DDF838700DEE107ADDF83C700DEE907A83
S31502001DD00EEE100A0EEE900ADDF8400040F2000EFA
S31502001DE008EE903A33F8025B13F8016BC5F303373A
S31502001DF047EA0616C5F30B05C6F30B06B5EB0A0F43
S31502001E0080F06A8022F8025B09F10109B9F1040F38
S31502001E1040F06280A2F1080209EE103A09EE90EA59
S31502001E200AEE106A1DEE908A51F8043BD2F8009031
S31502001E3050F8047B54F804EB3EFB13F515FB0AB588
S31502001E40C3EA050548F8045B15FB397513FB095609
S31502001E5006FB0CF616FB2AB650F8045B23FB195553
S31502001E6005FB0CF515FB2AB5C5EA26471EEE106AD8
S31502001E7046F8047BCEF1000E51F8043BD2F80490EA
S31502001E803EFB13F515FB0AB5C3EA050550F8047BBC
S31502001E9048F8045B15FB397513FB095505FB0CF570
S31502001EA015FB2AB550F8047B23FB197707FB0CF7C1
S31502001EB017FB2AB7C7EA254746F8047B0EEE106AD7
S31502001EC00DEE908A19EE103A19EE90EA1AEE106AA1
S31502001ED00EF1010E40F20009B6EB0A0F80F06A809D
S31502001EE0BEF1400F80F2668022F8026B09F1010909
S31502001EF0B9F1040F40F05E80A2F1080209EE103A31
S31502001F0009EE90EA1DEE908A51F8043BD2F8009051
S31502001F1050F8047B54F804EB3EFB13F515FB0AB5A7
S31502001F20C3EA050548F8045B15FB397513FB095628
S31502001F3006FB0CF616FB2AB650F8045B23FB195572
S31502001F4005FB0CF515FB2AB5C5EA26471EEE106AF7
S31502001F5046F8047BCEF1000E51F8043BD2F8049009
S31502001F603EFB13F515FB0AB5C3EA050550F8047BDB
S31502001F7048F8045B15FB397513FB095505FB0CF58F
S31502001F8015FB2AB550F8047B23FB197707FB0CF7E0
S31502001F9017FB2AB7C7EA254746F8047B0EEE106AF6
S31502001FA00DEE908A19EE103A19EE90EA0EF1010E34
S31502001FB040F2000918EE907A07F1A80703F1030828
S31502001FC0B8EB070F40F32380BEF1400F80F21F806B
S31502001FD018EE903A08EE10CA09EE100A09EE901AA7
S31502001FE00AEE102A0AEE90EA184640F201011DEEA8
S31502001FF0102A0DF059FB18EE10CA19EE100A19EE46
S31502002000901A1AEE102A1AEE90EA18EE903ABEF1DB
S31502002010400FFFF6E7AE1EEE900ABDE8FF8F00BF47
S315020020202DE9FF4F46F6080B40F6015A4FF2013CE6
S31502002030C6F6A83C40F20009DDF834700DEE107ABF
S31502002040DDF838700DEE907A40F2000E08EE903A06
S3150200205033F8025B13F8016BC5F3033747EA06163A
S31502002060C5F30B05C6F30B06B5EB0A0F80F03A80F3
S3150200207022F8025B09F10109B9F1040F40F032803E
S31502002080A2F1080209EE103A09EE90EA0AEE106A87
S315020020901DEE908A51F8043BD2F8009051F8045B89
S315020020A0D2F8046058F804EB2EFB09F723FB19F467
S315020020B040F8047B40F8044B58F8047B27FB06FEE5
S315020020C025FB16F440F804EB40F8044B0DEE908A1B
S315020020D019EE103A19EE90EA1AEE106A0EF1010E96
S315020020E040F20009B6EB0A0F80F03A80BEF1400FCB
S315020020F080F2368022F8026B09F10109B9F1040F68
S3150200210040F02E80A2F1080209EE103A09EE90EA9A
S315020021101DEE908A51F8043BD2F8009051F8045B08
S31502002120D2F8046058F804EB2EFB09F723FB19F4E6
S3150200213040F8047B40F8044B58F8047B27FB06FE64
S3150200214025FB16F440F804EB40F8044B0DEE908A9A
S3150200215019EE103A19EE90EA0EF1010E40F200095C
S3150200216018EE907A07F1A80703F10308B8EB070FF8
S3150200217040F32380BEF1400F80F21F8018EE903AA2
S3150200218008EE10CA09EE100A09EE901A0AEE102A93
S315020021900AEE90EA184640F201011DEE102A0DF0F1
S315020021A083FA18EE10CA19EE100A19EE901A1AEEF0
S315020021B0102A1AEE90EA18EE903ABEF1400FFFF698
S315020021C047AFBDE8FF8F00BF2DE9FF4F46F6080B6C
S315020021D040F6015A4FF2013CC6F6A83C40F200090D
S315020021E0DDF834700DEE107ADDF838700DEE907A67
S315020021F040F2000E08EE903A33F8025B13F8016BD8
S31502002200C5F3033747EA0616C5F30B05C6F30B06F5
S31502002210B5EB0A0F80F0418022F8025B09F1010951
S31502002220B9F1040F40F03980A2F1080209EE103A22
S3150200223009EE90EA0AEE106A1DEE908A51F8043B06
S31502002240D2F8009051F8045BD2F80460D0F800701E
S31502002250D0F804E058F8044B24FB097723FB19EE67
S31502002260C0F804E040F8087B58F8044B0768D0F839
S3150200227004E024FB067725FB16EEC0F804E040F8DE
S31502002280087B0DEE908A19EE103A19EE90EA1AEED4
S31502002290106A0EF1010E40F20009B6EB0A0F80F049
S315020022A04180BEF1400F80F23D8022F8026B09F1B7
S315020022B00109B9F1040F40F03580A2F1080209EED6
S315020022C0103A09EE90EA1DEE908A51F8043BD2F8D4
S315020022D0009051F8045BD2F80460D0F80070D0F890
S315020022E004E058F8044B24FB097723FB19EEC0F8E7
S315020022F004E040F8087B58F8044B0768D0F804E07D
S3150200230024FB067725FB16EEC0F804E040F8087BAE
S315020023100DEE908A19EE103A19EE90EA0EF1010EC0
S3150200232040F2000918EE907A07F1A80703F10308B4
S31502002330B8EB070F40F32380BEF1400F80F21F80F7
S3150200234018EE903A08EE10CA09EE100A09EE901A33
S315020023500AEE102A0AEE90EA184640F201011DEE34
S31502002360102A0DF0A1F918EE10CA19EE100A19EE8C
S31502002370901A1AEE102A1AEE90EA18EE903ABEF168
S31502002380400FFFF639AFBDE8FF8F00BF2DE9FF4FC3
S3150200239046F6080B40F6015A4FF2013CC6F6A83C37
S315020023A040F20009DDF834700DEE107ADDF838706F
S315020023B00DEE907A0EEE100A0EEE900ADDF83C0053
S315020023C040F2000E08EE903A33F8025B13F8016B06
S315020023D0C5F3033747EA0616C5F30B05C6F30B0624
S315020023E0B5EB0A0F80F0568022F8025B09F101096B
S315020023F0B9F1040F40F04E80A2F1080209EE103A3C
S3150200240009EE90EA0AEE106A1DEE908A51F8043B34
S31502002410D2F8009051F8045BD2F80460D0F804E0D8
S3150200242050F8087B58F8044B24FB097707FB0CF796
S3150200243017FB2AB723FB19EE0EFB0CFE1EFB2ABE68
S31502002440CEEA27471EEE103A43F8047B58F8044BAF
S31502002450D0F804E050F8087B24FB067707FB0CF75C
S3150200246017FB2AB725FB16EE0EFB0CFE1EFB2ABE39
S31502002470CEEA274743F8047B0EEE103A0DEE908A19
S3150200248019EE103A19EE90EA1AEE106A0EF1010EE2
S3150200249040F20009B6EB0A0F80F05680BEF1400FFB
S315020024A080F2528022F8026B09F10109B9F1040F98
S315020024B040F04A80A2F1080209EE103A09EE90EACB
S315020024C01DEE908A51F8043BD2F8009051F8045B55
S315020024D0D2F80460D0F804E050F8087B58F8044BB0
S315020024E024FB097707FB0CF717FB2AB723FB19EE28
S315020024F00EFB0CFE1EFB2ABECEEA27471EEE103A44
S3150200250043F8047B58F8044BD0F804E050F8087BF3
S3150200251024FB067707FB0CF717FB2AB725FB16EEFB
S315020025200EFB0CFE1EFB2ABECEEA274743F8047BAF
S315020025300EEE103A0DEE908A19EE103A19EE90EA66
S315020025400EF1010E40F2000918EE907A07F1A80783
S3150200255003F10308B8EB070F40F32380BEF1400FE7
S3150200256080F21F8018EE903A08EE10CA09EE100AA1
S3150200257009EE901A0AEE102A0AEE90EA184640F27E
S3150200258001011DEE102A0DF08FF818EE10CA19EE91
S31502002590100A19EE901A1AEE102A1AEE90EA18EE9E
S315020025A0903ABEF1400FFFF60FAF1EEE900ABDE85D
S315020025B0FF8F00BF2DE9F041074690B000F5007687
S315020025C04FF0040E3C46E8464EF001E007F14005A6
S315020025D0C44620686168A268E36808F11008ACE89E
S315020025E00F0010340FF00DC0EC46384600244FF0B1
S315020025F0040E024600234EF001E05CF82310043379
S3150200260042F8041B0FF007C80134042C00F1100035
S315020026100CF1040CEBD1B5422F46D1D110B0BDE876
S31502002620F08100BF2DE9F04F46F6080AC0F60159BF
S315020026304FF2013BC6F6A83B00F5806E53F804CB79
S3150200264092F80260B2F8037092F8058032F8064BEF
S31502002650C4F30335C4F30B0445EA061544EA0544FC
S31502002660C7F30335C7F30B0645EA081546EA0545DF
S3150200267051F8046B51F8047B3CFB14F818FB19A8BB
S3150200268016FB38F816FB048840F8048B26FB14F870
S3150200269040F8048BCCF1000C3CFB15F818FB19A88A
S315020026A017FB38F817FB058840F8048B27FB15F84B
S315020026B040F8048BB0EB0E0F7FF4C0AFBDE8F08F8D
S315020026C02DE9F04F46F6080AC0F601594FF2013BD2
S315020026D0C6F6A83B00F5806E53F804CB92F802606A
S315020026E0B2F8037092F8058032F8064BC4F303354C
S315020026F0C4F30B0445EA061544EA0544C7F3033559
S31502002700C7F30B0645EA081546EA054551F8048B58
S3150200271006683CFB14F717FB19A718FB376718FB6B
S31502002720047740F8047B066828FB146740F8047BAC
S31502002730CCF1000C51F8048B06683CFB15F717FB2D
S3150200274019A718FB376718FB057740F8047B06685C
S3150200275028FB156740F8047BB0EB0E0F7FF4BCAF85
S31502002760BDE8F08F2DE9F04F46F6080AC0F601598A
S315020027704FF2013BC6F6A83BDDF8246000EE906AF4
S3150200278006F5806E53F804CB92F80260B2F8037035
S3150200279092F8058032F8064BC4F30335C4F30B04F2
S315020027A045EA061544EA0544C7F30335C7F30B06A3
S315020027B045EA081546EA054501EE103A10EE903A4A
S315020027C051F8048B53F8046B3CFB14F717FB19A75B
S315020027D018FB376718FB047707FB0BF717FB39A7BC
S315020027E053F8046B28FB146606FB0BF616FB39A698
S315020027F0C6EA274640F8046BCCF1000C51F8048B6C
S3150200280053F8046B3CFB15F717FB19A718FB376740
S3150200281018FB057707FB0BF717FB39A753F8046B71
S3150200282028FB156606FB0BF616FB39A6C6EA2746F3
S3150200283040F8046B00EE903AB3EB0E0F11EE103A2D
S315020028407FF4A0AFBDE8F08F10B540F6015C40F210
S31502002850816240F2FF334FF0400E124C2DED088B91
S31502002860A0EE10CBA8EE104BA2EE102BA4EE103B5E
S315020028704EF001E0B9EC04AFA1EF5A6006EF5061E9
S3150200288026EF4A68AAEF566522EF466827FE096ECA
S3150200289006EF5461A8EC046F0FF015C0BDEC088B6F
S315020028A010BD00BFB7AF1300F0B5ADF5017D05460B
S315020028B068461446FFF7C8FF4FF0400E6B464EF0CF
S315020028C001E004EB840405EB84100022B3F802C095
S315020028D01E889F88D9884FEA8C0545EA16253C0151
S315020028E066F3070244EA9C1465F30F224FEA811C41
S315020028F04CEA171C890864F3174201716CF31F62D4
S315020029000530083340F8052C0FF021C80DF5017D7E
S31502002910F0BD00BF2DE9F04FADF5017D05466846D5
S315020029201446FFF791FF4FF0400E0020EC464EF0A2
S3150200293001E004EB840405EB8411BCF802A0BCF8A8
S315020029400040BCF80470BCF806200B7991F80090A0
S3150200295091F801B04FEA8A0691F8028083EA92035F
S3150200296089EA040946EA14263C01CD7843EA0903BA
S3150200297086EA0B0644EA9A149201334384EA08046F
S3150200298042EA171223436A4013430343D8B205317E
S315020029900CF1080C0FF02FC80DF5017DBDE8F08F84
S315020029A010B540F6015C46F610020F234FF0400EBA
S315020029B0114C2DED088BA0EE10CBA8EE104BA2EE1B
S315020029C0102BA4EE103B4EF001E0B9EC04AFA1EFE0
S315020029D05A6006EF506126EF4A68A8EF566522EF65
S315020029E0466827FE096E06EF5461A8EC046F0FF0E5
S315020029F015C0BDEC088B10BDFB3A010010B5ADF554
S31502002A00007D04466846FFF7CBFF4FF0800E6A460C
S31502002A104EF001E0601E518832F8043B43EA01138E
S31502002A2000F8013F0FF009C80DF5007D10BD00BF8B
S31502002A3010B5ADF5007D04466846FFF7B1FF4FF0CD
S31502002A40800E00206A464EF001E0611EB2F802C016
S31502002A5032F8043B11F8014F43EA0C136340184362
S31502002A60C0B20FF00DC80DF5007D10BD10B5ADF565
S31502002A70007D04466846FFF793FF4FF0100E6B4643
S31502002A804EF001E093FC805EB3FCA05E94EF562507
S31502002A9024EF5241A4EC884E0FF00DC00DF5007DD7
S31502002AA010BD00BF10B52DED048BADF5007D0446BB
S31502002AB06846FFF775FF00224FF0100E6B46A2EE36
S31502002AC0302B4EF001E093FC805EB3FCA05E94EFE7
S31502002AD05685B4FC880E24EF584104FF504122EF7C
S31502002AE054210FF011C00020E6FE020F80B200381A
S31502002AF018BF01200DF5007DBDEC048B10BD00BF93
S31502002B0070B57C4D2DED108B95ED009F0125A6EE3F
S31502002B10105B032502EB8202062300EB821040F6CD
S31502002B200152AAEE105B744DA4EE102B95ED001F18
S31502002B304FF0020CA2EE103BB8B020EF466828EF29
S31502002B40422804248DED185FA4EE10CB8DED287F6C
S31502002B508DED243FA6EE104B28EF442820EF444883
S31502002B608DED2C5F28EF464826EF4068634A4FF00A
S31502002B70100EAEEE102B8DED347F20EF4A688DEDF0
S31502002B800C9F8DED14BF4EF001E08DED101F8DED03
S31502002B901C3F8DED205F8DED307F8DED04FF9DEDA9
S31502002BA01C7F9DED203F2031A1F1200595EC164FAB
S31502002BB09DED0C1F95EC126F9DED243F40F2816452
S31502002BC095EC12EF95EC102F8DED083FA2EE104B0F
S31502002BD09DED18DF8DED003FA1EF542002EF5C2141
S31502002BE024EF42289DED005FAAEF522522EF4428EA
S31502002BF09DED045F23FE052EA1EF564004EF5C41D6
S31502002C0026EF44480F239DED007FAAEF5445A0EE20
S31502002C10103B04AB24EF464840F2FF3C93ED007FA5
S31502002C20AAEE10CB25FE074E3F2204EF5A4102EFD1
S31502002C305A2104EF5001A1EF5E60A8EE102B06EFB9
S31502002C405C6102EF5881A4EF5005BAFF522022EFD1
S31502002C5050212EEF46089DED00FFAAEF500508AD64
S31502002C6093ED007F20EF4E0895ED00FF21FE070E43
S31502002C70A1EF5E6006EF5C612EEF46689DED00FFF8
S31502002C80AAEF56659DED04DF26EF4E6827FE0D6E10
S31502002C9000EF5A0106EF5A619DED10BFA2EF58856B
S31502002CA080EC0A6FB8FF566026EF58619DED289FAB
S31502002CB080EC086F9DED2C7F80EC062F9DED147F36
S31502002CC000EF5661BCFF5440A6EF566524EF56410D
S31502002CD09DED307F80EC064FBEFF50009DED347FA8
S31502002CE080EC060F14300FF0A7C038B0BDEC108B85
S31502002CF070BD00BF108F0A02808F0A02B7AF1300A1
S31502002D0002EB820200EB82100322F0B59C4B2DED02
S31502002D10108B93ED009FAAEE102B01230022A6EE44
S31502002D20103BA2EE102B40F601530624954ED9B065
S31502002D3096ED001FA4EE103B4FF0020C8DED083FFE
S31502002D40A2EE104B20EF466828EF422804258DEDAF
S31502002D50385FA4EE10CB8DED487F8DED443FA6EE95
S31502002D60105B28EF442820EF44488DED4C5F28EF96
S31502002D70464820EF4668844B4FF0100EACEE103BEF
S31502002D808DED547F20EF4A688DED2C9F8DED34BF7B
S31502002D904EF001E08DED301F8DED3C3F8DED405F35
S31502002DA08DED507F8DED00DF9DED3C5F2031A1F171
S31502002DB0200696EC146F9DED405F9DED441F96EC48
S31502002DC0142F9DED309F9DED2C5F9DED48DF96EC17
S31502002DD014EF96EC104F90FC080F90FC0C8F0646F1
S31502002DE08DED285F8DED241F9DED4C5F9DED501FEF
S31502002DF08DED209F9DED549F90FC04CF0F2290FCF9
S31502002E00004FFF2396FC080F8DED1CDF8DED141F7E
S31502002E10ACEE102BA0EE103B8DED0CDF8DED041FFA
S31502002E209DED38DFA1EF560000EF5C0140F28165AF
S31502002E3026EF4068AAEE105BAAEF56659DED001FCD
S31502002E4026EF4A6840F2FF3427FE016EA8EE104BC9
S31502002E504FF03F0C06EF58618DED185FA4EE10CBD4
S31502002E6006EF5441A2EF54458DED105FA1EF52409B
S31502002E7004EF5C4122EF4448AAEF544524EF4A4846
S31502002E8025FE014E9DED0C3F04EF5841A1EF5E0079
S31502002E9004EF522100EF5C01A4EF5225BAFF5660FF
S31502002EA02EEF400826EF52619DED043FAAEF500532
S31502002EB006EF52619DED1C3F20EF4A0802FF566164
S31502002EC09DED003F9DED28FF21FE030EA1EF5E2042
S31502002ED002EF5C212EEF4228AAEF522522EF4A2862
S31502002EE09DED00BF23FE0B2E00EF580102EF582185
S31502002EF09DED049F9DED24BF00EF58819DED10DFEF
S31502002F00B8FF50000AFF58819DED08FF9DED20BFD6
S31502002F1020EF5C012EEF58810AFF50019DED34BF70
S31502002F2028EF508128EF568102EF5A61BCFF5440C8
S31502002F30A6EF566524EF56419DED047F04EF5641F8
S31502002F409DED187FBEFF522006FF54419DED141FD2
S31502002F5028EF548100FF522128EF526114AE0CAAC9
S31502002F608DED087F14300FF0E1C80020EAFE060F4F
S31502002F70003818BF012059B0BDEC108BF0BD00BF60
S31502002F80108F0A02808F0A02B7AF130000B54FF006
S31502002F90030C4FF0550E2DED108B1023A8EE30EBDF
S31502002FA0A4EE30CB91FD806E06EF58A19FFF5660CE
S31502002FB006EF586116EF4A689EFF56C006EF54A107
S31502002FC00CEF54C11AFF4CA89CFF56C09AFF5660DC
S31502002FD00CEF54C106EF546108311CFF46683AB142
S31502002FE090FC80DE90FCA0DE1AEF4CA816EF4E682D
S31502002FF02AEF5A0126EF5621013B80FC801EA0FCD7
S31502003000A01ECFD1BDEC108B5DF804FB38B50D4682
S315020030102DED108B0446084600F044FA284600F0CF
S3150200302041FA40F6FF724FF0200E1649164B91ED0B
S3150200303000BF93ED009F1549154B91ED001FA2EEBF
S31502003040103B28462346A4EE102B4EF001E0B0ECCE
S31502003050047FBCFF56C006EF54610CEF52C126EF47
S315020030605C61B8FF56E0B0FF56C083EC0A6F83EC92
S3150200307008EF83EC00CF0C330FF017C8BDEC108BB2
S3150200308038BD00BFB08F0A02A08F0A02908F0A02D3
S3150200309000F0FF0010B540F6FF734FF0200E184AFD
S315020030A0184C92ED001F184A2DED0C8B92ED003F45
S315020030B094ED009FA4EE103B4EF001E00B4691FC0E
S315020030C000AF93FC02CFA8EF5AA5B0EF5CC591FC06
S315020030D0086F2AEF5CA126EF5A61B4FF56A00AEFE9
S315020030E054A106EF5461B0EF5AA526EF5A610C318E
S315020030F0A0EC047F0FF01FC0BDEC0C8B10BD00BF0F
S31502003100A08F0A02B08F0A02908F0A022DE9F047B9
S315020031105F4B2DED108B93ED007F5E4BACB093EDC4
S31502003120005F06238DED005FA4EE103B002626EF1E
S3150200313044488DED285FA4EE106B022526EF444825
S315020031408DED1C5FA4EE105B042426EF44488DED42
S31502003150205FA4EE104B26EF4468DFF840A18DED08
S31502003160247F9AED007FDFF8389102EB82028DED23
S31502003170047F01EB821199ED007F0F22DFF8248193
S31502003180A2EE102B03238DED087F98ED007F424FB0
S315020031908DED143F4FF03F0CA2EE103B4FF4007240
S315020031A04FF0100E8DED0C7F97ED007F8DED183FE1
S315020031B040F601534EF001E08DED107FAEEE10CBDE
S315020031C0A8EE102B9DED047F9DED0C3F91FC064F62
S315020031D09DED00BF9DED087F9DED10DF0A4691FC37
S315020031E0060F91FC026F91FC0A2F92FC0CAF9DED2B
S315020031F018DF04EF5CC1A8EF5CC522EF5C2123EE69
S31502003200633E28EF42289DED1CDFB6FF522080EC7C
S315020032101C2F9DED143F00EF5221BEFF5440A6EF36
S31502003220522524EF524125EE635E28EF44489DED78
S31502003230203FB6FF544080EC124F06EF5E41BCFFC2
S315020032405000A4EF544520EF5441A2EF5AA5BAFF0D
S31502003250566025EE635E26EF5A6128EF444827EE54
S31502003260637EB6FF54409DED243F28EF466880EC0E
S31502003270124FB6FF56609DED285F143180EC146F35
S3150200328020300FF061C82CB0BDEC108BBDE8F08782
S31502003290108F0A02808F0A02408F0A02708F0A027A
S315020032A0608F0A02508F0A02034B1B68022B01D061
S315020032B0FFF7FABA24E400BFE42E0022034B1B6890
S315020032C0022B01D0FFF726BB1AE500BFE42E00222F
S315020032D0034B1B68022B01D0FFF790BBFFF7C6BB5F
S315020032E0E42E0022034B1B68022B01D0FFF7A0BB82
S315020032F0FFF7D8BBE42E002200B54FF00F0C0822D0
S315020033004FF0200E184B2DED0C8B93ED00BF174B93
S31502003310A2EE10CB93ED009F154BA4EE102B93ED6E
S31502003320001F4EF001E040F601530A4692FC006F80
S3150200333006EF52C1BCFF56602DEE63DE27EE637EBA
S3150200334024EF4CC824EF4668BCFF5CC0BCFF566045
S3150200335080EC1ACF043180EC186F10300FF01BC8C6
S31502003360BDEC0C8B5DF804FB308F0A02208F0A023B
S31502003370008F0A0240F6015310B52DED108BACEE0C
S31502003380103B274B46F6100CA8EE103B254B0122AC
S315020033904FF0200E93ED007F234C84B094ED00FF96
S315020033A0AAEE10CB4EF001E0A0EE102B8DED007FC1
S315020033B001380B46BBEC042FA1EF526006EF5C61AD
S315020033C026EF4268A5EF56652AEF466827FE096E84
S315020033D006EF50619BED004F26EF5E69F9FE062F60
S315020033E0A1EF546006EF5C6126EF4468A5EF5665CF
S315020033F02AEF466827FE096E9DED005F06EF5061D3
S3150200340026EF5469F9FE06CF02EB0C03103100F8E1
S31502003410013F0FF033C004B0BDEC108B10BD00BFEE
S31502003420FB3A0100E08E0A02F08E0A0210B540F263
S31502003430816200234FF0200E184C2DED088B94ED7F
S3150200344000BF174CA2EE102B94ED009FA4EE103B8A
S315020034504EF001E0013911F8012F0346A6EE102BBA
S3150200346006EF5A0106EF586121FE840FFDEE10CADF
S3150200347027FE840FFDEE102AEDEE10CA33FE050F6D
S31502003480EDEE102AABEC040F33FE056F10308BED18
S31502003490006F0FF021C0BDEC088B10BDF08E0A0242
S315020034A0E08E0A022DE9F04F44F6BF6A40F6015B50
S315020034B040F2100990E8FE0111FB0AFC11FB2AFEFC
S315020034C04FEAAC6C4FEAAE6E1CFB0BFC1EFB0BFE0E
S315020034D0CCEA0E4CD1FA4CF112FB0AFC12FB2AFE84
S315020034E04FEAAC6C4FEAAE6E1CFB0BFC1EFB0BFEEE
S315020034F0CCEA0E4CD2FA4CF213FB0AFC13FB2AFE60
S315020035004FEAAC6C4FEAAE6E1CFB0BFC1EFB0BFECD
S31502003510CCEA0E4CD3FA4CF314FB0AFC14FB2AFE3B
S315020035204FEAAC6C4FEAAE6E1CFB0BFC1EFB0BFEAD
S31502003530CCEA0E4CD4FA4CF415FB0AFC15FB2AFE17
S315020035404FEAAC6C4FEAAE6E1CFB0BFC1EFB0BFE8D
S31502003550CCEA0E4CD5FA4CF516FB0AFC16FB2AFEF3
S315020035604FEAAC6C4FEAAE6E1CFB0BFC1EFB0BFE6D
S31502003570CCEA0E4CD6FA4CF617FB0AFC17FB2AFECF
S315020035804FEAAC6C4FEAAE6E1CFB0BFC1EFB0BFE4D
S31502003590CCEA0E4CD7FA4CF718FB0AFC18FB2AFEAB
S315020035A04FEAAC6C4FEAAE6E1CFB0BFC1EFB0BFE2D
S315020035B0CCEA0E4CD8FA4CF8A0E8FE01B9F10109A2
S315020035C07FF478AFBDE8F08F2DE9F04F46F6080C90
S315020035D0C0F6015B44F6AC7AC9F2F47A40F21009FD
S315020035E090E8FE013AFB01FE3AFB11F11EFB1BCEEF
S315020035F011FB1BC1C1EA2E413AFB02FE3AFB12F253
S315020036001EFB1BCE12FB1BC2C2EA2E423AFB03FE74
S315020036103AFB13F31EFB1BCE13FB1BC3C3EA2E435B
S315020036203AFB04FE3AFB14F41EFB1BCE14FB1BC42E
S31502003630C4EA2E443AFB05FE3AFB15F51EFB1BCEE9
S3150200364015FB1BC5C5EA2E453AFB06FE3AFB16F6E6
S315020036501EFB1BCE16FB1BC6C6EA2E463AFB07FE10
S315020036603AFB17F71EFB1BCE17FB1BC7C7EA2E47F3
S315020036703AFB08FE3AFB18F81EFB1BCE18FB1BC8CA
S31502003680C8EA2E48A0E8FE01B9F101097FF4A8AF05
S31502003690BDE8F08F000000000000000000000000FE
S315020036A00000000000000000000000000000000012
S315020036B00000000000000000000000000000000002
S315020036C000000000000000000000000000000000F2
S315020036D000000000000000000000000000000000E2
S315020036E000000000000000000000000000000000D2
S315020036F000000000000000000000000000000000C2
S3150200370000000000000000000000000000000000B1
S3150200371000000000000000000000000000000000A1
S315020037200000000000000000000000000000000091
S315020037300000000000000000000000000000000081
S31502003740704700BFAFF30080AFF30080AFF3008095
S31502003750AFF30080AFF30080AFF30080AFF30080D9
S31502003760AFF30080AFF30080AFF30080AFF30080C9
S31502003770AFF30080AFF30080AFF30080AFF30080B9
S315020037800000000000000000000000000000000031
S315020037900000000000000000000000000000000021
S315020037A00000000000000000000000000000000011
S315020037B00000000000000000000000000000000001
S315020037C000000000000000000000000000000000F1
S315020037D000000000000000000000000000000000E1
S315020037E000000000000000000000000000000000D1
S315020037F000000000000000000000000000000000C1
S3150200380000000000000000000000000000000000B0
S3150200381000000000000000000000000000000000A0
S315020038200000000000000000000000000000000090
S315020038300000000000000000000000000000000080
S3150200384003B32DE9F04122F00704001912F0070232
S315020038500BD01C00C2F10805AC4200DD2C00A3EB24
S315020038600408230000F0ECF84346DA0804D0984630
S3150200387000F066F808F0070313B1002200F0E0F842
S31502003880BDE8F081704700BFAFF30080AFF3008060
S31502003890AFF30080AFF30080AFF30080AFF3008098
S315020038A0AFF30080AFF30080AFF30080AFF3008088
S315020038B0AFF30080AFF30080AFF30080AFF3008078
S315020038C000000000000000000000000000000000F0
S315020038D000000000000000000000000000000000E0
S315020038E000000000000000000000000000000000D0
S315020038F000000000000000000000000000000000C0
S3150200390000000000000000000000000000000000AF
S31502003910000000000000000000000000000000009F
S31502003920000000000000000000000000000000008F
S31502003930000000000000000000000000000000007F
S3150200394051F8044B51F8045BD0E9006704F0553393
S3150200395043EA530303F0333343EA930303F00F338B
S3150200396043EA131303F0FF1363F30F2386EA1326C6
S3150200397005F0553343EA530303F0333343EA930323
S3150200398003F00F3343EA131303F0FF1343EA13233F
S3150200399086EA034604F0AA3343EA430303F0CC3330
S315020039A043EA830303F0F03343EA031303F0FF23EE
S315020039B043EA032387EA134705F0AA3343EA43039C
S315020039C003F0CC3343EA830303F0F03343EA0313F1
S315020039D003F0FF2343EA03236FF30F035F40E0E89C
S315020039E00267013AACD17047AFF30080AFF30080B3
S315020039F0AFF30080AFF30080AFF30080AFF3008037
S31502003A0000000000000000000000000000000000AE
S31502003A10000000000000000000000000000000009E
S31502003A20000000000000000000000000000000008E
S31502003A30000000000000000000000000000000007E
S31502003A400024002530B46A4411F8015B02F8015BD8
S31502003A50013BF9D130BCD0E9006704F0553343EAA3
S31502003A60530303F0333343EA930303F00F3343EA7A
S31502003A70131303F0FF1363F30F2386EA132605F0ED
S31502003A80553343EA530303F0333343EA930303F014
S31502003A900F3343EA131303F0FF1343EA132386EAB1
S31502003AA0034604F0AA3343EA430303F0CC3343EA62
S31502003AB0830303F0F03343EA031303F0FF2343EADD
S31502003AC0032387EA134705F0AA3343EA430303F0C5
S31502003AD0CC3343EA830303F0F03343EA031303F0E0
S31502003AE0FF2343EA03236FF30F035F40E0E8026715
S31502003AF0704700BFAFF30080AFF30080AFF30080E2
S31502003B0000000000000000000000000000000000AD
S31502003B10000000000000000000000000000000009D
S31502003B20000000000000000000000000000000008D
S31502003B30000000000000000000000000000000007D
S31502003B4003B32DE9F04122F00704001912F007022F
S31502003B500BD01C00C2F10805AC4200DD2C00A3EB21
S31502003B600408230000F0ECF84346DA0804D098462D
S31502003B7000F066F808F0070313B1002200F0E0F83F
S31502003B80BDE8F081704700BFAFF30080AFF300805D
S31502003B90AFF30080AFF30080AFF30080AFF3008095
S31502003BA0AFF30080AFF30080AFF30080AFF3008085
S31502003BB0AFF30080AFF30080AFF30080AFF3008075
S31502003BC000000000000000000000000000000000ED
S31502003BD000000000000000000000000000000000DD
S31502003BE000000000000000000000000000000000CD
S31502003BF000000000000000000000000000000000BD
S31502003C0000000000000000000000000000000000AC
S31502003C10000000000000000000000000000000009C
S31502003C20000000000000000000000000000000008C
S31502003C30000000000000000000000000000000007C
S31502003C40F0E80245230065F31F446FF30F0545EACA
S31502003C50134584EA142303F47F435C4084EA032475
S31502003C6084EA141303F0F0135C4084EA031484EA32
S31502003C70940303F00C335C4084EA830484EA54031D
S31502003C8003F022335C4084EA430485EA152303F4F5
S31502003C907F435D4085EA032585EA151303F0F01399
S31502003CA05D4085EA031585EA950303F00C335D4012
S31502003CB085EA830585EA550303F022335D4085EAEA
S31502003CC0430541F8044B013A41F8045BB8D1704709
S31502003CD0AFF30080AFF30080AFF30080AFF3008054
S31502003CE0AFF30080AFF30080AFF30080AFF3008044
S31502003CF0AFF30080AFF30080AFF30080AFF3008034
S31502003D0000000000000000000000000000000000AB
S31502003D10000000000000000000000000000000009B
S31502003D20000000000000000000000000000000008B
S31502003D30000000000000000000000000000000007B
S31502003D40F0E80245260065F31F446FF30F0545EAC6
S31502003D50164584EA142606F47F46744084EA06244D
S31502003D6084EA141606F0F016744084EA061484EA0D
S31502003D70940606F00C36744084EA860484EA5406F5
S31502003D8006F02236744084EA460485EA152606F4CD
S31502003D907F46754085EA062585EA151606F0F01671
S31502003DA0754085EA061585EA950606F00C367540D5
S31502003DB085EA860585EA550606F02236754085EAC5
S31502003DC0460530B46A4412F8014B013B01F8014B37
S31502003DD0F9D102B0704700BFAFF30080AFF30080A5
S31502003DE0AFF30080AFF30080AFF30080AFF3008043
S31502003DF0AFF30080AFF30080AFF30080AFF3008033
S31502003E0000000000000000000000000000000000AA
S31502003E10000000000000000000000000000000009A
S31502003E20000000000000000000000000000000008A
S31502003E30000000000000000000000000000000007A
S31502003E4001000000000000000000000089000000E0
S31502003E50000000008B0000800000000080800080CF
S31502003E60010000008B00000001000000008000003D
S31502003E7001000000888000800100000082000080AE
S31502003E80000000000B000000000000000A00000015
S31502003E900100000082800000000000000380000094
S31502003EA0010000008B800000010000000B00008072
S31502003EB0010000008A0000800100000081000080ED
S31502003EC00000000081000080000000000800008061
S31502003ED00000000083000000000000000380008054
S31502003EE00100000088800080000000008800008039
S31502003EF001000000008000000000000082800080B7
S31502003F00FF000000AFF30080AFF30080AFF3008044
S31502003F10AFF30080AFF30080AFF30080AFF3008011
S31502003F20AFF30080AFF30080AFF30080AFF3008001
S31502003F30AFF30080AFF30080AFF30080AFF30080F1
S31502003F40AFF204112DE9F05F86B00591D0F820306A
S31502003F50D0F84810D0F87050D0F898B0D0F8C0C059
S31502003F6083EA010383EA050383EA0B0383EA0C036C
S31502003F70D0F80C70D0F83410D0F85C50D0F884B079
S31502003F80D0F8ACC087EA010787EA050787EA0B077C
S31502003F9087EA0C0783EAF776D0F81440D0F83C108B
S31502003FA0D0F86450D0F88CB0D0F8B4C0CDF8006028
S31502003FB084EA010484EA050484EA0B0484EA0C0414
S31502003FC083EA0406D0F81830D0F84010D0F86850CA
S31502003FD0D0F890B0D0F8B8C0CDF80C6083EA0103EF
S31502003FE083EA050383EA0B0383EA0C0387EA0302E7
S31502003FF0D0F80070D0F82810D0F85050D0F878B029
S31502004000D0F8A0C087EA010787EA050787EA0B0707
S3150200401087EA0C0787EAF47AD0F81C40D0F84410F5
S31502004020D0F86C50D0F894B0D0F8BCC084EA010441
S3150200403084EA050484EA0B0484EA0C0484EA070E83
S31502004040D0F80870D0F83010D0F85850D0F880B0B8
S31502004050D0F8A8C087EA010787EA050787EA0B07AF
S3150200406087EA0C0787EAF476D0F82440D0F84C1099
S31502004070D0F87450D0F89CB0D0F8C4C0CDF8106017
S3150200408084EA010484EA050484EA0B0484EA0C0443
S3150200409084EA0708D0F81070D0F83810D0F86050CB
S315020040A0D0F888B0D0F8B0C0CDF8048087EA01070E
S315020040B087EA050787EA0B0787EA0C0787EAF47996
S315020040C0D0F80440D0F82C10D0F85450D0F87CB078
S315020040D0D0F8A4C0CDF8089084EA010484EA050465
S315020040E084EA0B0484EA0C0484EA070B83EAF47C70
S315020040F0D0F81830D0F84840D0F85450D0F8846040
S31502004100D0F8B470C0F8541089EA03038CEA0404A8
S3150200411088EA05058BEA060682EA070725EA34617C
S3150200412081EA3351C0F8541026EA755181EA743196
S31502004130C0F8841027EA362181EA7571C0F8B410F6
S3150200414023EAF73181EAF651C0F8181024EA3371EE
S3150200415081EAF721D0F80830D0F83C40D0F8685010
S31502004160D0F89C60D0F8A470C0F848108AEA03031D
S3150200417082EA040489EA05058EEA060688EA070742
S3150200418025EA742181EA3331C0F8A41026EA3561A2
S3150200419081EA7401C0F8081027EA761181EA75717E
S315020041A0C0F83C1023EAF75181EA3671C0F868106C
S315020041B024EAF30181EAB761DDF80080D0F8243001
S315020041C0D0F82840D0F85850D0F88C60D0F8B870A3
S315020041D0C0F89C108EEA030388EA04048AEA0505FD
S315020041E082EA060689EA070725EAF44181EAF351DB
S315020041F0C0F8281026EAF50181EAB451C0F8581031
S3150200420027EA365181EAF551C0F88C1023EAB74104
S3150200421081EAB611C0F8B81024EA331181EAB7511F
S31502004220D0F81430D0F84040D0F87050D0F878600A
S31502004230D0F8AC70C0F8241082EA030389EA0404B9
S315020042408CEA050588EA06068BEA070725EA346141
S3150200425081EA3351C0F8781026EA750181EA746161
S31502004260C0F8AC1027EA763181EAB531C0F81410ED
S3150200427023EAB77181EAF621C0F8401024EA3371C5
S3150200428081EAB761DDF80C90D0F80030046B456E18
S31502004290D0F89460D0F8C070C0F8701088EA0303B2
S315020042A08AEA040482EA050589EA06068CEA070711
S315020042B026EA755181EA7451C0F8301027EA367140
S315020042C081EA7541C0F8641023EA776181EA765182
S315020042D0C0F8941024EAB35181EAF731C0F8C0104D
S315020042E025EA040505990C6883EAB52384EA0301E5
S315020042F0DDF81020D0F81C30D0F84C40D0F85050E1
S31502004300D0F88060D0F8B070C0F8001089EA0303D4
S315020043108EEA040488EA05058AEA060682EA07079F
S3150200432025EAF45181EAF341C0F8501026EA7551A4
S3150200433081EA3431C0F8801027EA362181EA7571A4
S31502004340C0F8B01023EA374181EA3661C0F81C1082
S3150200435024EA337181EA3731D0F80C30D0F838408C
S31502004360D0F86C50D0F89860D0F8A070C0F84C1015
S315020043708BEA030382EA040489EA05058CEA060647
S3150200438088EA070725EAB42181EA3331C0F8A0108A
S3150200439026EAF55181EA7401C0F80C1027EA761173
S315020043A081EA3571C0F8381023EA376181EA7671FD
S315020043B0C0F86C1024EAB30181EAB761DDF8048023
S315020043C0D0F82030D0F82C40D0F85C50D0F8886075
S315020043D0D0F8BC70C0F898108CEA030388EA04048B
S315020043E08BEA050582EA060689EA070725EAF44109
S315020043F081EA3361C0F82C1026EAB50181EA7451CC
S31502004400C0F85C1027EA765181EAF551C0F88810A7
S3150200441023EA774181EAB611C0F8BC1024EA731187
S3150200442081EAB751D0F81030D0F84440D0F8745031
S31502004430D0F87C60D0F8A870C0F8201082EA030396
S3150200444089EA04048EEA050588EA06068AEA070767
S3150200445025EA346181EA7351C0F87C1026EA7501B7
S3150200446081EA7461C0F8A81027EA363181EA75310B
S31502004470C0F8101023EAB77181EAB621C0F84410D9
S3150200448024EA737181EAF761DDF80890D0F8043006
S31502004490446B056ED0F89060D0F8C470C0F8741002
S315020044A088EA03038BEA040482EA050589EA06061A
S315020044B08EEA070726EA755181EA3451C0F83410AC
S315020044C027EA767181EAB541C0F8601023EA77617E
S315020044D081EAB651C0F8901024EAB35181EAF73165
S315020044E0C0F8C41025EAF47505994C6883EAF523E9
S315020044F084EA030ED0F8C030D0F84810D0F89850AD
S31502004500D0F824B0D0F874C0C0F804E083EA31339E
S3150200451083EAF54383EA3B1383EABC63D0F834703B
S31502004520D0F88010D0F80850D0F85CB0D0F8ACC003
S3150200453087EA315787EAB51787EAFB0787EABC5746
S315020045404FEAB32383EA7756D0F86040D0F8B0102A
S31502004550D0F83C50D0F888B0D0F814C0CDF800603E
S3150200456084EA712484EAB57484EAFB2484EABC14DE
S3150200457083EA7466D0F89430D0F81810D0F86C50EC
S31502004580D0F8B8B0D0F844C0CDF80C6083EAB14395
S3150200459083EAF57383EABB4383EA7C0383EAB75271
S315020045A0D0F80070D0F85410D0F8A050D0F828B047
S315020045B0D0F87CC087EAB17787EAF54787EAFB67D6
S315020045C087EA3C3787EA346AD0F89040D0F81C1064
S315020045D0D0F86850D0F8BCB0D0F840C084EAB144F4
S315020045E084EA050484EAFB4484EA7C0484EA070E2E
S315020045F0D0F83070D0F88410D0F80C50D0F858B0FB
S31502004600D0F8A8C087EA315787EAF51787EAFB0789
S3150200461087EABC574FEA775787EAF476D0F8C44060
S31502004620D0F84C10D0F89C50D0F820B0D0F870C01A
S31502004630CDF8106084EA313484EAF54484EA3B1406
S3150200464084EAFC6487EAB428D0F86470D0F8B4101F
S31502004650D0F83850D0F88CB0D0F810C0CDF804801D
S3150200466087EA312787EAB57787EAFB2787EABC1705
S315020046704FEA776787EA7429D0F80440D0F85010D9
S31502004680D0F8A450D0F82CB0D0F878C0CDF8089065
S3150200469084EAF17484EA355484EAFB6484EA7C345D
S315020046A084EA070B83EAF47CD0F89430D0F84840C9
S315020046B0D0F8A450D0F85C60D0F81470C0F8A410FA
S315020046C089EA03038CEAB45488EA35558BEA76669E
S315020046D082EAF77725EA346181EA3351C0F8A410F9
S315020046E026EA755181EA7431C0F85C1027EA362150
S315020046F081EA7571C0F8141023EAF73181EAF6519E
S31502004700C0F8941024EA337181EAF721D0F83030E8
S31502004710D0F8B040D0F86C50D0F82060D0F878705D
S31502004720C0F848108AEA735382EAB40489EAF57536
S315020047308EEAB63688EA773725EA742181EA33317A
S31502004740C0F8781026EA356181EA7401C0F83010A3
S3150200475027EA761181EA7571C0F8B01023EAF7519B
S3150200476081EA3671C0F86C1024EAF30181EAB76176
S31502004770DDF80080D0F8C430D0F85440D0F80C50A0
S31502004780D0F88860D0F84470C0F820108EEAB323BF
S3150200479088EAB4748AEA357582EA361689EA7707B0
S315020047A025EAF44181EAF351C0F8541026EAF501EC
S315020047B081EAB451C0F80C1027EA365181EAF55164
S315020047C0C0F8881023EAB74181EAB611C0F844104E
S315020047D024EA331181EAB751D0F86030D0F8184094
S315020047E0D0F89850D0F82860D0F8AC70C0F8C41051
S315020047F082EA736389EAB4448CEA757588EAF666D6
S315020048008BEA373725EA346181EA3351C0F828103A
S3150200481026EA750181EA7461C0F8AC1027EA76319E
S3150200482081EAB531C0F8601023EAB77181EAF62150
S31502004830C0F8181024EA337181EAB761DDF80C90EA
S31502004840D0F80030D0F88440C56BD0F8BC60476F12
S31502004850C0F8981088EA03038AEA742482EAF555B6
S3150200486089EAF6468CEA371726EA755181EA7451C7
S31502004870C0F8841027EA367181EA7541C0F83C1007
S3150200488023EA776181EA7651C0F8BC1024EAB35173
S3150200489081EAF731C0F8741025EA040505998C6897
S315020048A083EAB52384EA0301DDF81020D0F89030BC
S315020048B0D0F84C40D0F8A050D0F85860D0F810701C
S315020048C0C0F8001089EA03038EEAB45488EAF54573
S315020048D08AEA366682EAF77725EAF45181EAF341F3
S315020048E0C0F8A01026EA755181EA3431C0F8581092
S315020048F027EA362181EA7571C0F8101023EA37419A
S3150200490081EA3661C0F8901024EA337181EA3731C0
S31502004910D0F83430D0F8B440D0F86850D0F82460DB
S31502004920D0F87C70C0F84C108BEAB35382EA740458
S3150200493089EA05058CEAB63688EA373725EAB421CC
S3150200494081EA3331C0F87C1026EAF55181EA740116
S31502004950C0F8341027EA761181EA3571C0F8B4102E
S3150200496023EA376181EA7671C0F8681024EAB30156
S3150200497081EAB761DDF80480D0F8C030D0F8504043
S31502004980D0F80850D0F88C60D0F84070C0F82410E7
S315020049908CEAB32388EAF4748BEA357582EA361612
S315020049A089EA770725EAF44181EA3361C0F85010B3
S315020049B026EAB50181EA7451C0F8081027EA765151
S315020049C081EAF551C0F88C1023EA774181EAB611E3
S315020049D0C0F8401024EA731181EAB751D0F8643066
S315020049E0D0F81C40D0F89C50D0F82C60D0F8A870B3
S315020049F0C0F8C01082EA736389EAB4448EEA757518
S31502004A0088EAF6668AEAF72725EA346181EA73516B
S31502004A10C0F82C1026EA750181EA7461C0F8A81064
S31502004A2027EA363181EA7531C0F8641023EAB77194
S31502004A3081EAB621C0F81C1024EA737181EAF76193
S31502004A40DDF80890D0F80430D0F88040856BD0F8B5
S31502004A50B860076FC0F89C1088EA03038BEAB42497
S31502004A6082EAF55589EAB6468EEA771726EA75513D
S31502004A7081EA3451C0F8801027EA767181EAB5419D
S31502004A80C0F8381023EA776181EAB651C0F8B81047
S31502004A9024EAB35181EAF731C0F8701025EAF475B9
S31502004AA00599CC6883EAF52384EA030ED0F87430BC
S31502004AB0D0F84810D0F82450D0F8C4B0D0F89CC032
S31502004AC0C0F804E083EA313383EAF54383EA3B1311
S31502004AD083EABC63D0F88070D0F85810D0F8305012
S31502004AE0D0F808B0D0F8ACC087EA315787EAB517D4
S31502004AF087EAFB0787EABC574FEAB32383EA77566E
S31502004B00D0F83840D0F81010D0F8B050D0F88CB0A9
S31502004B10D0F860C0CDF8006084EA712484EAB574E6
S31502004B2084EAFB2484EABC1483EA7466D0F8BC30B7
S31502004B30D0F89410D0F86850D0F844B0D0F81CC021
S31502004B40CDF80C6083EAB14383EAF57383EABB438B
S31502004B5083EA7C0383EAB752D0F80070D0F8A41037
S31502004B60D0F87C50D0F854B0D0F82CC087EAB17790
S31502004B7087EAF54787EAFB6787EA3C3787EA346ABA
S31502004B80D0F8B840D0F89010D0F86C50D0F840B0B9
S31502004B90D0F818C084EAB14484EA050484EAFB44E6
S31502004BA084EA7C0484EA070ED0F88470D0F85C109C
S31502004BB0D0F83450D0F80CB0D0F8A8C087EA3157F4
S31502004BC087EAF51787EAFB0787EABC574FEA775762
S31502004BD087EAF476D0F87040D0F84C10D0F820501E
S31502004BE0D0F8C0B0D0F898C0CDF8106084EA31345D
S31502004BF084EAF54484EA3B1484EAFC6487EAB4282E
S31502004C00D0F83C70D0F81410D0F8B450D0F888B070
S31502004C10D0F864C0CDF8048087EA312787EAB577F1
S31502004C2087EAFB2787EABC174FEA776787EA742980
S31502004C30D0F80440D0F8A010D0F87850D0F850B090
S31502004C40D0F828C0CDF8089084EAF17484EA355485
S31502004C5084EAFB6484EA7C3484EA070B83EAF47C04
S31502004C60D0F8BC30D0F84840D0F87850D0F8086078
S31502004C70D0F86070C0F8781089EA03038CEAB4545D
S31502004C8088EA35558BEA766682EAF77725EA346151
S31502004C9081EA3351C0F8781026EA755181EA7431F7
S31502004CA0C0F8081027EA362181EA7571C0F860104B
S31502004CB023EAF73181EAF651C0F8BC1024EA3371CF
S31502004CC081EAF721D0F88430D0F81040D0F8685045
S31502004CD0D0F8C060D0F82870C0F848108AEA73533A
S31502004CE082EAB40489EAF5758EEAB63688EA773737
S31502004CF025EA742181EA3331C0F8281026EA3561A3
S31502004D0081EA7401C0F8841027EA761181EA757186
S31502004D10C0F8101023EAF75181EA3671C0F868101C
S31502004D2024EAF30181EAB761DDF80080D0F8703039
S31502004D30D0F8A440D0F83450D0F88C60D0F81C706B
S31502004D40C0F8C0108EEAB32388EAB4748AEA3575CD
S31502004D5082EA361689EA770725EAF44181EAF351AF
S31502004D60C0F8A41026EAF50181EAB451C0F834105D
S31502004D7027EA365181EAF551C0F88C1023EAB74189
S31502004D8081EAB611C0F81C1024EA331181EAB75140
S31502004D90D0F83830D0F89440D0F82450D0F8546087
S31502004DA0D0F8AC70C0F8701082EA736389EAB44432
S31502004DB08CEA757588EAF6668BEA373725EA346136
S31502004DC081EA3351C0F8541026EA750181EA74610A
S31502004DD0C0F8AC1027EA763181EAB531C0F838104E
S31502004DE023EAB77181EAF621C0F8941024EA3371F6
S31502004DF081EAB761DDF80C90D0F80030C46DD0F8C6
S31502004E00B050066CD0F89C70C0F8241088EA0303F0
S31502004E108AEA742482EAF55589EAF6468CEA371755
S31502004E2026EA755181EA7451C0F85C1027EA367198
S31502004E3081EA7541C0F8B01023EA776181EA7651BA
S31502004E40C0F8401024EAB35181EAF731C0F89C1049
S31502004E5025EA040505990C6983EAB52384EA030168
S31502004E60DDF81020D0F8B830D0F84C40D0F87C509D
S31502004E70D0F80C60D0F86470C0F8001089EA030319
S31502004E808EEAB45488EAF5458AEA366682EAF77704
S31502004E9025EAF45181EAF341C0F87C1026EA7551FD
S31502004EA081EA3431C0F80C1027EA362181EA75719D
S31502004EB0C0F8641023EA374181EA3661C0F8B810B7
S31502004EC024EA337181EA3731D0F88030D0F81440C1
S31502004ED0D0F86C50D0F8C460D0F82C70C0F84C10E2
S31502004EE08BEAB35382EA740489EA05058CEAB6367C
S31502004EF088EA373725EAB42181EA3331C0F82C1023
S31502004F0026EAF55181EA7401C0F8801027EA761183
S31502004F1081EA3571C0F8141023EA376181EA7671A5
S31502004F20C0F86C1024EAB30181EAB761DDF80480A7
S31502004F30D0F87430D0F8A040D0F83050D0F888605D
S31502004F40D0F81870C0F8C4108CEAB32388EAF47457
S31502004F508BEA357582EA361689EA770725EAF4413D
S31502004F6081EA3361C0F8A01026EAB50181EA7451DC
S31502004F70C0F8301027EA765181EAF551C0F8881058
S31502004F8023EA774181EAB611C0F8181024EA7311B0
S31502004F9081EAB751D0F83C30D0F89040D0F8205092
S31502004FA0D0F85060D0F8A870C0F8741082EA736323
S31502004FB089EAB4448EEA757588EAF6668AEAF727BC
S31502004FC025EA346181EA7351C0F8501026EA750168
S31502004FD081EA7461C0F8A81027EA363181EA753190
S31502004FE0C0F83C1023EAB77181EAB621C0F89010E6
S31502004FF024EA737181EAF761DDF80890D0F804308B
S31502005000846DD0F8B450466CD0F89870C0F8201071
S3150200501088EA03038BEAB42482EAF55589EAB6469E
S315020050208EEA771726EA755181EA3451C0F858108C
S3150200503027EA767181EAB541C0F8B41023EA7761AE
S3150200504081EAB651C0F8441024EAB35181EAF73135
S31502005050C0F8981025EAF47505994C6983EAF52398
S3150200506084EA030ED0F89C30D0F84810D0F8C45029
S31502005070D0F870B0D0F820C0C0F804E083EA31332B
S3150200508083EAF54383EA3B1383EABC63D0F858709C
S31502005090D0F80C10D0F88450D0F830B0D0F8ACC0AC
S315020050A087EA315787EAB51787EAFB0787EABC57CB
S315020050B04FEAB32383EA7756D0F8B440D0F86410A7
S315020050C0D0F81050D0F888B0D0F838C0CDF80060CB
S315020050D084EA712484EAB57484EAFB2484EABC1463
S315020050E083EA7466D0F84030D0F8BC10D0F86C5021
S315020050F0D0F81CB0D0F890C0CDF80C6083EAB1436A
S3150200510083EAF57383EABB4383EA7C0383EAB752F5
S31502005110D0F80070D0F87810D0F82C50D0F8A4B09F
S31502005120D0F850C087EAB17787EAF54787EAFB6786
S3150200513087EA3C3787EA346AD0F84440D0F8B81098
S31502005140D0F86850D0F818B0D0F894C084EAB144C8
S3150200515084EA050484EAFB4484EA7C0484EA070EB2
S31502005160D0F85C70D0F80810D0F88050D0F834B07F
S31502005170D0F8A8C087EA315787EAF51787EAFB070E
S3150200518087EABC574FEA775787EAF476D0F8984011
S31502005190D0F84C10D0F8C050D0F874B0D0F824C073
S315020051A0CDF8106084EA313484EAF54484EA3B148B
S315020051B084EAFC6487EAB428D0F8B070D0F86010AC
S315020051C0D0F81450D0F88CB0D0F83CC0CDF804809A
S315020051D087EA312787EAB57787EAFB2787EABC178A
S315020051E04FEA776787EA7429D0F80440D0F87C1032
S315020051F0D0F82850D0F8A0B0D0F854C0CDF8089016
S3150200520084EAF17484EA355484EAFB6484EA7C34E1
S3150200521084EA070B83EAF47CD0F84030D0F84840A1
S31502005220D0F82850D0F83060D0F83870C0F828107E
S3150200523089EA03038CEAB45488EA35558BEA766622
S3150200524082EAF77725EA346181EA33514FEAB1718E
S31502005250C0F8281026EA755181EA74314FEA7121A5
S31502005260C0F8301027EA362181EA75714FEA7101DA
S31502005270C0F8381023EAF73181EAF6514FEAB14114
S31502005280C0F8401024EA337181EAF7214FEAB1519E
S31502005290D0F85C30D0F86440D0F86C50D0F8746026
S315020052A0D0F85470C0F848108AEA735382EAB404FC
S315020052B089EAF5758EEAB63688EA773725EA7421E1
S315020052C081EA33314FEA3151C0F8541026EA35618A
S315020052D081EA74014FEA3171C0F85C1027EA76114F
S315020052E081EA75714FEAF151C0F8641023EAF75169
S315020052F081EA3671C0F86C1024EAF30181EAB761DB
S315020053004FEA7171DDF80080D0F89830D0F8784015
S31502005310D0F88050D0F88860D0F89070C0F8741039
S315020053208EEAB32388EAB4748AEA357582EA3616B7
S3150200533089EA770725EAF44181EAF3514FEAF161F6
S31502005340C0F8781026EAF50181EAB4514FEA3161D4
S31502005350C0F8801027EA365181EAF5514FEA311139
S31502005360C0F8881023EAB74181EAB6114FEAB14183
S31502005370C0F8901024EA331181EAB7514FEAB131ED
S31502005380D0F8B430D0F8BC40D0F8C450D0F8A460FD
S31502005390D0F8AC70C0F8981082EA736389EAB44414
S315020053A08CEA757588EAF6668BEA373725EA346140
S315020053B081EA33514FEA7131C0F8A41026EA750129
S315020053C081EA74614FEA3131C0F8AC1027EA7631CE
S315020053D081EAB5314FEAF171C0F8B41023EAB77128
S315020053E081EAF6214FEA7101C0F8BC1024EA337152
S315020053F081EAB7614FEA7111DDF80C90D0F80030FE
S31502005400846805698669076AC0F8C41088EA0303D6
S315020054108AEA742482EAF55589EAF6468CEA37174F
S3150200542026EA755181EA74514FEA7151C0F80810A3
S3150200543027EA367181EA75414FEA7161C0F81010A8
S3150200544023EA776181EA7651C0F8181024EAB3514B
S3150200545081EAF7314FEAB121C0F8201025EA0405A6
S3150200546005998C6983EAB52384EA0301DDF81020E5
S31502005470D0F84430D0F84C40D0F82C50D0F83460F4
S31502005480D0F83C70C0F8001089EA03038EEAB454DF
S3150200549088EAF5458AEA366682EAF77725EAF4511A
S315020054A081EAF3414FEAF171C0F82C1026EA7551F0
S315020054B081EA34314FEAB121C0F8341027EA3621A5
S315020054C081EA75714FEAB101C0F83C1023EA37410F
S315020054D081EA36614FEAB141C0F8441024EA3371D9
S315020054E081EA37314FEAB151D0F85830D0F86040EE
S315020054F0D0F86850D0F87060D0F85070C0F84C10F0
S315020055008BEAB35382EA740489EA05058CEAB63655
