S00E0000626C696E6B792E737265638D
S31502000000E0200022C10E0A02AD0D0A02BD0E0A024E
S31502000010BD0E0A02BD0E0A02BD0E0A02BD0E0A027C
S31502000020000000000000000000000000BD0E0A02F1
S31502000030BD0E0A0200000000BD0E0A02BD0E0A0233
S3150200004000000000000000000000000000000000A8
S315020000500000000000000000000000000000000098
S315020000600000000000000000000000000000000088
S315020000700000000000000000000000000000000078
S315020000800000000000000000000000000000000068
S315020000900000000000000000000000000000000058
S315020000A00000000000000000000000000000000048
S315020000B00000000000000000000000000000000038
S315020000C00000000000000000000000000000000028
S315020000D00000000000000000000000000000000018
S315020000E00000000000000000000000000000000008
S315020000F000000000000000000000000000000000F8
S3150200010000000000000000000000000000000000E7
S3150200011000000000000000000000000000000000D7
S3150200012000000000000000000000000000000000C7
S3150200013000000000000000000000000000000000B7
S31502000140D8F81C00D9F81C4000194FF0000B4BEBF5
S315020001500B0B4FEA4B0B0BEBD07B13270BFB07FB6F
S3150200016020F00047B8E80F00B9E870044FF0010C20
S31502000170ECFB640BECFB651BECFB662BECFB6A3BB6
S3150200018099E8700098E80007ECFB684BECFB695BAA
S31502000190ECFB6A6B5F44704798E8FF00B9E8001D04
S315020001A0B0EB080071EB0A0172EB0B0273EB0C0366
S315020001B099E8000F74EB080475EB090576EB0A065D
S315020001C077EB0B0768EB080828F0250910EB090006
S315020001D051EB080152EB080253EB080354EB0804F7
S315020001E055EB080556EB080657EB080758F10008C9
S315020001F028F0250910EB0900704704B589B03CCAFE
S3150200020051F8040B51F804EBA2FB006AA3FB007C35
S31502000210E2FB6E7AC0B4A4FB0086E3FB6E8AA5FB02
S31502000220009751F8040BE4FB6E9AE5FB6EA7E2FB1E
S31502000230608CE3FB609CE4FB60ACE5FB60C751F8B5
S31502000240040B51F804EBE2FB6096E3FB60A6E4FBC9
S3150200025060C6E5FB6067CDE9028951F8040B4FF0F1
S315020002600009E2FB6EA9E3FB6EC9E4FB6E69E5FBDE
S315020002706E79CDF824A04FF0000AE2FB60CAE3FBD8
S31502000280606AE4FB607AE5FB609A51F8048B4FF0F2
S31502000290000EE2FB68E6E3FB6876E4FB6896E5FBA4
S315020002A068A651F81C894FF00000E2FB6870E3FB78
S315020002B06890E4FB68A0E5FB686001B40B960C9AB3
S315020002C010323CCA51F8048B0A9E4FF00000E2FB42
S315020002D068600596E3FB68C0E4FB68E0E5FB680737
S315020002E051F8048B4FF00006E2FB68C6CDF818C041
S315020002F0E3FB68E6E4FB6806E5FB686751F8048BF6
S315020003004FF0000CE2FB68ECCDF81CE0E3FB680C56
S31502000310E4FB686CE5FB68AC51F8048B4FF0000E09
S31502000320E2FB680E08900B98E3FB686EE4FB68AE8E
S31502000330E5FB680E51F8048BE2FB68690996E3FB5C
S31502000340689AE4FB68A040BCE5FB686051F8048B40
S31502000350E2FB6897E3FB68A7E4FB6867E5FB6807CF
S3150200036051F8048BE2FB68ACE3FB686CE4FB680CB7
S31502000370E5FB687C51F8048BE2FB686EE3FB680ED2
S31502000380E4FB68E7E5FB687CDDE9074526234FF0D9
S315020003900008E3FB6C484FEA480848EAD47824F0A0
S315020003A0004C132408FB04F8044607BCE3FB65086B
S315020003B0E3FB6918E3FB6A284FF02609254618BCB9
S315020003C0E9FB6638E9FB654860BCE9FB6E58E9FB68
S315020003D0676808EB0C0705B000BD4AF2D47CC2F28E
S315020003E0012CDCF800C0BCF1000F3FF406AF4AF264
S315020003F0D07CC2F2012CDCF800C0BCF1000F1FD089
S31502000400BCF1010F00F0FC81BCF1020F00F0B883D1
S31502000410BCF1030F00F07485BCF1040F00F03087C5
S31502000420BCF1050F01F0EC80BCF1060F01F0A882C9
S3150200043001F066BCAFF30080AFF30080AFF300803B
S315020004402DE900180FB44AF2C87CC2F2012CDCF87E
S3150200045000C04AF2CC73C2F201231B6842F6406026
S31502000460C0F20A2050F82300CCF89001CCF894018F
S31502000470CCF89801CCF89C0142F6E050C0F20A2072
S3150200048050F82300CCF8A001CCF8A401CCF8A801BE
S31502000490CCF8AC014AF2C87BC2F2012BDBF800B001
S315020004A00BF2F45C0BF5FE7B05A393ED00FF2FEE3A
S315020004B04CEF0DE0AFF30080AFF30080AFF30080A6
S315020004C00000000004000000080000000C0000000C
S315020004D00FBC04B51BED7F1F89B01BED6B3F3CCAF9
S315020004E000FF520151F8040B51F804EB1BED573F84
S315020004F0A2FB006AA3FB007C00FF5201E2FB6E7ABC
S315020005001BED433FC0B4A4FB008600FF5201E3FB90
S315020005106E8AA5FB00971BED2F3F51F8040BE4FBF7
S315020005206E9A00FF5201E5FB6EA7E2FB608C8EFD20
S315020005302F1EE3FB609C1BED7B1FE4FB60ACE5FB1F
S3150200054060C71BED673F51F8040B51F804EB00FF3F
S315020005505201E2FB6096E3FB60A61BED533FE4FB10
S3150200056060C6E5FB606700FF5201CDE902891BED1B
S315020005703F3F51F8040B4FF0000900FF5201E2FB26
S315020005806EA9E3FB6EC91BED2B3FE4FB6E69E5FB2F
S315020005906E7900FF5201CDF824A04FF0000A8EFDBD
S315020005A0331EE2FB60CA1BED771FE3FB606AE4FBC6
S315020005B0607A1BED633FE5FB609A51F8048B00FFFE
S315020005C052014FF0000EE2FB68E61BED4F3FE3FBE4
S315020005D0687600FF5201E4FB6896E5FB68A61BED10
S315020005E03B3F51F81C894FF0000000FF5201E2FB2D
S315020005F06870E3FB68901BED273FE4FB68A0E5FB10
S31502000600686000FF520101B48EFD371E0B961BED8A
S31502000610731F0C9A1BED5F3F10323CCA00FF52015A
S3150200062051F8048B0A9E1BED4B3F4FF0000000FF72
S315020006305201E2FB686005961BED373FE3FB68C09B
S31502000640E4FB68E000FF5201E5FB680751F8048B02
S315020006501BED233F4FF00006E2FB68C600FF520186
S31502000660CDF818C08EFD3B1EE3FB68E6E4FB680688
S315020006701BED6F1FE5FB686751F8048B1BED5B3FB3
S315020006804FF0000CE2FB68EC00FF5201CDF81CE0D3
S315020006901BED473FE3FB680CE4FB686C00FF52016D
S315020006A0E5FB68AC51F8048B1BED333F4FF0000EAF
S315020006B0E2FB680E00FF520108900B981BED1F3FEC
S315020006C0E3FB686E00FF5201E4FB68AEE5FB680ED1
S315020006D08EFD3F1E51F8048BE2FB68699BED011FFC
S315020006E00996E3FB689A9BED153FE4FB68A040BCC4
S315020006F000FF5201E5FB68609BED293F51F8048B30
S31502000700E2FB689700FF5201E3FB68A7E4FB686718
S315020007109BED3D3FE5FB680751F8048B00FF520154
S31502000720E2FB68ACE3FB686C9BED513FE4FB680CB3
S3150200073000FF5201E5FB687C51F8048B8EFD431ED7
S31502000740E2FB686EE3FB680E9BED051FE4FB68E7C0
S31502000750E5FB687C9BED193F00FF5201DDE9074589
S315020007609BED2D3F26234FF0000800FF5201E3FBCD
S315020007706C484FEA48089BED413F48EAD47824F09A
S31502000780004C00FF520113249BED553F08FB04F871
S31502000790044600FF520107BCE3FB65088EFD471EB7
S315020007A0E3FB6918E3FB6A289BED091F4FF0260954
S315020007B025469BED1D3F18BC00FF5201E9FB66383A
S315020007C0E9FB65489BED313F60BCE9FB6E5800FFD3
S315020007D05201E9FB676808EB0C079BED453F05B044
S315020007E05DF804EBFFB54AF2D07CC2F2012C4FF061
S315020007F00100CCF80000BDE8FF40BDE800187047D4
S315020008002DE900180FB44AF2C87BC2F2012BDBF8BD
S3150200081000B00BF2F45C0BF5FE7B05A393ED00FF33
S315020008202FEE4CEF0CE000BFAFF30080AFF3008079
S315020008300000000004000000080000000C00000098
S315020008400FBC04B500FF520189B09BED593F3CCA6B
S3150200085000FF520151F8040B51F804EB8EFD4B1EBA
S31502000860A2FB006AA3FB007C9BED0D1FE2FB6E7AE6
S315020008709BED213FC0B4A4FB008600FF5201E3FBBF
S315020008806E8AA5FB00979BED353F51F8040BE4FBFE
S315020008906E9A00FF5201E5FB6EA79BED493FE2FB14
S315020008A0608CE3FB609C00FF5201E4FB60ACE5FB5D
S315020008B060C79BED5D3F51F8040B51F804EB00FF56
S315020008C05201E2FB60968EFD4F1EE3FB60A6E4FB3F
S315020008D060C69BED111FE5FB6067CDE902899BEDC2
S315020008E0253F51F8040B4FF0000900FF5201E2FBCD
S315020008F06EA9E3FB6EC99BED393FE4FB6E6900FF0F
S315020009005201E5FB6E79CDF824A09BED4D3F4FF0E9
S31502000910000AE2FB60CA00FF5201E3FB606AE4FBE5
S31502000920607A9BED613FE5FB609A00FF520151F848
S31502000930048B4FF0000E8EFD531EE2FB68E6E3FBCE
S3150200094068769EFD471EE4FB6896E5FB68A6A1EF66
S31502000950502551F81C89A1FF50244FF00000E2FBFC
S3150200096068709EFD3F5EE3FB6890E4FB68A002FFB1
S315020009705421E5FB686001B48EFD573E0B969EFD41
S31502000980331E9EFD535E0C9A103200FF54013CCA80
S3150200099051F8048B8EFD6B1E0A9E4FF000009EFDE1
S315020009A04B1EE2FB6860A1EF50250596E3FB68C08B
S315020009B0A1FF5024E4FB68E0E5FB68079EFD2F5E7D
S315020009C051F8048B4FF0000602FF5421E2FB68C681
S315020009D08EFD5B3ECDF818C0E3FB68E69EFD371E32
S315020009E0E4FB6806E5FB68679EFD435E51F8048BEF
S315020009F04FF0000C00FF5401E2FB68EC8EFD6F1E07
S31502000A00CDF81CE0E3FB680C9EFD4F1EE4FB686C10
S31502000A10E5FB68ACA1EF502551F8048B4FF0000EB0
S31502000A20A1FF5024E2FB680E08909EFD335E0B98F0
S31502000A3002FF5421E3FB686EE4FB68AE8EFD5F3E67
S31502000A40E5FB680E51F8048B9EFD3B1EE2FB6869CE
S31502000A5009969EFD475EE3FB689A00FF5401E4FB9C
S31502000A6068A040BC8EFD731EE5FB686051F8048BDE
S31502000A709EFD531EE2FB6897E3FB68A7A1EF502594
S31502000A80E4FB6867A1FF5024E5FB680751F8048B75
S31502000A909EFD375EE2FB68ACE3FB686C02FF542105
S31502000AA0E4FB680CE5FB687C8EFD633E51F8048B23
S31502000AB09EFD3F1EE2FB686EE3FB680E9EFD4B5EEB
S31502000AC0E4FB68E7E5FB687C00FF54018EFD771EB8
S31502000AD0DDE9074526239EFD431E4FF00008A1EFE0
S31502000AE05025E3FB6C484FEA4808A1FF502448EA28
S31502000AF0D47824F0004C9EFD3B5E132408FB04F8D8
S31502000B0002FF542104468EFD673E07BCE3FB6508DF
S31502000B109EFD2F1EE3FB6918E3FB6A289EFD4F5ECE
S31502000B204FF02609254600FF540118BC8EFD7B1E98
S31502000B30E9FB6638E9FB65489EFD577E60BCE9FB2A
S31502000B406E589EFD6B9EE9FB676808EB0C071BED72
S31502000B507F1F05B05DF804EBFFB54AF2D07CC2F206
S31502000B60012C4FF00200CCF80000BDE8FF40BDE8C2
S31502000B7000187047AFF30080AFF30080AFF3008038
S31502000B802DE900180FB44AF2C87BC2F2012BDBF83A
S31502000B9000B00BF2F45C0BF5FE7B05A393ED00FFB0
S31502000BA02FEE4CEF0CE000BFAFF30080AFF30080F6
S31502000BB00000000004000000080000000C00000015
S31502000BC00FBC04B59BED013F89B000FF56013CCA3C
S31502000BD002FF582151F8040B51F804EB20EF504163
S31502000BE0A2FB006AA3FB007C8BED655FE2FB6E7ADB
S31502000BF022EF52A1C0B4A4FB00860EFD35BEE3FB74
S31502000C006E8AA5FB00971BED6B1F51F8040BE4FBE4
S31502000C106E9A9BED153FE5FB6EA700FF5601E2FBC0
S31502000C20608CE3FB609C02FF5821E4FB60ACE5FBB1
S31502000C3060C7B2EF504551F8040B51F804EBB2FF0E
S31502000C405044E2FB60960EFD595EE3FB60A6E4FBB0
S31502000C5060C6B2EF52A5E5FB6067CDE90289B2FF35
S31502000C6052A451F8040B4FF000098EFD0BBEE2FBB5
S31502000C706EA9E3FB6EC91BED571FE4FB6E699BED84
S31502000C80293FE5FB6E79CDF824A000FF56014FF00F
S31502000C90000AE2FB60CA02FF5821E3FB606AE4FB3A
S31502000CA0607AA2EF5245E5FB609AA2FF524451F8E0
S31502000CB0048B4FF0000E0EFD7D5EE2FB68E6E3FB61
S31502000CC06876A1EF50A5E4FB6896E5FB68A6A1FF4E
S31502000CD050A451F81C890EFD19BE4FF00000E2FB2C
S31502000CE068701BED431FE3FB6890E4FB68A09BED75
S31502000CF03D3FE5FB686001B400FF56010B9602FF1B
S31502000D005821B5EF52450C9A1032B5FF52443CCAEF
S31502000D1051F8048B0EFD3D5E0A9E4FF00000B4EFC3
S31502000D2050A5E2FB6860B4FF50A40596E3FB68C0D9
S31502000D308EFD27BEE4FB68E0E5FB68071BED2F1F6F
S31502000D4051F8048B4FF000069BED513FE2FB68C65B
S31502000D5000FF5601CDF818C0E3FB68E602FF5821F2
S31502000D60E4FB6806E5FB6867A9EF504551F8048B7A
S31502000D704FF0000CA9FF5044E2FB68EC0EFD615EE9
S31502000D80CDF81CE0E3FB680CA9EF52A5E4FB686C06
S31502000D90E5FB68ACA9FF52A451F8048B4FF0000E94
S31502000DA08EFD03BEE2FB680E08909EFD5B7E0B98ED
S31502000DB09EFD6F9EE3FB686EE4FB68AE1BED7B1F38
S31502000DC0E5FB680E51F8048B9BED053FE2FB686973
S31502000DD0099600FF5601E3FB689A02FF5821E4FBDD
S31502000DE068A040BCA1EF5245E5FB686051F8048B50
S31502000DF0A1FF5244E2FB6897E3FB68A70EFD715E12
S31502000E00E4FB686720EF50A1E5FB680751F8048B05
S31502000E100EFD0DBEE2FB68ACE3FB686C1BED671FC3
S31502000E20E4FB680CE5FB687C9BED193F51F8048BEB
S31502000E3000FF5601E2FB686EE3FB680E02FF5821D3
S31502000E40E4FB68E7E5FB687CB6EF5045B6FF504425
S31502000E50DDE9074526238BED695F4FF00008B6EF03
S31502000E6052A5E3FB6C484FEA4808B6FF52A448EA8B
S31502000E70D47824F0004C0EFD31BE132408FB04F88E
S31502000E801BED531F04469BED2D3F07BCE3FB650894
S31502000E9000FF5601E3FB6918E3FB6A2802FF5821AB
S31502000EA04FF026092546A5EF504518BCA5FF50442C
S31502000EB0E9FB6638E9FB65480EFD555E60BCE9FB59
S31502000EC06E58A5EF52A5E9FB676808EB0C07A5FF6C
S31502000ED052A405B05DF804EBFFB54AF2D07CC2F22B
S31502000EE0012C4FF00300CCF80000BDE8FF40BDE83E
S31502000EF000187047AFF30080AFF30080AFF30080B5
S31502000F002DE900180FB44AF2C87BC2F2012BDBF8B6
S31502000F1000B00BF2F45C0BF5FE7B05A393ED00FF2C
S31502000F202FEE4CEF0CE000BFAFF30080AFF3008072
S31502000F300000000004000000080000000C00000091
S31502000F400FBC04B58EFD0FBE89B01BED3F1F3CCA18
S31502000F509BED413F51F8040B51F804EB00FF56019B
S31502000F60A2FB006AA3FB007C02FF5821E2FB6E7A19
S31502000F70B7EF5245C0B4A4FB0086B7FF5244E3FB69
S31502000F806E8AA5FB00970EFD795E51F8040BE4FB11
S31502000F906E9AB6EF50A5E5FB6EA7B6FF50A4E2FB2C
S31502000FA0608CE3FB609C0EFD15BEE4FB60ACE5FBCA
S31502000FB060C71BED2B1F51F8040B51F804EB9BED98
S31502000FC0553FE2FB609600FF5601E3FB60A6E4FB99
S31502000FD060C602FF5821E5FB6067CDE90289A1EFF1
S31502000FE0504551F8040B4FF00009A1FF5044E2FBB3
S31502000FF06EA9E3FB6EC90EFD395EE4FB6E69A1EFD5
S3150200100052A5E5FB6E79CDF824A0A1FF52A44FF0BC
S31502001010000AE2FB60CA8EFD2BBEE3FB606AE4FBBC
S31502001020607A9EFD5F7EE5FB609A9EFD739E51F897
S31502001030048B4FF0000E1BED771FE2FB68E6E3FB25
S3150200104068769BED093FE4FB6896E5FB68A600FF20
S31502001050560151F81C8902FF58214FF00000E2FBAD
S315020010606870BFEF5045E3FB6890E4FB68A0BFFFE2
S315020010705044E5FB686001B40EFD495E0B96BFEF76
S3150200108052A5BFFF52A40C9A10328EFD1BBE3CCA5B
S3150200109051F8048B1BED631F0A9E4FF000009BED77
S315020010A01D3FE2FB686000FF56010596E3FB68C040
S315020010B002FF5821E4FB68E0E5FB6807A3EF504511
S315020010C051F8048B4FF00006A3FF5044E2FB68C6BA
S315020010D00EFD6D5ECDF818C0E3FB68E6A3EF52A5E0
S315020010E0E4FB6806E5FB6867A3FF52A451F8048B8C
S315020010F04FF0000C0EFD09BEE2FB68EC1BED4F1F24
S31502001100CDF81CE0E3FB680C9BED313FE4FB686C19
S31502001110E5FB68AC00FF560151F8048B4FF0000E58
S3150200112002FF5821E2FB680E0890B6EF52450B9873
S31502001130B6FF5244E3FB686EE4FB68AE8BED6D5F6F
S31502001140E5FB680E51F8048BB5EF50A5E2FB686922
S315020011500996B5FF50A4E3FB689A0EFD2DBEE4FB8B
S3150200116068A040BC1BED3B1FE5FB686051F8048B91
S315020011709BED453FE2FB6897E3FB68A700FF56013C
S31502001180E4FB686702FF5821E5FB680751F8048B08
S31502001190A8EF5245E2FB68ACE3FB686CA8FF524439
S315020011A0E4FB680CE5FB687C0EFD515E51F8048B8E
S315020011B0A7EF50A5E2FB686EE3FB680EA7FF50A4FB
S315020011C0E4FB68E7E5FB687C8EFD13BE1BED271F7B
S315020011D0DDE9074526239BED593F4FF0000800FF46
S315020011E05601E3FB6C484FEA480802FF582148EAD9
S315020011F0D47824F0004CBFEF5245132408FB04F8C0
S31502001200BFFF524404460EFD755E07BCE3FB65084C
S31502001210BEEF50A5E3FB6918E3FB6A28BEFF50A4A4
S315020012204FF0260925460EFD11BE18BC9EFD637EB3
S31502001230E9FB6638E9FB65489EFD779E60BCE9FBE3
S315020012406E581BED731FE9FB676808EB0C079BEDF5
S315020012500D3F05B05DF804EBFFB54AF2D07CC2F251
S31502001260012C4FF00400CCF80000BDE8FF40BDE8B9
S3150200127000187047AFF30080AFF30080AFF3008031
S315020012802DE900180FB44AF2C87BC2F2012BDBF833
S3150200129000B00BF2F45C0BF5FE7B05A393ED00FFA9
S315020012A02FEE4CEF0CE000BFAFF30080AFF30080EF
S315020012B00000000004000000080000000C0000000E
S315020012C00FBC04B500FF560189B002FF58213CCA83
S315020012D0AEEF504551F8040B51F804EBAEFF504403
S315020012E0A2FB006AA3FB007C8BED795FE2FB6E7AC0
S315020012F0AEEF52A5C0B4A4FB0086AEFF52A4E3FB38
S315020013006E8AA5FB00970EFD21BE51F8040BE4FB85
S315020013106E9A1BED5F1FE5FB6EA79BED213FE2FB7D
S31502001320608CE3FB609C00FF5601E4FB60ACE5FBCE
S3150200133060C702FF582151F8040B51F804EBBCEFC9
S315020013405245E2FB6096BCFF5244E3FB60A6E4FB17
S3150200135060C60EFD455EE5FB6067CDE90289BBEF1F
S3150200136050A551F8040B4FF00009BBFF50A4E2FB55
S315020013706EA9E3FB6EC98EFD1FBEE4FB6E691BED13
S315020013804B1FE5FB6E79CDF824A09BED353F4FF060
S31502001390000AE2FB60CA00FF5601E3FB606AE4FB57
S315020013A0607A02FF5821E5FB609AADEF524551F88B
S315020013B0048B4FF0000EADFF5244E2FB68E6E3FBFE
S315020013C068760EFD695EE4FB6896E5FB68A6ACEFFF
S315020013D050A551F81C89ACFF50A44FF00000E2FB67
S315020013E068700EFD05BEE3FB6890E4FB68A01BED8A
S315020013F0371FE5FB686001B49BED493F0B9600FF82
S31502001400560102FF58210C9A1032ABEF52453CCAE4
S3150200141051F8048BABFF52440A9E4FF000008BED4D
S31502001420715FE2FB6860AAEF50A50596E3FB68C010
S31502001430AAFF50A4E4FB68E0E5FB68070EFD29BE9F
S3150200144051F8048B4FF000061BED231FE2FB68C622
S315020014509BED5D3FCDF818C0E3FB68E600FF560141
S31502001460E4FB6806E5FB686702FF582151F8048B26
S315020014704FF0000CBCEF5045E2FB68ECBCFF504459
S31502001480CDF81CE0E3FB680C0EFD4D5EE4FB686CD8
S31502001490E5FB68ACBCEF52A551F8048B4FF0000E89
S315020014A0BCFF52A4E2FB680E08908EFD17BE0B9895
S315020014B09EFD677EE3FB686EE4FB68AE9EFD7B9E47
S315020014C0E5FB680E51F8048B1BED6F1FE2FB6869A2
S315020014D009969BED113FE3FB689A00FF5601E4FB78
S315020014E068A040BC02FF5821E5FB686051F8048BF6
S315020014F0AEEF5245E2FB6897E3FB68A7AEFF5244A4
S31502001500E4FB68670EFD5D5EE5FB680751F8048B38
S31502001510ADEF50A5E2FB68ACE3FB686CADFF50A4EF
S31502001520E4FB680CE5FB687C8EFD07BE51F8048B74
S315020015301BED5B1FE2FB686EE3FB680E9BED253F2E
S31502001540E4FB68E7E5FB687C00FF560102FF5821D1
S31502001550DDE907452623AAEF50454FF00008AAFF0A
S315020015605044E3FB6C484FEA48088BED7D5F48EA3E
S31502001570D47824F0004CAAEF52A5132408FB04F8F1
S31502001580AAFF52A404460EFD1DBE07BCE3FB650876
S315020015901BED471FE3FB6918E3FB6A289BED393F06
S315020015A04FF02609254600FF560118BC02FF5821B6
S315020015B0E9FB6638E9FB6548B4EF524560BCE9FBD6
S315020015C06E58B4FF5244E9FB676808EB0C070EFD40
S315020015D0415E05B05DF804EBFFB54AF2D07CC2F27B
S315020015E0012C4FF00500CCF80000BDE8FF40BDE835
S315020015F000187047AFF30080AFF30080AFF30080AE
S315020016002DE900180FB44AF2C87BC2F2012BDBF8AF
S3150200161000B00BF2F45C0BF5FE7B05A393ED00FF25
S315020016202FEE4CEF0CE000BFAFF30080AFF300806B
S315020016300000000004000000080000000C0000008A
S315020016400FBC04B5B3EF50A589B0B3FF50A43CCA92
S315020016508EFD23BE51F8040B51F804EB1BED331F2C
S31502001660A2FB006AA3FB007C9BED4D3FE2FB6E7A78
S3150200167000FF5601C0B4A4FB008602FF5821E3FB1B
S315020016806E8AA5FB0097A4EF504551F8040BE4FBC4
S315020016906E9AA4FF5044E5FB6EA70EFD655EE2FB63
S315020016A0608CE3FB609CA4EF52A5E4FB60ACE5FB17
S315020016B060C7A4FF52A451F8040B51F804EB0EFDC7
S315020016C001BEE2FB60961BED1F1FE3FB60A6E4FB77
S315020016D060C69BED613FE5FB6067CDE9028900FFCD
S315020016E0560151F8040B4FF0000902FF5821E2FBA4
S315020016F06EA9E3FB6EC9A7EF5045E4FB6E69A7FF2F
S315020017005044E5FB6E79CDF824A08BED755F4FF062
S31502001710000AE2FB60CAA7EF52A5E3FB606AE4FB9C
S31502001720607AA7FF52A4E5FB609A0EFD25BE51F82A
S31502001730048B4FF0000E9BED651FE2FB68E6E3FBB0
S3150200174068769BED693FE4FB6896E5FB68A69BED30
S315020017506D5F51F81C899BED71BF4FF00000E2FBF3
S3150200176068709BED75DFE3FB6890E4FB68A014EFFD
S315020017705261E5FB686001B406FF50610B960BED02
S315020017807F7F1AEF54610C9A103206FF52613CCAEF
S3150200179051F8048B0BED7B7F0A9E4FF000001CEF85
S315020017A05A61E2FB686006FF54610596E3FB68C076
S315020017B00BED777FE4FB68E0E5FB680710EF5C6101
S315020017C051F8048B4FF0000606FF5A61E2FB68C629
S315020017D00BED737FCDF818C0E3FB68E612EF50619C
S315020017E0E4FB6806E5FB686706FF5C6151F8048B5B
S315020017F04FF0000C0BED6F7FE2FB68EC9BED791F5F
S31502001800CDF81CE0E3FB680C9BED7D3FE4FB686CC6
S31502001810E5FB68AC1EFD7D5E51F8048B4FF0000EB1
S315020018201EFD79BEE2FB680E08901EFD75DE0B9862
S3150200183014EF5261E3FB686EE4FB68AE06FF50618B
S31502001840E5FB680E51F8048B0BED6B7FE2FB6869D2
S3150200185009961AEF5461E3FB689A06FF5261E4FBAC
S3150200186068A040BC0BED677FE5FB686051F8048B0E
S315020018701CEF5A61E2FB6897E3FB68A706FF546117
S31502001880E4FB68670BED637FE5FB680751F8048BA1
S3150200189010EF5C61E2FB68ACE3FB686C06FF5A6121
S315020018A0E4FB680CE5FB687C0BED5F7F51F8048B6B
S315020018B012EF5061E2FB686EE3FB680E06FF5C61A5
S315020018C0E4FB68E7E5FB687C0BED5B7F1EFD711EA2
S315020018D0DDE9074526231EFD6D3E4FF000081EFD7D
S315020018E0695EE3FB6C484FEA48081EFD65BE48EA9E
S315020018F0D47824F0004C1EFD61DE132408FB04F8A4
S3150200190014EF5261044606FF506107BCE3FB65080B
S315020019100BED577FE3FB6918E3FB6A281AEF546164
S315020019204FF02609254606FF526118BC0BED537F80
S31502001930E9FB6638E9FB65481CEF5A6160BCE9FBC6
S315020019406E5806FF5461E9FB676808EB0C070BED5E
S315020019504F7F05B05DF804EBFFB54AF2D07CC2F2C8
S31502001960012C4FF00600CCF80000BDE8FF40BDE8B0
S3150200197000187047AFF30080AFF30080AFF300802A
S315020019802DE900180FB44AF2C87BC2F2012BDBF82C
S3150200199000B00BF2F45C0BF5FE7B05A393ED00FFA2
S315020019A02FEE4CEF0CE000BFAFF30080AFF30080E8
S315020019B00000000004000000080000000C00000007
S315020019C00FBC04B510EF5C6189B006FF5A613CCAD0
S315020019D00BED4B7F51F8040B51F804EB12EF5061FB
S315020019E0A2FB006AA3FB007C06FF5C61E2FB6E7A47
S315020019F00BED477FC0B4A4FB00861EFD5D1EE3FB14
S31502001A006E8AA5FB00971EFD593E51F8040BE4FBB6
S31502001A106E9A1EFD555EE5FB6EA71EFD51BEE2FBEC
S31502001A20608CE3FB609C1EFD4DDEE4FB60ACE5FBD7
S31502001A3060C714EF526151F8040B51F804EB06FF2C
S31502001A405061E2FB60960BED437FE3FB60A6E4FB8D
S31502001A5060C61AEF5461E5FB6067CDE9028906FFAD
S31502001A60526151F8040B4FF000090BED3F7FE2FB88
S31502001A706EA9E3FB6EC91CEF5A61E4FB6E6906FFB1
S31502001A805461E5FB6E79CDF824A00BED3B7F4FF058
S31502001A90000AE2FB60CA10EF5C61E3FB606AE4FBEA
S31502001AA0607A06FF5A61E5FB609A0BED377F51F8C3
S31502001AB0048B4FF0000E12EF5061E2FB68E6E3FB87
S31502001AC0687606FF5C61E4FB6896E5FB68A60BEDAB
S31502001AD0337F51F81C891EFD491E4FF00000E2FBC0
S31502001AE068701EFD453EE3FB6890E4FB68A01EFDA0
S31502001AF0415EE5FB686001B41EFD3DBE0B961EFD10
S31502001B0039DE14EF52610C9A103206FF50613CCA5C
S31502001B1051F8048B0BED2F7F0A9E4FF000001AEF4F
S31502001B205461E2FB686006FF52610596E3FB68C0FA
S31502001B300BED2B7FE4FB68E0E5FB68071CEF5A61BF
S31502001B4051F8048B4FF0000606FF5461E2FB68C6AB
S31502001B500BED277FCDF818C0E3FB68E610EF5C615A
S31502001B60E4FB6806E5FB686706FF5A6151F8048BD9
S31502001B704FF0000C0BED237FE2FB68EC12EF506195
S31502001B80CDF81CE0E3FB680C06FF5C61E4FB686CC5
S31502001B90E5FB68AC0BED1F7F51F8048B4FF0000E8E
S31502001BA01EFD351EE2FB680E08901EFD313E0B98A7
S31502001BB01EFD2D5EE3FB686EE4FB68AE1EFD29BECC
S31502001BC0E5FB680E51F8048B1EFD25DEE2FB686913
S31502001BD0099614EF5261E3FB689A06FF5061E4FB33
S31502001BE068A040BC8BED017FE5FB686051F8048B71
S31502001BF01AEF5461E2FB6897E3FB68A706FF52619E
S31502001C00E4FB68678BED057FE5FB680751F8048BFB
S31502001C101CEF5A61E2FB68ACE3FB686C06FF546199
S31502001C20E4FB680CE5FB687C8BED097F51F8048BBD
S31502001C3010EF5C61E2FB686EE3FB680E06FF5A6119
S31502001C40E4FB68E7E5FB687C8BED0D7F12EF5061E4
S31502001C50DDE90745262306FF5C614FF000088BEDA0
S31502001C60117FE3FB6C484FEA48081EFD211E48EA35
S31502001C70D47824F0004C1EFD1D3E132408FB04F804
S31502001C801EFD195E04461EFD15BE07BCE3FB650874
S31502001C901EFD11DEE3FB6918E3FB6A2814EF5261AD
S31502001CA04FF02609254606FF506118BC8BED157FBD
S31502001CB0E9FB6638E9FB65481AEF546160BCE9FB4B
S31502001CC06E5806FF5261E9FB676808EB0C078BED5D
S31502001CD0197F05B05DF804EBFFB54AF2D07CC2F27B
S31502001CE0012C4FF00700CCF80000BDE8FF40BDE82C
S31502001CF000187047AFF30080AFF30080AFF30080A7
S31502001D002DE900180FB44AF2C87BC2F2012BDBF8A8
S31502001D1000B00BF2F45C0BF5FE7B05A393ED00FF1E
S31502001D202FEE4CEF0CE000BFAFF30080AFF3008064
S31502001D300000000004000000080000000C00000083
S31502001D400FBC04B51CEF5A6189B006FF54613CCA48
S31502001D508BED1D7F51F8040B51F804EB10EF5C611B
S31502001D60A2FB006AA3FB007C06FF5A61E2FB6E7AC5
S31502001D708BED217FC0B4A4FB008612EF5061E3FB1A
S31502001D806E8AA5FB009706FF5C6151F8040BE4FB23
S31502001D906E9A8BED257FE5FB6EA71EFD0D1EE2FBFF
S31502001DA0608CE3FB609C1EFD093EE4FB60ACE5FB38
S31502001DB060C71EFD055E51F8040B51F804EB1EFDCB
S31502001DC001BEE2FB60969EFD03DEE3FB60A6E4FB3A
S31502001DD060C614EF5261E5FB6067CDE9028906FF32
S31502001DE0506151F8040B4FF000098BED297FE2FB9D
S31502001DF06EA9E3FB6EC91AEF5461E4FB6E6906FF36
S31502001E005261E5FB6E79CDF824A08BED2D7F4FF064
S31502001E10000AE2FB60CA1CEF5A61E3FB606AE4FB5C
S31502001E20607A06FF5461E5FB609A8BED317F51F8CB
S31502001E30048B4FF0000E10EF5C61E2FB68E6E3FBF9
S31502001E40687606FF5A61E4FB6896E5FB68A68BEDA9
S31502001E50357F51F81C8912EF50614FF00000E2FB0A
S31502001E60687006FF5C61E3FB6890E4FB68A08BED9B
S31502001E70397FE5FB686001B49EFD071E0B969EFD49
S31502001E800B3E9EFD0F5E0C9A10329EFD13BE3CCA9F
S31502001E9051F8048B9EFD17DE0A9E4FF0000014EFE8
S31502001EA05261E2FB686006FF50610596E3FB68C07B
S31502001EB08BED3D7FE4FB68E0E5FB68071AEF5461B2
S31502001EC051F8048B4FF0000606FF5261E2FB68C62A
S31502001ED08BED417FCDF818C0E3FB68E61CEF5A6133
S31502001EE0E4FB6806E5FB686706FF546151F8048B5C
S31502001EF04FF0000C8BED457FE2FB68EC10EF5C6166
S31502001F00CDF81CE0E3FB680C06FF5A61E4FB686C43
S31502001F10E5FB68AC8BED497F51F8048B4FF0000E60
S31502001F2012EF5061E2FB680E089006FF5C610B98A7
S31502001F308BED4D7FE3FB686EE4FB68AE9EFD1B1ED8
S31502001F40E5FB680E51F8048B9EFD1F3EE2FB6869B5
S31502001F5009969EFD235EE3FB689A9EFD27BEE4FB7F
S31502001F6068A040BC9EFD2BDEE5FB686051F8048B41
S31502001F7014EF5261E2FB6897E3FB68A706FF506124
S31502001F80E4FB68678BED517FE5FB680751F8048B2C
S31502001F901AEF5461E2FB68ACE3FB686C06FF526120
S31502001FA0E4FB680CE5FB687C8BED557F51F8048BEE
S31502001FB01CEF5A61E2FB686EE3FB680E06FF546192
S31502001FC0E4FB68E7E5FB687C8BED597F10EF5C610B
S31502001FD0DDE90745262306FF5A614FF000088BED1F
S31502001FE05D7FE3FB6C484FEA480812EF506148EA0E
S31502001FF0D47824F0004C06FF5C61132408FB04F835
S315020020008BED617F04461BED1B1F07BCE3FB6508D6
S315020020101BED7F3FE3FB6918E3FB6A2802FF5021B1
S315020020204FF0260925460BED7F3F18BC1BED171F07
S31502002030E9FB6638E9FB65489BED013F60BCE9FBBD
S315020020406E5802FF5021E9FB676808EB0C078BED1F
S31502002050013F05B05DF804EBFFB54AF2D07CC2F24F
S31502002060012C0020CCF800004AF2CC7CC2F2012CF2
S31502002070DCF800000130CCF80000182806D14AF23C
S31502002080D47CC2F2012C0020CCF80000BDE8FF404F
S31502002090BDE80018704700B585B0A0FB009AA0FB0A
S315020020A001BC1BEB0B0B4FF0000EEEFB6EAB2DE9EA
S315020020B000064FF00008E0FB628C58EB0808E1FBD3
S315020020C0618BA0FB039AE1FB629C59EB0909EEFBCB
S315020020D06E9BCDE902894FF00009E0FB649AE1FBB1
S315020020E0639C59EB0909E2FB629BCDF81090A0FBB9
S315020020F00598E1FB649AE2FB639C59EB0909EEFB46
S315020021006E9BCDF814904FF00009E1FB6598E2FB57
S31502002110649CE0FB669A59EB0909E3FB639BCDF8E5
S315020021201890A0FB0709E1FB660AE2FB650CE3FBDC
S3150200213064084041EEFB6E0BE1FB6798E2FB669A90
S31502002140E3FB65C95CEB0C0CE4FB64BCE2FB679841
S31502002150E3FB66A90022E4FB65A25AEB0A0AEEFB40
S315020021606ECAE3FB6728E4FB669259EB0909E5FBB5
S3150200217065A90023E4FB6738E5FB66325B41EEFBAB
S315020021806E93E5FB678258EB0808E6FB6638AEFB02
S315020021900E45E6FB67426441EEFB6E485241E7FBA1
S315020021A0678252EB0E024FF02606E6FB620E4FEAFC
S315020021B04E0E4EEAD07E20F0004713250EFB05FE9A
S315020021C003BCE6FB6B0EE6FB6C1E9B46A4463CBCC0
S315020021D0E6FB6A2EE6FB693EE6FB6B4EE6FB6C5EB1
S315020021E040BC4FF0260CECFB686E774400BD2DE92F
S315020021F00041FFF750FFDDF80080B8F10108CDF885
S315020022000080F6D101B00DF1040888E8FF0000BD98
S3150200221008688A68CB680C694D698E69CF69496816
S3150200222070472DE9F14F9246FFF7F2FF20F00700C3
S3150200223047F08047FFB45FF000082DE904015146DC
S31502002240FFF7E6FF27F00047FFB45FF00109A8FB9E
S3150200225008AB4FF0000C2DE9001D2DE9001EFFB45E
S31502002260A8FB08672DE9C01D2DE9C01D2DE9001E3A
S31502002270FE20002341091DF1A80252F8211000F0A8
S315020022801F04E14001F00101CDE928015940D1F1D5
S31502002290000E684610A94FF0040B90E83C0091E846
S315020022A0C003724002EA0E0A96EA0A0672407B40B0
S315020022B003EA0E0A97EA0A077B4094EA080404EA4C
S315020022C00E0A98EA0A0894EA080495EA090505EA54
S315020022D00E0A99EA0A0995EA09053CC0A1E8C00373
S315020022E0BBF1010BD9D1E8460DF12009FDF728FF14
S315020022F0FFB4FFF7D0FEFFB40DF140080DF16009FF
S31502002300FDF74AFFFFB4FFF7C6FEFFB4694610AAFF
S31502002310FDF773FF0DF1800888E8FF000DF1400814
S31502002320E946FDF739FF0DF1400888E8FF00DFF8BE
S31502002330ACE5DDF81CC04FF0000BEEFB67CB4FEAB5
S315020023404B0B0BEBDC7B13270BFB07FB2CF000473D
S31502002350BDE80017EEFB608BEEFB619BEEFB62AB0A
S31502002360EEFB63CB07BCEEFB640BEEFB651BEEFBE1
S31502002370662B5F4401B087B42DE90017694610AA9F
S31502002380FDF73BFF0DF1A00888E8FF000DF1C0083C
S315020023900DF1E009FDF7D4FE8DE8FF00694608AAB3
S315020023A0FDF72BFF0DF1200888E8FF000DF1C008AC
S315020023B00DF1E009FDF7F0FE8DE8FF00694618AA67
S315020023C0FDF71BFF8DE8FF00E8460DF12009FDF73A
S315020023D0B7FEFFF760FE0DF1C00888E8FF00E84689
S315020023E00DF12009FDF7D8FEFFF755FE8DE8FF0037
S315020023F0694640AAFDF701FF0DF1E00888E8FF00F3
S3150200240020B0DDE92823501E7FF534AF08A8FFC8A7
S31502002410FFF741FEFFB4FFF73EFEFFF73CFEFFB4B7
S3150200242018A96A46FDF7E9FE8DE8FF00694608AA83
S31502002430FDF7E3FE0DF1200888E8FF00FFF72BFE0B
S31502002440FFB4694608AAFDF7D8FE0DF1200888E810
S31502002450FF004FF00508FFF7CAFE694608AAFDF716
S31502002460CCFE0DF1200888E8FF005FF00A08FFF7AE
S31502002470BEFE694608AAFDF7C0FE8DE8FF005FF0C2
S31502002480140888B0FFF7B3FE694608AAFDF7B5FE41
S3150200249008B05FF00A08FFF7AAFE694608AAFDF728
S315020024A0ACFE0DF1200888E8FF005FF03208FFF766
S315020024B09EFE694608AAFDF7A0FE8DE8FF005FF0C2
S315020024C0640888B0FFF793FE694608AAFDF795FEF1
S315020024D008B05FF03208FFF78AFE694608AAFDF7E0
S315020024E08CFE5FF00508FFF782FE694610AAFDF72B
S315020024F084FE8DE8FF00694618AAFDF77EFE4FEAC4
S31502002500D7784FF0130908FB09F84FF0000A08F1D3
S31502002510130810EB080851EB0A0852EB0A0853EBB2
S315020025200A0854EB0A0855EB0A0856EB0A0857EB59
S315020025300A085AEB0A0B4FEAD87848EA4B0808FB16
S3150200254009F8DDF8289110EB0800C9F80000002010
S315020025504141C9F80410494642414341444145417B
S315020025604641474127F000478A60CB600C614D61C6
S315020025708E61CF614BB0BDE8F08F2DED108B2DE94A
S31502002580F14F9246FFF744FE20F0070047F08047DE
S31502002590FFB45FF000082DE904015146FFF738FE4B
S315020025A027F00047FFB45FF00109A8FB08AB4FF024
S315020025B0000C2DE9001D2DE9001EFFB4A8FB0867DB
S315020025C02DE9C01D2DE9C01D2DE9001EFE200023A8
S315020025D041091DF1A80252F8211000F01F04E14042
S315020025E001F00101CDE928015940D1F1000E6846FA
S315020025F010A94FF0040B90E83C0091E8C00372402A
S3150200260002EA0E0A96EA0A0672407B4003EA0E0ABC
S3150200261097EA0A077B4094EA080404EA0E0A98EA53
S315020026200A0894EA080495EA090505EA0E0A99EAEF
S315020026300A0995EA09053CC0A1E8C003BBF1010BF2
S31502002640D9D1E8460DF12009FDF77AFDFFB4FFF76F
S3150200265022FDFFB40DF140080DF16009FDF79CFD66
S31502002660FFB4FFF718FDFFB4694610AAFDF7B5FEE1
S315020026700DF1800888E8FF000DF14008E946FDF7F4
S315020026808BFD0DF1400888E8FF00DFF850E2DDF827
S315020026901CC04FF0000BEEFB67CB4FEA4B0B0BEB6C
S315020026A0DC7B13270BFB07FB2CF00047BDE800176A
S315020026B0EEFB608BEEFB619BEEFB62ABEEFB63CB4C
S315020026C007BCEEFB640BEEFB651BEEFB662B5F4461
S315020026D001B087B42DE90017694610AAFDF77DFE01
S315020026E00DF1A00888E8FF000DF1C0080DF1E00920
S315020026F0FDF726FD8DE8FF00694608AAFDF76DFE87
S315020027000DF1200888E8FF000DF1C0080DF1E0097F
S31502002710FDF742FD8DE8FF00694618AAFDF75DFE4A
S315020027208DE8FF00E8460DF12009FDF709FDFFF7E8
S31502002730B2FC0DF1C00888E8FF00E8460DF1200959
S31502002740FDF72AFDFFF7A7FC8DE8FF00694640AAC0
S31502002750FDF743FE0DF1E00888E8FF0020B0DDE951
S315020027602823501E7FF534AF08A8FFC8FFF793FC55
S31502002770FFB4FFF790FCFFF78EFCFFB418A96A4678
S31502002780FDF72BFE8DE8FF00694608AAFDF725FE38
S315020027900DF1200888E8FF00FFF77DFCFFB46946CB
S315020027A008AAFDF71AFE0DF1200888E8FF004FF08F
S315020027B00508FFF71CFD694608AAFDF70EFE0DF196
S315020027C0200888E8FF005FF00A08FFF710FD694657
S315020027D008AAFDF702FE8DE8FF005FF0140888B034
S315020027E0FFF705FD694608AAFDF7F7FD08B05FF099
S315020027F00A08FFF7FCFC694608AAFDF7EEFD0DF193
S31502002800200888E8FF005FF03208FFF7F0FC69460F
S3150200281008AAFDF7E2FD8DE8FF005FF0640888B0C4
S31502002820FFF7E5FC694608AAFDF7D7FD08B05FF099
S315020028303208FFF7DCFC694608AAFDF7CEFD5FF019
S315020028400508FFF7D4FC694610AAFDF7C6FD8DE818
S31502002850FF00694618AAFDF7C0FD4FEAD7784FF088
S31502002860130908FB09F84FF0000A08F1130810EBE8
S31502002870080851EB0A0852EB0A0853EB0A0854EB14
S315020028800A0855EB0A0856EB0A0857EB0A085AEBF0
S315020028900A0B4FEAD87848EA4B0808FB09F8DDF834
S315020028A0289110EB0800C9F8000000204141C9F840
S315020028B0041049464241434144414541464147414C
S315020028C027F000478A60CB600C614D618E61CF6153
S315020028D04BB0BDE8F04FBDEC108B704742DB0100F8
S315020028E0B2F1000FB0F9003018BF4FEA0103A0F8A9
S315020028F0003070472DE9F04F40F2190EF8C9B2E8E0
S31502002900001FD3FA48F3D4FA49F4D5FA4AF5D6FAAF
S315020029104BF6D7FA4CF7F8C0BEF1010E7FF4EEAFD4
S3150200292038C9B2E80007D3FA48F3D4FA49F4D5FA1B
S315020029304AF538C0BDE8F08F2DE9F04F40F2190E86
S31502002940F8C9B2E8001F93FA48F394FA49F495FAE3
S315020029504AF596FA4BF697FA4CF7F8C0BEF1010E15
S315020029607FF4EEAF38C9B2E8000793FA48F394FA57
S3150200297049F495FA4AF538C0BDE8F08F2DE9F04FD3
S3150200298040F2400E51F8044B52F8046B51F8045BC6
S3150200299052F8047BD3F804B053F808CB2CFB06FCA0
S315020029A040F804CB24FB16FC40F804CB2BFB07FCB7
S315020029B040F804CB25FB17FC40F804CBBEF1010E10
S315020029C07FF4E0AFBDE8F08F2DE9F04F40F2400E04
S315020029D051F8044B52F8046BD0F8005053F804CB6C
S315020029E0D0F804702CFB065C40F804CB24FB167B63
S315020029F040F804BB51F8044B52F8046BD0F800506F
S31502002A0053F804CBD0F804702CFB065C40F804CBD8
S31502002A1024FB167B40F804BBBEF1010E7FF4D8AF4F
S31502002A20BDE8F08F2DE9F04F46F60809C0F60158C9
S31502002A304FF2013AC6F6A83ADDF824B040F2400E4B
S31502002A4051F8044B52F8046B5BF8045B53F804CB61
S31502002A505BF8047B2CFB065505FB0AF515FB38953E
S31502002A6024FB167707FB0AF717FB3897C7EA2545B3
S31502002A7040F8045B51F8044B52F8046B5BF8045BB4
S31502002A8053F804CB5BF8047B2CFB065505FB0AF5D1
S31502002A9015FB389524FB167707FB0AF717FB3897C1
S31502002AA0C7EA254540F8045BBEF1010E7FF4C8AFC4
S31502002AB0BDE8F08F2DE9F04F2DED088AC0F6015CD6
S31502002AC0B1EC0F4A00F5007E04EE10EA0BEE900A16
S31502002AD0D0F82020D0F82430D0F82840D0F82C5056
S31502002AE0D0F83060D0F83470D0F83880D0F83C9006
S31502002AF046F6080092FA03FED2FA03F394FA05FBAD
S31502002B00D4FA05F596FA07F2D6FA07F798FA09F40F
S31502002B10D8FA09F99EFA0BF8DEFA0BFB92FA04F6DA
S31502002B20D2FA04F415EE10AA3AFB05FE3AFB15F5A5
S31502002B301EFB1C0E15FB1C05C5EA2E4ED3FA4EF5DE
S31502002B4093FA4EF33AFB09FE3AFB19F91EFB1C0EE9
S31502002B5019FB1C09C9EA2E4ED7FA4EF997FA4EF717
S31502002B6098FA06F2D8FA06F616EE10AA3AFB07FE0D
S31502002B703AFB17F71EFB1C0E17FB1C07C7EA2E4E65
S31502002B80D3FA4EF793FA4EF316EE90AA3AFB04FEE8
S31502002B903AFB14F41EFB1C0E14FB1C04C4EA2E4E54
S31502002BA0DBFA0EF89BFA0EF417EE10AA3AFB09FEB0
S31502002BB03AFB19F91EFB1C0E19FB1C09C9EA2E4E1B
S31502002BC0D5FA4EF995FA4EF518EE10BA3BFB03FE0E
S31502002BD03BFB13F31EFB1C0E13FB1C03C3EA2E4323
S31502002BE018EE90AA19EE10BA3AFB04FE3AFB14F458
S31502002BF01EFB1C0E14FB1C04C4EA2E443BFB05FE02
S31502002C003BFB15F51EFB1C0E15FB1C05C5EA2E45E6
S31502002C1019EE90AA1AEE10BA3AFB06FE3AFB16F61F
S31502002C201EFB1C0E16FB1C06C6EA2E463BFB07FEC7
S31502002C303BFB17F71EFB1C0E17FB1C07C7EA2E47AA
S31502002C401AEE90AA1BEE10BA3AFB08FE3AFB18F8E7
S31502002C501EFB1C0E18FB1C08C8EA2E483BFB09FE8D
S31502002C603BFB19F91EFB1C0E19FB1C09C9EA2E496E
S31502002C7000EE102A00EE903A01EE104A01EE905A4A
S31502002C8002EE106A02EE907A03EE108A03EE909A32
S31502002C901BEE900AD0F80020D0F80430D0F8084095
S31502002CA0D0F80C50D0F81060D0F81470D0F8188014
S31502002CB0D0F81C9046F6080092FA03FED2FA03F305
S31502002CC094FA05FBD4FA05F596FA07F2D6FA07F74F
S31502002CD098FA09F4D8FA09F99EFA0BF8DEFA0BFB10
S31502002CE092FA04F6D2FA04F415EE10AA3AFB05FE9D
S31502002CF03AFB15F51EFB1C0E15FB1C05C5EA2E4EEE
S31502002D00D3FA4EF593FA4EF33AFB09FE3AFB19F95A
S31502002D101EFB1C0E19FB1C09C9EA2E4ED7FA4EF9E8
S31502002D2097FA4EF798FA06F2D8FA06F616EE10AAAF
S31502002D303AFB07FE3AFB17F71EFB1C0E17FB1C0796
S31502002D40C7EA2E4ED3FA4EF793FA4EF316EE90AA30
S31502002D503AFB04FE3AFB14F41EFB1C0E14FB1C0485
S31502002D60C4EA2E4EDBFA0EF89BFA0EF417EE10AA00
S31502002D703AFB09FE3AFB19F91EFB1C0E19FB1C094C
S31502002D80C9EA2E4ED5FA4EF995FA4EF51BEE900A81
S31502002D9010EE90BA93FA4BFED3FA4BF3C0F804E066
S31502002DA0C0F8243011EE90BA95FA4BFED5FA4BF5DF
S31502002DB0C0F80CE0C0F82C5012EE90BA97FA4BFE0F
S31502002DC0D7FA4BF7C0F814E0C0F8347013EE90BA95
S31502002DD099FA4BFED9FA4BF9C0F81CE0C0F83C90C0
S31502002DE011EE105A94FA45FED4FA45FBC0F808E0F3
S31502002DF0C0F828B012EE107A96FA47FED6FA47FBCA
S31502002E00C0F810E0C0F830B013EE109A98FA49FEF6
S31502002E10D8FA49FBC0F818E0C0F838B010EE103AFC
S31502002E2092FA43FED2FA43FBC0F820B040F840EBD8
S31502002E3014EE10EAB0EB0E0F7FF448AEA0F5007068
S31502002E4003EE100AD0F80020D0F84030D0F88040C7
S31502002E50D0F8C050D0F80061D0F84071D0F8808127
S31502002E60D0F8C091B1EC060A46F608004AF6B87ADE
S31502002E70C0F2130A3AFB02FE3AFB12F21EFB1C0ECA
S31502002E8012FB1C02C2EA2E423AFB03FE3AFB13F382
S31502002E901EFB1C0E13FB1C03C3EA2E433AFB04FE65
S31502002EA03AFB14F41EFB1C0E14FB1C04C4EA2E444B
S31502002EB03AFB05FE3AFB15F51EFB1C0E15FB1C051F
S31502002EC0C5EA2E453AFB06FE3AFB16F61EFB1C0E1B
S31502002ED016FB1C06C6EA2E463AFB07FE3AFB17F716
S31502002EE01EFB1C0E17FB1C07C7EA2E473AFB08FE01
S31502002EF03AFB18F81EFB1C0E18FB1C08C8EA2E48E3
S31502002F003AFB09FE3AFB19F91EFB1C0E19FB1C09BA
S31502002F10C9EA2E4992FA03FED2FA03F394FA05FBA2
S31502002F20D4FA05F596FA07F2D6FA07F798FA09F4EB
S31502002F30D8FA09F99EFA0BF8DEFA0BFB92FA04F6B6
S31502002F40D2FA04F410EE90AA3AFB05FE3AFB15F506
S31502002F501EFB1C0E15FB1C05C5EA2E4ED3FA4EF5BA
S31502002F6093FA4EF33AFB09FE3AFB19F91EFB1C0EC5
S31502002F7019FB1C09C9EA2E4ED7FA4EF997FA4EF7F3
S31502002F8098FA06F2D8FA06F611EE90AA3AFB07FE6E
S31502002F903AFB17F71EFB1C0E17FB1C07C7EA2E4E41
S31502002FA0D3FA4EF793FA4EF312EE10AA3AFB04FE48
S31502002FB03AFB14F41EFB1C0E14FB1C04C4EA2E4E30
S31502002FC0DBFA0EF89BFA0EF412EE90AA3AFB09FE11
S31502002FD03AFB19F91EFB1C0E19FB1C09C9EA2E4EF7
S31502002FE0D5FA4EF995FA4EF5F1E802AB3AFB02FE36
S31502002FF03AFB12F21EFB1C0E12FB1C02C2EA2E4206
S315020030003BFB03FE3BFB13F31EFB1C0E13FB1C03D5
S31502003010C3EA2E43F1E802AB3AFB04FE3AFB14F490
S315020030201EFB1C0E14FB1C04C4EA2E443BFB05FECD
S315020030303BFB15F51EFB1C0E15FB1C05C5EA2E45B2
S31502003040F1E802AB3AFB06FE3AFB16F61EFB1C0E35
S3150200305016FB1C06C6EA2E463BFB07FE3BFB17F792
S315020030601EFB1C0E17FB1C07C7EA2E47F1E802AB34
S315020030703AFB08FE3AFB18F81EFB1C0E18FB1C084E
S31502003080C8EA2E483BFB09FE3BFB19F91EFB1C0E48
S3150200309019FB1C09C9EA2E4913EE100AC0F8006191
S315020030A0C0F84071C0F88081C0F8C091C0F84030C5
S315020030B0C0F88040C0F8C05040F8042B00F13C0E26
S315020030C007EE10EA03EE100AD0F80020D0F84030DE
S315020030D0D0F88040D0F8C050D0F80061D0F84071E6
S315020030E0D0F88081D0F8C09146F6080051F804ABBA
S315020030F03AFB03FE3AFB13F31EFB1C0E13FB1C03E7
S31502003100C3EA2E4ED2FA4EF392FA4EF23AFB05FE7D
S315020031103AFB15F51EFB1C0E15FB1C05C5EA2E4EC9
S31502003120D4FA4EF594FA4EF43AFB07FE3AFB17F739
S315020031301EFB1C0E17FB1C07C7EA2E4ED6FA4EF7CD
S3150200314096FA4EF63AFB09FE3AFB19F91EFB1C0EDD
S3150200315019FB1C09C9EA2E4ED8FA4EF998FA4EF80E
S31502003160F1E802AB3AFB04FE3AFB14F41EFB1C0E1A
S3150200317014FB1C04C4EA2E4ED2FA4EF492FA4EF214
S315020031803BFB05FE3BFB15F51EFB1C0E15FB1C054A
S31502003190C5EA2E4ED3FA4EF593FA4EF33AFB08FEE3
S315020031A03AFB18F81EFB1C0E18FB1C08C8EA2E4E2A
S315020031B0D6FA4EF896FA4EF63BFB09FE3BFB19F998
S315020031C01EFB1C0E19FB1C09C9EA2E4ED7FA4EF934
S315020031D097FA4EF7F1E802AB3AFB06FE3AFB16F611
S315020031E01EFB1C0E16FB1C06C6EA2E4ED2FA4EF625
S315020031F092FA4EF23BFB07FE3BFB17F71EFB1C0E39
S3150200320017FB1C07C7EA2E4ED3FA4EF793FA4EF374
S31502003210F1E802AB3AFB08FE3AFB18F81EFB1C0E5D
S3150200322018FB1C08C8EA2E4ED4FA4EF894FA4EF44D
S315020032303BFB09FE3BFB19F91EFB1C0E19FB1C0985
S31502003240C9EA2E4ED5FA4EF995FA4EF5F1E802ABD9
S315020032503AFB02FE3AFB12F21EFB1C0E12FB1C028A
S31502003260C2EA2E423BFB03FE3BFB13F31EFB1C0E84
S3150200327013FB1C03C3EA2E43F1E802AB3AFB04FE3E
S315020032803AFB14F41EFB1C0E14FB1C04C4EA2E4467
S315020032903BFB05FE3BFB15F51EFB1C0E15FB1C0539
S315020032A0C5EA2E45F1E802AB3AFB06FE3AFB16F6F4
S315020032B01EFB1C0E16FB1C06C6EA2E463BFB07FE31
S315020032C03BFB17F71EFB1C0E17FB1C07C7EA2E4714
S315020032D0F1E802AB3AFB08FE3AFB18F81EFB1C0E9D
S315020032E018FB1C08C8EA2E483BFB09FE3BFB19F9F2
S315020032F01EFB1C0E19FB1C09C9EA2E4913EE100A05
S31502003300C0F80061C0F84071C0F88081C0F8C09171
S31502003310C0F84030C0F88040C0F8C05040F8042BD6
S3150200332017EE10EAB0EB0E0F7FF4CCAEBDEC088AB6
S31502003330BDE8F08F2DE9F04F2DED098AC0F6015C4C
S31502003340B1EC0F4A00F1200E0CEE10EA0BEE900AD9
S31502003350D0F82020D0F86030D0F8A040D0F8E05065
S31502003360D0F82061D0F86071D0F8A081D0F8E09151
S3150200337046F6080014EE10AA3AFB06FE3AFB16F6CB
S315020033801EFB1C0E16FB1C06C6EA2E4ED2FA4EF683
S3150200339092FA4EF23AFB07FE3AFB17F71EFB1C0E99
S315020033A017FB1C07C7EA2E4ED3FA4EF793FA4EF3D3
S315020033B03AFB08FE3AFB18F81EFB1C0E18FB1C080B
S315020033C0C8EA2E4ED4FA4EF894FA4EF43AFB09FEA7
S315020033D03AFB19F91EFB1C0E19FB1C09C9EA2E4EF3
S315020033E0D5FA4EF995FA4EF514EE90AA15EE10BAE4
S315020033F03AFB04FE3AFB14F41EFB1C0E14FB1C04DF
S31502003400C4EA2E4ED2FA4EF492FA4EF23AFB05FE78
S315020034103AFB15F51EFB1C0E15FB1C05C5EA2E4EC6
S31502003420D3FA4EF593FA4EF33BFB08FE3BFB18F834
S315020034301EFB1C0E18FB1C08C8EA2E4ED6FA4EF8C6
S3150200344096FA4EF63BFB09FE3BFB19F91EFB1C0ED8
S3150200345019FB1C09C9EA2E4ED7FA4EF997FA4EF70E
S3150200346015EE90AA16EE10BA3AFB03FE3AFB13F3D8
S315020034701EFB1C0E13FB1C03C3EA2E4ED2FA4EF39E
S3150200348092FA4EF23BFB05FE3BFB15F51EFB1C0EAC
S3150200349015FB1C05C5EA2E4ED4FA4EF594FA4EF4E7
S315020034A016EE90AA17EE10BA3AFB07FE3AFB17F78A
S315020034B01EFB1C0E17FB1C07C7EA2E4ED6FA4EF74A
S315020034C096FA4EF63BFB09FE3BFB19F91EFB1C0E58
S315020034D019FB1C09C9EA2E4ED8FA4EF998FA4EF88B
S315020034E017EE90AA18EE10BA3AFB02FE3AFB12F257
S315020034F01EFB1C0E12FB1C02C2EA2E423BFB03FE03
S315020035003BFB13F31EFB1C0E13FB1C03C3EA2E43E9
S3150200351018EE90AA19EE10BA3AFB04FE3AFB14F41E
S315020035201EFB1C0E14FB1C04C4EA2E443BFB05FEC8
S315020035303BFB15F51EFB1C0E15FB1C05C5EA2E45AD
S3150200354019EE90AA1AEE10BA3AFB06FE3AFB16F6E6
S315020035501EFB1C0E16FB1C06C6EA2E463BFB07FE8E
S315020035603BFB17F71EFB1C0E17FB1C07C7EA2E4771
S315020035701AEE90AA1BEE10BA3AFB08FE3AFB18F8AE
S315020035801EFB1C0E18FB1C08C8EA2E483BFB09FE54
S315020035903BFB19F91EFB1C0E19FB1C09C9EA2E4935
S315020035A000EE102A00EE903A01EE104A01EE905A11
S315020035B002EE106A02EE907A03EE108A03EE909AF9
S315020035C01BEE900AD0F80020D0F84030D0F88040A8
S315020035D0D0F8C050D0F80061D0F84071D0F88081A0
S315020035E0D0F8C09146F6080014EE10AA3AFB06FE81
S315020035F03AFB16F61EFB1C0E16FB1C06C6EA2E4EE0
S31502003600D2FA4EF692FA4EF23AFB07FE3AFB17F759
S315020036101EFB1C0E17FB1C07C7EA2E4ED3FA4EF7EB
S3150200362093FA4EF33AFB08FE3AFB18F81EFB1C0E01
S3150200363018FB1C08C8EA2E4ED4FA4EF894FA4EF439
S315020036403AFB09FE3AFB19F91EFB1C0E19FB1C0973
S31502003650C9EA2E4ED5FA4EF995FA4EF514EE90AA0F
S3150200366015EE10BA3AFB04FE3AFB14F41EFB1C0ECE
S3150200367014FB1C04C4EA2E4ED2FA4EF492FA4EF20F
S315020036803AFB05FE3AFB15F51EFB1C0E15FB1C0547
S31502003690C5EA2E4ED3FA4EF593FA4EF33BFB08FEDD
S315020036A03BFB18F81EFB1C0E18FB1C08C8EA2E4E24
S315020036B0D6FA4EF896FA4EF63BFB09FE3BFB19F993
S315020036C01EFB1C0E19FB1C09C9EA2E4ED7FA4EF92F
S315020036D097FA4EF715EE90AA16EE10BA3AFB03FECB
S315020036E03AFB13F31EFB1C0E13FB1C03C3EA2E4EFE
S315020036F0D2FA4EF392FA4EF23BFB05FE3BFB15F570
S315020037001EFB1C0E15FB1C05C5EA2E4ED4FA4EF501
S3150200371094FA4EF416EE90AA17EE10BA3AFB07FE8A
S315020037203AFB17F71EFB1C0E17FB1C07C7EA2E4EA9
S31502003730D6FA4EF796FA4EF63BFB09FE3BFB19F913
S315020037401EFB1C0E19FB1C09C9EA2E4ED8FA4EF9AD
S3150200375098FA4EF81BEE900A10EE90AA93FA4AFED9
S31502003760D3FA4AF3C0F840E0C0F8603011EE90AAEE
S3150200377095FA4AFED5FA4AF5C0F8C0E0C0F8E0501C
S3150200378012EE90AA97FA4AFED7FA4AF7C0F840E133
S31502003790C0F8607113EE90AA99FA4AFED9FA4AF96C
S315020037A0C0F8C0E1C0F8E09111EE105A94FA45FE55
S315020037B0D4FA45FAC0F880E0C0F8A0A012EE107A5A
S315020037C096FA47FED6FA47FAC0F800E1C0F820A1F9
S315020037D013EE109A98FA49FED8FA49FAC0F880E12F
S315020037E0C0F8A0A110EE103A92FA43FED2FA43FABA
S315020037F0C0F820A040F804EB1CEE10EAB0EB0E0F66
S315020038007FF4A4ADA0F1200000F5007E06EE90EA5A
S315020038100BEE900AD0F80020D0F80430D0F8084019
S31502003820D0F80C50D0F81060D0F81470D0F8188088
S31502003830D0F81C9046F6080051F804AB3AFB06FE97
S315020038403AFB16F61EFB1C0E16FB1C06C6EA2E4E8D
S31502003850D2FA4EF692FA4EF23AFB07FE3AFB17F707
S315020038601EFB1C0E17FB1C07C7EA2E4ED3FA4EF799
S3150200387093FA4EF33AFB08FE3AFB18F81EFB1C0EAF
S3150200388018FB1C08C8EA2E4ED4FA4EF894FA4EF4E7
S315020038903AFB09FE3AFB19F91EFB1C0E19FB1C0921
S315020038A0C9EA2E4ED5FA4EF995FA4EF5F1E802AB73
S315020038B03AFB04FE3AFB14F41EFB1C0E14FB1C041A
S315020038C0C4EA2E4ED2FA4EF492FA4EF23AFB05FEB4
S315020038D03AFB15F51EFB1C0E15FB1C05C5EA2E4E02
S315020038E0D3FA4EF593FA4EF33BFB08FE3BFB18F870
S315020038F01EFB1C0E18FB1C08C8EA2E4ED6FA4EF802
S3150200390096FA4EF63BFB09FE3BFB19F91EFB1C0E13
S3150200391019FB1C09C9EA2E4ED7FA4EF997FA4EF749
S31502003920F1E802AB3AFB03FE3AFB13F31EFB1C0E55
S3150200393013FB1C03C3EA2E4ED2FA4EF392FA4EF250
S315020039403BFB05FE3BFB15F51EFB1C0E15FB1C0582
S31502003950C5EA2E4ED4FA4EF594FA4EF4F1E802ABCD
S315020039603AFB07FE3AFB17F71EFB1C0E17FB1C075A
S31502003970C7EA2E4ED6FA4EF796FA4EF63BFB09FEEC
S315020039803BFB19F91EFB1C0E19FB1C09C9EA2E4E3C
S31502003990D8FA4EF998FA4EF81BEE900AC0F8106063
S315020039A0C0F81470C0F81880C0F81C90C0F8043033
S315020039B0C0F80840C0F80C5040F8202B16EE90EAEA
S315020039C0B0EB0E0F7FF424AFBDEC098ABDE8F08F91
S315020039D02DE9FF4F46F6080B40F6015A4FF2013C1D
S315020039E0C6F6A83C40F20009DDF83440DDF838702E
S315020039F00DEE107ADDF83C700DEE907A40F2000E74
S31502003A0008EE903A33F8025B13F8016BC5F30337FD
S31502003A1047EA0616C5F30B05C6F30B06B5EB0A0F06
S31502003A2080F04E8022F8025B09F10109B9F1040F18
S31502003A3040F04680A2F1080209EE103A09EE90EA39
S31502003A400AEE106A1DEE908A51F8043BD2F80090F5
S31502003A5054F804EB3EFB13F515FB0AB5C3EA05055C
S31502003A6048F8045B15FB39F613FB096623FB19F5C7
S31502003A70C0F8045040F8086BCEF1000E51F8043B32
S31502003A80D2F804903EFB13F515FB0AB5C3EA050509
S31502003A9048F8045B15FB39F613FB096623FB19F597
S31502003AA0C0F8045040F8086B0DEE908A19EE103AF1
S31502003AB019EE90EA1AEE106A0EF1010E40F20009B2
S31502003AC0B6EB0A0F80F04E80BEF1400F80F24A80BC
S31502003AD022F8026B09F10109B9F1040F40F04280A4
S31502003AE0A2F1080209EE103A09EE90EA1DEE908A5A
S31502003AF051F8043BD2F8009054F804EB3EFB13F560
S31502003B0015FB0AB5C3EA050548F8045B15FB39F649
S31502003B1013FB096623FB19F5C0F8045040F8086B3D
S31502003B20CEF1000E51F8043BD2F804903EFB13F599
S31502003B3015FB0AB5C3EA050548F8045B15FB39F619
S31502003B4013FB096623FB19F5C0F8045040F8086B0D
S31502003B500DEE908A19EE103A19EE90EA0EF1010E68
S31502003B6040F2000918EE907A07F1A80703F103085C
S31502003B70B8EB070F40F32380BEF1400F80F21F809F
S31502003B8018EE903A08EE10CA09EE100A09EE901ADB
S31502003B900AEE102A0AEE90EA184640F201011DEEDC
S31502003BA0102A07F039FB18EE10CA19EE100A19EEA0
S31502003BB0901A1AEE102A1AEE90EA18EE903ABEF110
S31502003BC0400FFFF61FAFBDE8FF8F00BF2DE9FF4F85
S31502003BD046F6080B40F6015A4FF2013CC6F6A83CDF
S31502003BE040F20009DDF83440DDF838700DEE107A47
S31502003BF0DDF83C700DEE907A40F2000E08EE903A37
S31502003C0033F8025B13F8016BC5F3033747EA06166E
S31502003C10C5F30B05C6F30B06B5EB0A0F80F054800D
S31502003C2022F8025B09F10109B9F1040F40F04C8058
S31502003C30A2F1080209EE103A09EE90EA0AEE106ABB
S31502003C401DEE908A51F8043BD2F80090076854F8AA
S31502003C5004EB3EFB13F515FB0AB5C3EA050548F866
S31502003C60045B15FB397513FB095740F8047BD0F842
S31502003C70007023FB197740F8047BCEF1000E51F851
S31502003C80043BD2F8049007683EFB13F515FB0AB510
S31502003C90C3EA050548F8045B15FB397513FB09579A
S31502003CA040F8047BD0F8007023FB197740F8047BB8
S31502003CB00DEE908A19EE103A19EE90EA1AEE106A93
S31502003CC00EF1010E40F20009B6EB0A0F80F05480A5
S31502003CD0BEF1400F80F2508022F8026B09F1010911
S31502003CE0B9F1040F40F04880A2F1080209EE103A39
S31502003CF009EE90EA1DEE908A51F8043BD2F8009044
S31502003D00076854F804EB3EFB13F515FB0AB5C3EA44
S31502003D10050548F8045B15FB397513FB095740F88E
S31502003D20047BD0F8007023FB197740F8047BCEF1B0
S31502003D30000E51F8043BD2F8049007683EFB13F5D7
S31502003D4015FB0AB5C3EA050548F8045B15FB397588
S31502003D5013FB095740F8047BD0F8007023FB197750
S31502003D6040F8047B0DEE908A19EE103A19EE90EAAD
S31502003D700EF1010E40F2000918EE907A07F1A8073B
S31502003D8003F10308B8EB070F40F32380BEF1400F9F
S31502003D9080F21F8018EE903A08EE10CA09EE100A59
S31502003DA009EE901A0AEE102A0AEE90EA184640F236
S31502003DB001011DEE102A07F02FFA18EE10CA19EEAD
S31502003DC0100A19EE901A1AEE102A1AEE90EA18EE56
S31502003DD0903ABEF1400FFFF613AFBDE8FF8F00BF6A
S31502003DE02DE9FF4F46F6080B40F6015A4FF2013C09
S31502003DF0C6F6A83C40F20009DDF83440DDF838701A
S31502003E000DEE107ADDF83C700DEE907A0EEE100A89
S31502003E100EEE900ADDF8400040F2000E08EE903AEF
S31502003E2033F8025B13F8016BC5F3033747EA06164C
S31502003E30C5F30B05C6F30B06B5EB0A0F80F06A80D5
S31502003E4022F8025B09F10109B9F1040F40F0628020
S31502003E50A2F1080209EE103A09EE90EA0AEE106A99
S31502003E601DEE908A51F8043BD2F8009050F8047B7C
S31502003E7054F804EB3EFB13F515FB0AB5C3EA050538
S31502003E8048F8045B15FB397513FB095606FB0CF65D
S31502003E9016FB2AB650F8045B23FB195505FB0CF5F5
S31502003EA015FB2AB5C5EA26471EEE106A46F8047BBC
S31502003EB0CEF1000E51F8043BD2F804903EFB13F506
S31502003EC015FB0AB5C3EA050550F8047B48F8045BFE
S31502003ED015FB397513FB095505FB0CF515FB2AB5C0
S31502003EE050F8047B23FB197707FB0CF717FB2AB75D
S31502003EF0C7EA254746F8047B0EEE106A0DEE908A55
S31502003F0019EE103A19EE90EA1AEE106A0EF1010E47
S31502003F1040F20009B6EB0A0F80F06A80BEF1400F4C
S31502003F2080F2668022F8026B09F10109B9F1040FE9
S31502003F3040F05E80A2F1080209EE103A09EE90EA1C
S31502003F401DEE908A51F8043BD2F8009050F8047B9B
S31502003F5054F804EB3EFB13F515FB0AB5C3EA050557
S31502003F6048F8045B15FB397513FB095606FB0CF67C
S31502003F7016FB2AB650F8045B23FB195505FB0CF514
S31502003F8015FB2AB5C5EA26471EEE106A46F8047BDB
S31502003F90CEF1000E51F8043BD2F804903EFB13F525
S31502003FA015FB0AB5C3EA050550F8047B48F8045B1D
S31502003FB015FB397513FB095505FB0CF515FB2AB5DF
S31502003FC050F8047B23FB197707FB0CF717FB2AB77C
S31502003FD0C7EA254746F8047B0EEE106A0DEE908A74
S31502003FE019EE103A19EE90EA0EF1010E40F20009AE
S31502003FF018EE907A07F1A80703F10308B8EB070F4A
S3150200400040F32380BEF1400F80F21F8018EE903AF3
S3150200401008EE10CA09EE100A09EE901A0AEE102AE4
S315020040200AEE90EA184640F201011DEE102A07F048
S31502004030F3F818EE10CA19EE100A19EE901A1AEED3
S31502004040102A1AEE90EA18EE903ABEF1400FFFF6E9
S31502004050E7AE1EEE900ABDE8FF8F00BF2DE9FF4FC7
S3150200406046F6080B40F6015A4FF2013CC6F6A83C4A
S3150200407040F20009DDF834700DEE107ADDF8387082
S315020040800DEE907A40F2000E08EE903A33F8025B9B
S3150200409013F8016BC5F3033747EA0616C5F30B059A
S315020040A0C6F30B06B5EB0A0F80F03A8022F8025BE4
S315020040B009F10109B9F1040F40F03280A2F10802B8
S315020040C009EE103A09EE90EA0AEE106A1DEE908A9F
S315020040D051F8043BD2F8009051F8045BD2F8046020
S315020040E058F804EB2EFB09F723FB19F440F8047B7E
S315020040F040F8044B58F8047B27FB06FE25FB16F412
S3150200410040F804EB40F8044B0DEE908A19EE103A93
S3150200411019EE90EA1AEE106A0EF1010E40F200094B
S31502004120B6EB0A0F80F03A80BEF1400F80F236807D
S3150200413022F8026B09F10109B9F1040F40F02E8051
S31502004140A2F1080209EE103A09EE90EA1DEE908AF3
S3150200415051F8043BD2F8009051F8045BD2F804609F
S3150200416058F804EB2EFB09F723FB19F440F8047BFD
S3150200417040F8044B58F8047B27FB06FE25FB16F491
S3150200418040F804EB40F8044B0DEE908A19EE103A13
S3150200419019EE90EA0EF1010E40F2000918EE907A3D
S315020041A007F1A80703F10308B8EB070F40F32380D2
S315020041B0BEF1400F80F21F8018EE903A08EE10CA48
S315020041C009EE100A09EE901A0AEE102A0AEE90EA91
S315020041D0184640F201011DEE102A07F01DF818EEEE
S315020041E010CA19EE100A19EE901A1AEE102A1AEED1
S315020041F090EA18EE903ABEF1400FFFF647AFBDE8DF
S31502004200FF8F00BF2DE9FF4F46F6080B40F6015A15
S315020042104FF2013CC6F6A83C40F20009DDF83470C4
S315020042200DEE107ADDF838700DEE907A40F2000E3F
S3150200423008EE903A33F8025B13F8016BC5F30337C5
S3150200424047EA0616C5F30B05C6F30B06B5EB0A0FCE
S3150200425080F0418022F8025B09F10109B9F1040FED
S3150200426040F03980A2F1080209EE103A09EE90EA0E
S315020042700AEE106A1DEE908A51F8043BD2F80090BD
S3150200428051F8045BD2F80460D0F80070D0F804E06C
S3150200429058F8044B24FB097723FB19EEC0F804E017
S315020042A040F8087B58F8044B0768D0F804E024FB72
S315020042B0067725FB16EEC0F804E040F8087B0DEE03
S315020042C0908A19EE103A19EE90EA1AEE106A0EF179
S315020042D0010E40F20009B6EB0A0F80F04180BEF1F2
S315020042E0400F80F23D8022F8026B09F10109B9F113
S315020042F0040F40F03580A2F1080209EE103A09EEE9
S3150200430090EA1DEE908A51F8043BD2F8009051F8DB
S31502004310045BD2F80460D0F80070D0F804E058F8D4
S31502004320044B24FB097723FB19EEC0F804E040F89E
S31502004330087B58F8044B0768D0F804E024FB06779C
S3150200434025FB16EEC0F804E040F8087B0DEE908AD5
S3150200435019EE103A19EE90EA0EF1010E40F200093A
S3150200436018EE907A07F1A80703F10308B8EB070FD6
S3150200437040F32380BEF1400F80F21F8018EE903A80
S3150200438008EE10CA09EE100A09EE901A0AEE102A71
S315020043900AEE90EA184640F201011DEE102A06F0D6
S315020043A03BFF18EE10CA19EE100A19EE901A1AEE11
S315020043B0102A1AEE90EA18EE903ABEF1400FFFF676
S315020043C039AFBDE8FF8F00BF2DE9FF4F46F6080B58
S315020043D040F6015A4FF2013CC6F6A83C40F20009EB
S315020043E0DDF834700DEE107ADDF838700DEE907A45
S315020043F00EEE100A0EEE900ADDF83C0040F2000EB8
S3150200440008EE903A33F8025B13F8016BC5F30337F3
S3150200441047EA0616C5F30B05C6F30B06B5EB0A0FFC
S3150200442080F0568022F8025B09F10109B9F1040F06
S3150200443040F04E80A2F1080209EE103A09EE90EA27
S315020044400AEE106A1DEE908A51F8043BD2F80090EB
S3150200445051F8045BD2F80460D0F804E050F8087B07
S3150200446058F8044B24FB097707FB0CF717FB2AB70E
S3150200447023FB19EE0EFB0CFE1EFB2ABECEEA2747D5
S315020044801EEE103A43F8047B58F8044BD0F804E0C9
S3150200449050F8087B24FB067707FB0CF717FB2AB7B5
S315020044A025FB16EE0EFB0CFE1EFB2ABECEEA2747A6
S315020044B043F8047B0EEE103A0DEE908A19EE103A8E
S315020044C019EE90EA1AEE106A0EF1010E40F2000998
S315020044D0B6EB0A0F80F05680BEF1400F80F2528092
S315020044E022F8026B09F10109B9F1040F40F04A8082
S315020044F0A2F1080209EE103A09EE90EA1DEE908A40
S3150200450051F8043BD2F8009051F8045BD2F80460EB
S31502004510D0F804E050F8087B58F8044B24FB0977DE
S3150200452007FB0CF717FB2AB723FB19EE0EFB0CFE53
S315020045301EFB2ABECEEA27471EEE103A43F8047B3C
S3150200454058F8044BD0F804E050F8087B24FB0677B1
S3150200455007FB0CF717FB2AB725FB16EE0EFB0CFE24
S315020045601EFB2ABECEEA274743F8047B0EEE103A1C
S315020045700DEE908A19EE103A19EE90EA0EF1010E3E
S3150200458040F2000918EE907A07F1A80703F1030832
S31502004590B8EB070F40F32380BEF1400F80F21F8075
S315020045A018EE903A08EE10CA09EE100A09EE901AB1
S315020045B00AEE102A0AEE90EA184640F201011DEEB2
S315020045C0102A06F029FE18EE10CA19EE100A19EE84
S315020045D0901A1AEE102A1AEE90EA18EE903ABEF1E6
S315020045E0400FFFF60FAF1EEE900ABDE8FF8F00BF29
S315020045F02DE9F041074690B000F500764FF0040E23
S315020046003C46E8464EF001E007F14005C446206804
S315020046106168A268E36808F11008ACE80F0010347C
S315020046200FF00DC0EC46384600244FF0040E024649
S3150200463000234EF001E05CF82310043342F8041B19
S315020046400FF007C80134042C00F110000CF1040C21
S31502004650EBD1B5422F46D1D110B0BDE8F08100BFF3
S315020046602DE9F04F46F6080AC0F601594FF2013B12
S31502004670C6F6A83B00F5806E53F804CB92F80260AA
S31502004680B2F8037092F8058032F8064BC4F303358C
S31502004690C4F30B0445EA061544EA0544C7F3033599
S315020046A0C7F30B0645EA081546EA054551F8046BB9
S315020046B051F8047B3CFB14F818FB19A816FB38F8D2
S315020046C016FB048840F8048B26FB14F840F8048B8A
S315020046D0CCF1000C3CFB15F818FB19A817FB38F8AF
S315020046E017FB058840F8048B27FB15F840F8048B66
S315020046F0B0EB0E0F7FF4C0AFBDE8F08F2DE9F04F9F
S3150200470046F6080AC0F601594FF2013BC6F6A83B27
S3150200471000F5806E53F804CB92F80260B2F803708B
S3150200472092F8058032F8064BC4F30335C4F30B0442
S3150200473045EA061544EA0544C7F30335C7F30B06F3
S3150200474045EA081546EA054551F8048B06683CFB1E
S3150200475014F717FB19A718FB376718FB047740F8FD
S31502004760047B066828FB146740F8047BCCF1000C36
S3150200477051F8048B06683CFB15F717FB19A718FBC3
S31502004780376718FB057740F8047B066828FB156730
S3150200479040F8047BB0EB0E0F7FF4BCAFBDE8F08FA0
S315020047A02DE9F04F46F6080AC0F601594FF2013BD1
S315020047B0C6F6A83BDDF8246000EE906A06F5806E28
S315020047C053F804CB92F80260B2F8037092F80580AF
S315020047D032F8064BC4F30335C4F30B0445EA061557
S315020047E044EA0544C7F30335C7F30B0645EA081541
S315020047F046EA054501EE103A10EE903A51F8048B5E
S3150200480053F8046B3CFB14F717FB19A718FB376721
S3150200481018FB047707FB0BF717FB39A753F8046B52
S3150200482028FB146606FB0BF616FB39A6C6EA2746D4
S3150200483040F8046BCCF1000C51F8048B53F8046B6E
S315020048403CFB15F717FB19A718FB376718FB05770B
S3150200485007FB0BF717FB39A753F8046B28FB156602
S3150200486006FB0BF616FB39A6C6EA274640F8046B8A
S3150200487000EE903AB3EB0E0F11EE103A7FF4A0AFB2
S31502004880BDE8F08F2DE9F04F44F6BF6A40F6015BB2
S3150200489040F2100990E8FE0111FB0AFC11FB2AFE08
S315020048A04FEAAC6C4FEAAE6E1CFB0BFC1EFB0BFE1A
S315020048B0CCEA0E4CD1FA4CF112FB0AFC12FB2AFE90
S315020048C04FEAAC6C4FEAAE6E1CFB0BFC1EFB0BFEFA
S315020048D0CCEA0E4CD2FA4CF213FB0AFC13FB2AFE6C
S315020048E04FEAAC6C4FEAAE6E1CFB0BFC1EFB0BFEDA
S315020048F0CCEA0E4CD3FA4CF314FB0AFC14FB2AFE48
S315020049004FEAAC6C4FEAAE6E1CFB0BFC1EFB0BFEB9
S31502004910CCEA0E4CD4FA4CF415FB0AFC15FB2AFE23
S315020049204FEAAC6C4FEAAE6E1CFB0BFC1EFB0BFE99
S31502004930CCEA0E4CD5FA4CF516FB0AFC16FB2AFEFF
S315020049404FEAAC6C4FEAAE6E1CFB0BFC1EFB0BFE79
S31502004950CCEA0E4CD6FA4CF617FB0AFC17FB2AFEDB
S315020049604FEAAC6C4FEAAE6E1CFB0BFC1EFB0BFE59
S31502004970CCEA0E4CD7FA4CF718FB0AFC18FB2AFEB7
S315020049804FEAAC6C4FEAAE6E1CFB0BFC1EFB0BFE39
S31502004990CCEA0E4CD8FA4CF8A0E8FE01B9F10109AE
S315020049A07FF478AFBDE8F08F2DE9F04F46F6080C9C
S315020049B0C0F6015B44F6AC7AC9F2F47A40F2100909
S315020049C090E8FE013AFB01FE3AFB11F11EFB1BCEFB
S315020049D011FB1BC1C1EA2E413AFB02FE3AFB12F25F
S315020049E01EFB1BCE12FB1BC2C2EA2E423AFB03FE81
S315020049F03AFB13F31EFB1BCE13FB1BC3C3EA2E4368
S31502004A003AFB04FE3AFB14F41EFB1BCE14FB1BC43A
S31502004A10C4EA2E443AFB05FE3AFB15F51EFB1BCEF5
S31502004A2015FB1BC5C5EA2E453AFB06FE3AFB16F6F2
S31502004A301EFB1BCE16FB1BC6C6EA2E463AFB07FE1C
S31502004A403AFB17F71EFB1BCE17FB1BC7C7EA2E47FF
S31502004A503AFB08FE3AFB18F81EFB1BCE18FB1BC8D6
S31502004A60C8EA2E48A0E8FE01B9F101097FF4A8AF11
S31502004A70BDE8F08F0000000000000000000000000A
S31502004A80000000000000000000000000000000001E
S31502004A90000000000000000000000000000000000E
S31502004AA000000000000000000000000000000000FE
S31502004AB000000000000000000000000000000000EE
S31502004AC000000000000000000000000000000000DE
S31502004AD000000000000000000000000000000000CE
S31502004AE000000000000000000000000000000000BE
S31502004AF000000000000000000000000000000000AE
S31502004B00000000000000000000000000000000009D
S31502004B10000000000000000000000000000000008D
S31502004B20000000000000000000000000000000007D
S31502004B30000000000000000000000000000000006D
S31502004B40704700BFAFF30080AFF30080AFF3008081
S31502004B50AFF30080AFF30080AFF30080AFF30080C5
S31502004B60AFF30080AFF30080AFF30080AFF30080B5
S31502004B70AFF30080AFF30080AFF30080AFF30080A5
S31502004B80000000000000000000000000000000001D
S31502004B90000000000000000000000000000000000D
S31502004BA000000000000000000000000000000000FD
S31502004BB000000000000000000000000000000000ED
S31502004BC000000000000000000000000000000000DD
S31502004BD000000000000000000000000000000000CD
S31502004BE000000000000000000000000000000000BD
S31502004BF000000000000000000000000000000000AD
S31502004C00000000000000000000000000000000009C
S31502004C10000000000000000000000000000000008C
S31502004C20000000000000000000000000000000007C
S31502004C30000000000000000000000000000000006C
S31502004C4003B32DE9F04122F00704001912F007021E
S31502004C500BD01C00C2F10805AC4200DD2C00A3EB10
S31502004C600408230000F0ECF84346DA0804D098461C
S31502004C7000F066F808F0070313B1002200F0E0F82E
S31502004C80BDE8F081704700BFAFF30080AFF300804C
S31502004C90AFF30080AFF30080AFF30080AFF3008084
S31502004CA0AFF30080AFF30080AFF30080AFF3008074
S31502004CB0AFF30080AFF30080AFF30080AFF3008064
S31502004CC000000000000000000000000000000000DC
S31502004CD000000000000000000000000000000000CC
S31502004CE000000000000000000000000000000000BC
S31502004CF000000000000000000000000000000000AC
S31502004D00000000000000000000000000000000009B
S31502004D10000000000000000000000000000000008B
S31502004D20000000000000000000000000000000007B
S31502004D30000000000000000000000000000000006B
S31502004D4051F8044B51F8045BD0E9006704F055337F
S31502004D5043EA530303F0333343EA930303F00F3377
S31502004D6043EA131303F0FF1363F30F2386EA1326B2
S31502004D7005F0553343EA530303F0333343EA93030F
S31502004D8003F00F3343EA131303F0FF1343EA13232B
S31502004D9086EA034604F0AA3343EA430303F0CC331C
S31502004DA043EA830303F0F03343EA031303F0FF23DA
S31502004DB043EA032387EA134705F0AA3343EA430388
S31502004DC003F0CC3343EA830303F0F03343EA0313DD
S31502004DD003F0FF2343EA03236FF30F035F40E0E888
S31502004DE00267013AACD17047AFF30080AFF300809F
S31502004DF0AFF30080AFF30080AFF30080AFF3008023
S31502004E00000000000000000000000000000000009A
S31502004E10000000000000000000000000000000008A
S31502004E20000000000000000000000000000000007A
S31502004E30000000000000000000000000000000006A
S31502004E400024002530B46A4411F8015B02F8015BC4
S31502004E50013BF9D130BCD0E9006704F0553343EA8F
S31502004E60530303F0333343EA930303F00F3343EA66
S31502004E70131303F0FF1363F30F2386EA132605F0D9
S31502004E80553343EA530303F0333343EA930303F000
S31502004E900F3343EA131303F0FF1343EA132386EA9D
S31502004EA0034604F0AA3343EA430303F0CC3343EA4E
S31502004EB0830303F0F03343EA031303F0FF2343EAC9
S31502004EC0032387EA134705F0AA3343EA430303F0B1
S31502004ED0CC3343EA830303F0F03343EA031303F0CC
S31502004EE0FF2343EA03236FF30F035F40E0E8026701
S31502004EF0704700BFAFF30080AFF30080AFF30080CE
S31502004F000000000000000000000000000000000099
S31502004F100000000000000000000000000000000089
S31502004F200000000000000000000000000000000079
S31502004F300000000000000000000000000000000069
S31502004F4003B32DE9F04122F00704001912F007021B
S31502004F500BD01C00C2F10805AC4200DD2C00A3EB0D
S31502004F600408230000F0ECF84346DA0804D0984619
S31502004F7000F066F808F0070313B1002200F0E0F82B
S31502004F80BDE8F081704700BFAFF30080AFF3008049
S31502004F90AFF30080AFF30080AFF30080AFF3008081
S31502004FA0AFF30080AFF30080AFF30080AFF3008071
S31502004FB0AFF30080AFF30080AFF30080AFF3008061
S31502004FC000000000000000000000000000000000D9
S31502004FD000000000000000000000000000000000C9
S31502004FE000000000000000000000000000000000B9
S31502004FF000000000000000000000000000000000A9
S315020050000000000000000000000000000000000098
S315020050100000000000000000000000000000000088
S315020050200000000000000000000000000000000078
S315020050300000000000000000000000000000000068
S31502005040F0E80245230065F31F446FF30F0545EAB6
S31502005050134584EA142303F47F435C4084EA032461
S3150200506084EA141303F0F0135C4084EA031484EA1E
S31502005070940303F00C335C4084EA830484EA540309
S3150200508003F022335C4084EA430485EA152303F4E1
S315020050907F435D4085EA032585EA151303F0F01385
S315020050A05D4085EA031585EA950303F00C335D40FE
S315020050B085EA830585EA550303F022335D4085EAD6
S315020050C0430541F8044B013A41F8045BB8D17047F5
S315020050D0AFF30080AFF30080AFF30080AFF3008040
S315020050E0AFF30080AFF30080AFF30080AFF3008030
S315020050F0AFF30080AFF30080AFF30080AFF3008020
S315020051000000000000000000000000000000000097
S315020051100000000000000000000000000000000087
S315020051200000000000000000000000000000000077
S315020051300000000000000000000000000000000067
S31502005140F0E80245260065F31F446FF30F0545EAB2
S31502005150164584EA142606F47F46744084EA062439
S3150200516084EA141606F0F016744084EA061484EAF9
S31502005170940606F00C36744084EA860484EA5406E1
S3150200518006F02236744084EA460485EA152606F4B9
S315020051907F46754085EA062585EA151606F0F0165D
S315020051A0754085EA061585EA950606F00C367540C1
S315020051B085EA860585EA550606F02236754085EAB1
S315020051C0460530B46A4412F8014B013B01F8014B23
S315020051D0F9D102B0704700BFAFF30080AFF3008091
S315020051E0AFF30080AFF30080AFF30080AFF300802F
S315020051F0AFF30080AFF30080AFF30080AFF300801F
S315020052000000000000000000000000000000000096
S315020052100000000000000000000000000000000086
S315020052200000000000000000000000000000000076
S315020052300000000000000000000000000000000066
S3150200524001000000000000000000000089000000CC
S31502005250000000008B0000800000000080800080BB
S31502005260010000008B000000010000000080000029
S31502005270010000008880008001000000820000809A
S31502005280000000000B000000000000000A00000001
S315020052900100000082800000000000000380000080
S315020052A0010000008B800000010000000B0000805E
S315020052B0010000008A0000800100000081000080D9
S315020052C0000000008100008000000000080000804D
S315020052D00000000083000000000000000380008040
S315020052E00100000088800080000000008800008025
S315020052F001000000008000000000000082800080A3
S31502005300FF000000AFF30080AFF30080AFF3008030
S31502005310AFF30080AFF30080AFF30080AFF30080FD
S31502005320AFF30080AFF30080AFF30080AFF30080ED
S31502005330AFF30080AFF30080AFF30080AFF30080DD
S31502005340AFF204112DE9F05F86B00591D0F8203056
S31502005350D0F84810D0F87050D0F898B0D0F8C0C045
S3150200536083EA010383EA050383EA0B0383EA0C0358
S31502005370D0F80C70D0F83410D0F85C50D0F884B065
S31502005380D0F8ACC087EA010787EA050787EA0B0768
S3150200539087EA0C0783EAF776D0F81440D0F83C1077
S315020053A0D0F86450D0F88CB0D0F8B4C0CDF8006014
S315020053B084EA010484EA050484EA0B0484EA0C0400
S315020053C083EA0406D0F81830D0F84010D0F86850B6
S315020053D0D0F890B0D0F8B8C0CDF80C6083EA0103DB
S315020053E083EA050383EA0B0383EA0C0387EA0302D3
S315020053F0D0F80070D0F82810D0F85050D0F878B015
S31502005400D0F8A0C087EA010787EA050787EA0B07F3
S3150200541087EA0C0787EAF47AD0F81C40D0F84410E1
S31502005420D0F86C50D0F894B0D0F8BCC084EA01042D
S3150200543084EA050484EA0B0484EA0C0484EA070E6F
S31502005440D0F80870D0F83010D0F85850D0F880B0A4
S31502005450D0F8A8C087EA010787EA050787EA0B079B
S3150200546087EA0C0787EAF476D0F82440D0F84C1085
S31502005470D0F87450D0F89CB0D0F8C4C0CDF8106003
S3150200548084EA010484EA050484EA0B0484EA0C042F
S3150200549084EA0708D0F81070D0F83810D0F86050B7
S315020054A0D0F888B0D0F8B0C0CDF8048087EA0107FA
S315020054B087EA050787EA0B0787EA0C0787EAF47982
S315020054C0D0F80440D0F82C10D0F85450D0F87CB064
S315020054D0D0F8A4C0CDF8089084EA010484EA050451
S315020054E084EA0B0484EA0C0484EA070B83EAF47C5C
S315020054F0D0F81830D0F84840D0F85450D0F884602C
S31502005500D0F8B470C0F8541089EA03038CEA040494
