S02B0000433A5C55736572735C636E73636A5C65325F73747564696F5C776F726B73706163655C626C696E6BFB
S31502000000000C0022B96D00020D730002B56D0002EC
S31502000010B56D0002B56D0002B56D0002B56D000248
S31502000020000000000000000000000000B56D0002A4
S31502000030B56D000200000000B56D0002B56D00024C
S3150200004000000000000000000000000000000000A8
S315020000500000000000000000000000000000000098
S315020000600000000000000000000000000000000088
S315020000700000000000000000000000000000000078
S315020000800000000000000000000000000000000068
S315020000900000000000000000000000000000000058
S315020000A00000000000000000000000000000000048
S315020000B00000000000000000000000000000000038
S315020000C00000000000000000000000000000000028
S315020000D00000000000000000000000000000000018
S315020000E00000000000000000000000000000000008
S315020000F000000000000000000000000000000000F8
S3150200010000000000000000000000000000000000E7
S3150200011000000000000000000000000000000000D7
S3150200012000000000000000000000000000000000C7
S3150200013000000000000000000000000000000000B7
S31502000140D8F81C00D9F81C4000194FF0000B4BEBF5
S315020001500B0B4FEA4B0B0BEBD07B13270BFB07FB6F
S3150200016020F00047B8E80F00B9E870044FF0010C20
S31502000170ECFB640BECFB651BECFB662BECFB6A3BB6
S3150200018099E8700098E80007ECFB684BECFB695BAA
S31502000190ECFB6A6B5F44704798E8FF00B9E8001D04
S315020001A0B0EB080071EB0A0172EB0B0273EB0C0366
S315020001B099E8000F74EB080475EB090576EB0A065D
S315020001C077EB0B0768EB080828F0250910EB090006
S315020001D051EB080152EB080253EB080354EB0804F7
S315020001E055EB080556EB080657EB080758F10008C9
S315020001F028F0250910EB090070472DE9004104F0AB
S3150200020091F8DDF80080B8F10108CDF80080F6D14A
S3150200021001B00DF1040888E8FF0000BD08688A688D
S31502000220CB680C694D698E69CF69496870470000D1
S315020002302DE9F14F9246FFF7F1FF20F0070047F054
S315020002408047FFB45FF000082DE904015146FFF72D
S31502000250E5FF27F00047FFB45FF00109A8FB08ABF2
S315020002604FF0000C2DE9001D2DE9001EFFB4A8FB7E
S3150200027008672DE9C01D2DE9C01D2DE9001EFE20CF
S31502000280002341091DF1A80252F8211000F01F04B3
S31502000290E14001F00101CDE928015940D1F1000EFA
S315020002A0684610A94FF0040B90E83C0091E8C003A1
S315020002B0724002EA0E0A96EA0A0672407B4003EA96
S315020002C00E0A97EA0A077B4094EA080404EA0E0A31
S315020002D098EA0A0894EA080495EA090505EA0E0A64
S315020002E099EA0A0995EA09053CC0A1E8C003BBF1EF
S315020002F0010BD9D1E8460DF12009FFF721FFFFB422
S3150200030004F010F8FFB40DF140080DF16009FFF793
S3150200031043FFFFB404F006F8FFB4694610AA03F0DF
S31502000320FFFF0DF1800888E8FF000DF14008E9465D
S31502000330FFF732FF0DF1400888E8FF00DFF848E2D8
S31502000340DDF81CC04FF0000BEEFB67CB4FEA4B0B00
S315020003500BEBDC7B13270BFB07FB2CF00047BDE8FE
S315020003600017EEFB608BEEFB619BEEFB62ABEEFBD6
S3150200037063CB07BCEEFB640BEEFB651BEEFB662B49
S315020003805F4401B087B42DE90017694610AA03F04D
S31502000390C7FF0DF1A00888E8FF000DF1C0080DF1B6
S315020003A0E009FFF7CDFE8DE8FF00694608AA03F0D3
S315020003B0B7FF0DF1200888E8FF000DF1C0080DF126
S315020003C0E009FFF7E9FE8DE8FF00694618AA03F087
S315020003D0A7FF8DE8FF00E8460DF12009FFF7B0FE02
S315020003E003F0A0FF0DF1C00888E8FF00E8460DF112
S315020003F02009FFF7D1FE03F095FF8DE8FF0069465D
S3150200040040AA03F08DFF0DF1E00888E8FF0020B056
S31502000410DDE92823501E7FF534AF08A8FFC803F094
S3150200042081FFFFB403F07EFF03F07CFFFFB418A93F
S315020004306A4603F075FF8DE8FF00694608AA03F0D5
S315020004406FFF0DF1200888E8FF0003F06BFFFFB491
S31502000450694608AA03F064FF0DF1200888E8FF0048
S315020004604FF00508FFF7C9FE694608AA03F058FFD0
S315020004700DF1200888E8FF005FF00A08FFF7BDFECD
S31502000480694608AA03F04CFF8DE8FF005FF01408E6
S3150200049088B0FFF7B2FE694608AA03F041FF08B02A
S315020004A05FF00A08FFF7A9FE694608AA03F038FFBB
S315020004B00DF1200888E8FF005FF03208FFF79DFE85
S315020004C0694608AA03F02CFF8DE8FF005FF0640876
S315020004D088B0FFF792FE694608AA03F021FF08B02A
S315020004E05FF03208FFF789FE694608AA03F018FF93
S315020004F05FF00508FFF781FE694610AA03F010FFB8
S315020005008DE8FF00694618AA03F00AFF4FEAD7787A
S315020005104FF0130908FB09F84FF0000A08F1130817
S3150200052010EB080851EB0A0852EB0A0853EB0A08CB
S3150200053054EB0A0855EB0A0856EB0A0857EB0A0869
S315020005405AEB0A0B4FEAD87848EA4B0808FB09F837
S31502000550DDF8289110EB0800C9F80000002041419F
S31502000560C9F8041049464241434144414541464186
S31502000570474127F000478A60CB600C614D618E616E
S31502000580CF614BB0BDE8F08F42DB01002DE9F04FA1
S3150200059040F2190EF8C9B2E8001FD3FA48F3D4FAAA
S315020005A049F4D5FA4AF5D6FA4BF6D7FA4CF7F8C01B
S315020005B0BEF1010E7FF4EEAF38C9B2E80007D3FAF6
S315020005C048F3D4FA49F4D5FA4AF538C0BDE8F08FB3
S315020005D02DE9F04F40F2190EF8C9B2E8001F93FA5E
S315020005E048F394FA49F495FA4AF596FA4BF697FACD
S315020005F04CF7F8C0BEF1010E7FF4EEAF38C9B2E88F
S31502000600000793FA48F394FA49F495FA4AF538C082
S31502000610BDE8F08F2DE9F04F40F2400E51F8044B41
S3150200062052F8046B51F8045B52F8047BD3F804B019
S3150200063053F808CB2CFB06FC40F804CB24FB16FC33
S3150200064040F804CB2BFB07FC40F804CB25FB17FC38
S3150200065040F804CBBEF1010E7FF4E0AFBDE8F08FA7
S315020006602DE9F04F40F2400E51F8044B52F8046B5C
S31502000670D0F8005053F804CBD0F804702CFB065C7B
S3150200068040F804CB24FB167B40F804BB51F8044B1C
S3150200069052F8046BD0F8005053F804CBD0F804702B
S315020006A02CFB065C40F804CB24FB167B40F804BB0B
S315020006B0BEF1010E7FF4D8AFBDE8F08F2DE9F04F01
S315020006C046F60809C0F601584FF2013AC6F6A83AAC
S315020006D0DDF824B040F2400E51F8044B52F8046B98
S315020006E05BF8045B53F804CB5BF8047B2CFB0655E2
S315020006F005FB0AF515FB389524FB167707FB0AF767
S3150200070017FB3897C7EA254540F8045B51F8044BB6
S3150200071052F8046B5BF8045B53F804CB5BF8047B7A
S315020007202CFB065505FB0AF515FB389524FB1677B7
S3150200073007FB0AF717FB3897C7EA254540F8045B1B
S31502000740BEF1010E7FF4C8AFBDE8F08F2DE9FF4F71
S3150200075046F6080B40F6015A4FF2013CC6F6A83C93
S3150200076040F20009DDF83440DDF838700DEE107AFB
S31502000770DDF83C700DEE907A40F2000E08EE903AEB
S3150200078033F8025B13F8016BC5F3033747EA061623
S31502000790C5F30B05C6F30B06B5EB0A0F80F04E80C8
S315020007A022F8025B09F10109B9F1040F40F0468013
S315020007B0A2F1080209EE103A09EE90EA0AEE106A70
S315020007C01DEE908A51F8043BD2F8009054F804EBDF
S315020007D03EFB13F515FB0AB5C3EA050548F8045BAB
S315020007E015FB39F613FB096623FB19F5C0F804500D
S315020007F040F8086BCEF1000E51F8043BD2F8049093
S315020008003EFB13F515FB0AB5C3EA050548F8045B7A
S3150200081015FB39F613FB096623FB19F5C0F80450DC
S3150200082040F8086B0DEE908A19EE103A19EE90EA2E
S315020008301AEE106A0EF1010E40F20009B6EB0A0F2B
S3150200084080F04E80BEF1400F80F24A8022F8026BA1
S3150200085009F10109B9F1040F40F04280A2F1080240
S3150200086009EE103A09EE90EA1DEE908A51F8043B21
S31502000870D2F8009054F804EB3EFB13F515FB0AB5CB
S31502000880C3EA050548F8045B15FB39F613FB09664E
S3150200089023FB19F5C0F8045040F8086BCEF1000EA0
S315020008A051F8043BD2F804903EFB13F515FB0AB54A
S315020008B0C3EA050548F8045B15FB39F613FB09661E
S315020008C023FB19F5C0F8045040F8086B0DEE908A28
S315020008D019EE103A19EE90EA0EF1010E40F20009F5
S315020008E018EE907A07F1A80703F10308B8EB070F91
S315020008F040F32380BEF1400F80F21F8018EE903A3B
S3150200090008EE10CA09EE100A09EE901A0AEE102A2B
S315020009100AEE90EA184640F201011DEE102A03F093
S3150200092007FE18EE10CA19EE100A19EE901A1AEE00
S31502000930102A1AEE90EA18EE903ABEF1400FFFF630
S315020009401FAFBDE8FF8F00BF2DE9FF4F46F6080B2C
S3150200095040F6015A4FF2013CC6F6A83C40F20009A5
S31502000960DDF83440DDF838700DEE107ADDF83C70B3
S315020009700DEE907A40F2000E08EE903A33F8025BE2
S3150200098013F8016BC5F3033747EA0616C5F30B05E1
S31502000990C6F30B06B5EB0A0F80F0548022F8025B11
S315020009A009F10109B9F1040F40F04C80A2F10802E5
S315020009B009EE103A09EE90EA0AEE106A1DEE908AE6
S315020009C051F8043BD2F80090076854F804EB3EFB5A
S315020009D013F515FB0AB5C3EA050548F8045B15FBD2
S315020009E0397513FB095740F8047BD0F8007023FBD6
S315020009F0197740F8047BCEF1000E51F8043BD2F889
S31502000A00049007683EFB13F515FB0AB5C3EA050514
S31502000A1048F8045B15FB397513FB095740F8047B4C
S31502000A20D0F8007023FB197740F8047B0DEE908A0C
S31502000A3019EE103A19EE90EA1AEE106A0EF1010E4C
S31502000A4040F20009B6EB0A0F80F05480BEF1400F67
S31502000A5080F2508022F8026B09F10109B9F1040F04
S31502000A6040F04880A2F1080209EE103A09EE90EA37
S31502000A701DEE908A51F8043BD2F80090076854F8AC
S31502000A8004EB3EFB13F515FB0AB5C3EA050548F868
S31502000A90045B15FB397513FB095740F8047BD0F844
S31502000AA0007023FB197740F8047BCEF1000E51F853
S31502000AB0043BD2F8049007683EFB13F515FB0AB512
S31502000AC0C3EA050548F8045B15FB397513FB09579C
S31502000AD040F8047BD0F8007023FB197740F8047BBA
S31502000AE00DEE908A19EE103A19EE90EA0EF1010E09
S31502000AF040F2000918EE907A07F1A80703F10308FD
S31502000B00B8EB070F40F32380BEF1400F80F21F803F
S31502000B1018EE903A08EE10CA09EE100A09EE901A7B
S31502000B200AEE102A0AEE90EA184640F201011DEE7C
S31502000B30102A03F0FDFC18EE10CA19EE100A19EE7F
S31502000B40901A1AEE102A1AEE90EA18EE903ABEF1B0
S31502000B50400FFFF613AFBDE8FF8F00BF2DE9FF4F31
S31502000B6046F6080B40F6015A4FF2013CC6F6A83C7F
S31502000B7040F20009DDF83440DDF838700DEE107AE7
S31502000B80DDF83C700DEE907A0EEE100A0EEE900A2B
S31502000B90DDF8400040F2000E08EE903A33F8025BB0
S31502000BA013F8016BC5F3033747EA0616C5F30B05BF
S31502000BB0C6F30B06B5EB0A0F80F06A8022F8025BD9
S31502000BC009F10109B9F1040F40F06280A2F10802AD
S31502000BD009EE103A09EE90EA0AEE106A1DEE908AC4
S31502000BE051F8043BD2F8009050F8047B54F804EB19
S31502000BF03EFB13F515FB0AB5C3EA050548F8045B87
S31502000C0015FB397513FB095606FB0CF616FB2AB6BD
S31502000C1050F8045B23FB195505FB0CF515FB2AB5A9
S31502000C20C5EA26471EEE106A46F8047BCEF1000E90
S31502000C3051F8043BD2F804903EFB13F515FB0AB5B6
S31502000C40C3EA050550F8047B48F8045B15FB3975C1
S31502000C5013FB095505FB0CF515FB2AB550F8047B69
S31502000C6023FB197707FB0CF717FB2AB7C7EA2547B9
S31502000C7046F8047B0EEE106A0DEE908A19EE103AD3
S31502000C8019EE90EA1AEE106A0EF1010E40F2000910
S31502000C90B6EB0A0F80F06A80BEF1400F80F26680E2
S31502000CA022F8026B09F10109B9F1040F40F05E80E6
S31502000CB0A2F1080209EE103A09EE90EA1DEE908AB8
S31502000CC051F8043BD2F8009050F8047B54F804EB38
S31502000CD03EFB13F515FB0AB5C3EA050548F8045BA6
S31502000CE015FB397513FB095606FB0CF616FB2AB6DD
S31502000CF050F8045B23FB195505FB0CF515FB2AB5C9
S31502000D00C5EA26471EEE106A46F8047BCEF1000EAF
S31502000D1051F8043BD2F804903EFB13F515FB0AB5D5
S31502000D20C3EA050550F8047B48F8045B15FB3975E0
S31502000D3013FB095505FB0CF515FB2AB550F8047B88
S31502000D4023FB197707FB0CF717FB2AB7C7EA2547D8
S31502000D5046F8047B0EEE106A0DEE908A19EE103AF2
S31502000D6019EE90EA0EF1010E40F2000918EE907AA1
S31502000D7007F1A80703F10308B8EB070F40F3238036
S31502000D80BEF1400F80F21F8018EE903A08EE10CAAC
S31502000D9009EE100A09EE901A0AEE102A0AEE90EAF5
S31502000DA0184640F201011DEE102A03F0C1FB18EEAF
S31502000DB010CA19EE100A19EE901A1AEE102A1AEE35
S31502000DC090EA18EE903ABEF1400FFFF6E7AE1EEE3D
S31502000DD0900ABDE8FF8F00BF2DE9FF4F46F6080BCC
S31502000DE040F6015A4FF2013CC6F6A83C40F2000911
S31502000DF0DDF834700DEE107ADDF838700DEE907A6B
S31502000E0040F2000E08EE903A33F8025B13F8016BDB
S31502000E10C5F3033747EA0616C5F30B05C6F30B06F9
S31502000E20B5EB0A0F80F03A8022F8025B09F101095C
S31502000E30B9F1040F40F03280A2F1080209EE103A2D
S31502000E4009EE90EA0AEE106A1DEE908A51F8043B0A
S31502000E50D2F8009051F8045BD2F8046058F804EB1B
S31502000E602EFB09F723FB19F440F8047B40F8044BE8
S31502000E7058F8047B27FB06FE25FB16F440F804EB24
S31502000E8040F8044B0DEE908A19EE103A19EE90EAEC
S31502000E901AEE106A0EF1010E40F20009B6EB0A0FC5
S31502000EA080F03A80BEF1400F80F2368022F8026B63
S31502000EB009F10109B9F1040F40F02E80A2F10802EE
S31502000EC009EE103A09EE90EA1DEE908A51F8043BBB
S31502000ED0D2F8009051F8045BD2F8046058F804EB9B
S31502000EE02EFB09F723FB19F440F8047B40F8044B68
S31502000EF058F8047B27FB06FE25FB16F440F804EBA4
S31502000F0040F8044B0DEE908A19EE103A19EE90EA6B
S31502000F100EF1010E40F2000918EE907A07F1A807C9
S31502000F2003F10308B8EB070F40F32380BEF1400F2D
S31502000F3080F21F8018EE903A08EE10CA09EE100AE7
S31502000F4009EE901A0AEE102A0AEE90EA184640F2C4
S31502000F5001011DEE102A03F0EBFA18EE10CA19EE83
S31502000F60100A19EE901A1AEE102A1AEE90EA18EEE4
S31502000F70903ABEF1400FFFF647AFBDE8FF8F00BFC4
S31502000F802DE9FF4F46F6080B40F6015A4FF2013C97
S31502000F90C6F6A83C40F20009DDF834700DEE107A70
S31502000FA0DDF838700DEE907A40F2000E08EE903AB7
S31502000FB033F8025B13F8016BC5F3033747EA0616EB
S31502000FC0C5F30B05C6F30B06B5EB0A0F80F041809D
S31502000FD022F8025B09F10109B9F1040F40F03980E8
S31502000FE0A2F1080209EE103A09EE90EA0AEE106A38
S31502000FF01DEE908A51F8043BD2F8009051F8045B3A
S31502001000D2F80460D0F80070D0F804E058F8044B27
S3150200101024FB097723FB19EEC0F804E040F8087BAD
S3150200102058F8044B0768D0F804E024FB067725FB42
S3150200103016EEC0F804E040F8087B0DEE908A19EE31
S31502001040103A19EE90EA1AEE106A0EF1010E40F20B
S315020010500009B6EB0A0F80F04180BEF1400F80F224
S315020010603D8022F8026B09F10109B9F1040F40F043
S315020010703580A2F1080209EE103A09EE90EA1DEE59
S31502001080908A51F8043BD2F8009051F8045BD2F8EA
S315020010900460D0F80070D0F804E058F8044B24FB42
S315020010A0097723FB19EEC0F804E040F8087B58F8EC
S315020010B0044B0768D0F804E024FB067725FB16EEFE
S315020010C0C0F804E040F8087B0DEE908A19EE103A5B
S315020010D019EE90EA0EF1010E40F2000918EE907A2E
S315020010E007F1A80703F10308B8EB070F40F32380C3
S315020010F0BEF1400F80F21F8018EE903A08EE10CA39
S3150200110009EE100A09EE901A0AEE102A0AEE90EA81
S31502001110184640F201011DEE102A03F009FA18EEF4
S3150200112010CA19EE100A19EE901A1AEE102A1AEEC1
S3150200113090EA18EE903ABEF1400FFFF639AFBDE8DD
S31502001140FF8F00BF2DE9FF4F46F6080B40F6015A06
S315020011504FF2013CC6F6A83C40F20009DDF83470B5
S315020011600DEE107ADDF838700DEE907A0EEE100A5A
S315020011700EEE900ADDF83C0040F2000E08EE903AC0
S3150200118033F8025B13F8016BC5F3033747EA061619
S31502001190C5F30B05C6F30B06B5EB0A0F80F05680B6
S315020011A022F8025B09F10109B9F1040F40F04E8001
S315020011B0A2F1080209EE103A09EE90EA0AEE106A66
S315020011C01DEE908A51F8043BD2F8009051F8045B68
S315020011D0D2F80460D0F804E050F8087B58F8044BC3
S315020011E024FB097707FB0CF717FB2AB723FB19EE3B
S315020011F00EFB0CFE1EFB2ABECEEA27471EEE103A57
S3150200120043F8047B58F8044BD0F804E050F8087B06
S3150200121024FB067707FB0CF717FB2AB725FB16EE0E
S315020012200EFB0CFE1EFB2ABECEEA274743F8047BC2
S315020012300EEE103A0DEE908A19EE103A19EE90EA79
S315020012401AEE106A0EF1010E40F20009B6EB0A0F11
S3150200125080F05680BEF1400F80F2528022F8026B77
S3150200126009F10109B9F1040F40F04A80A2F108021E
S3150200127009EE103A09EE90EA1DEE908A51F8043B07
S31502001280D2F8009051F8045BD2F80460D0F804E07A
S3150200129050F8087B58F8044B24FB097707FB0CF738
S315020012A017FB2AB723FB19EE0EFB0CFE1EFB2ABE0A
S315020012B0CEEA27471EEE103A43F8047B58F8044B51
S315020012C0D0F804E050F8087B24FB067707FB0CF7FE
S315020012D017FB2AB725FB16EE0EFB0CFE1EFB2ABEDB
S315020012E0CEEA274743F8047B0EEE103A0DEE908ABB
S315020012F019EE103A19EE90EA0EF1010E40F20009CB
S3150200130018EE907A07F1A80703F10308B8EB070F66
S3150200131040F32380BEF1400F80F21F8018EE903A10
S3150200132008EE10CA09EE100A09EE901A0AEE102A01
S315020013300AEE90EA184640F201011DEE102A03F069
S31502001340F7F818EE10CA19EE100A19EE901A1AEEEC
S31502001350102A1AEE90EA18EE903ABEF1400FFFF606
S315020013600FAF1EEE900ABDE8FF8F00BF2DE9F041D8
S31502001370074690B000F500764FF0040E3C46E8466C
S315020013804EF001E007F14005C44620686168A26894
S31502001390E36808F11008ACE80F0010340FF00DC036
S315020013A0EC46384600244FF0040E024600234EF067
S315020013B001E05CF82310043342F8041B0FF007C85F
S315020013C00134042C00F110000CF1040CEBD1B542EF
S315020013D02F46D1D110B0BDE8F08100BF2DE9F04F04
S315020013E046F6080AC0F601594FF2013BC6F6A83B7B
S315020013F000F5806E53F804CB92F80260B2F80370DF
S3150200140092F8058032F8064BC4F30335C4F30B0495
S3150200141045EA061544EA0544C7F30335C7F30B0646
S3150200142045EA081546EA054551F8046B51F8047B6E
S315020014303CFB14F818FB19A816FB38F816FB0488AF
S3150200144040F8048B26FB14F840F8048BCCF1000C10
S315020014503CFB15F818FB19A817FB38F817FB05888B
S3150200146040F8048B27FB15F840F8048BB0EB0E0FFF
S315020014707FF4C0AFBDE8F08F2DE9F04F46F6080ABB
S31502001480C0F601594FF2013BC6F6A83B00F5806E45
S3150200149053F804CB92F80260B2F8037092F8058012
S315020014A032F8064BC4F30335C4F30B0445EA0615BA
S315020014B044EA0544C7F30335C7F30B0645EA0815A4
S315020014C046EA054551F8048B06683CFB14F717FB00
S315020014D019A718FB376718FB047740F8047B0668E0
S315020014E028FB146740F8047BCCF1000C51F8048BFE
S315020014F006683CFB15F717FB19A718FB376718FB9D
S31502001500057740F8047B066828FB156740F8047BDC
S31502001510B0EB0E0F7FF4BCAFBDE8F08F2DE9F04FB4
S3150200152046F6080AC0F601594FF2013BC6F6A83B39
S31502001530DDF8246000EE906A06F5806E53F804CB5F
S3150200154092F80260B2F8037092F8058032F8064B00
S31502001550C4F30335C4F30B0445EA061544EA05440D
S31502001560C7F30335C7F30B0645EA081546EA0545F0
S3150200157001EE103A10EE903A51F8048B53F8046BD0
S315020015803CFB14F717FB19A718FB376718FB047700
S3150200159007FB0BF717FB39A753F8046B28FB1466F6
S315020015A006FB0BF616FB39A6C6EA274640F8046B7D
S315020015B0CCF1000C51F8048B53F8046B3CFB15F785
S315020015C017FB19A718FB376718FB057707FB0BF7FD
S315020015D017FB39A753F8046B28FB156606FB0BF6B7
S315020015E016FB39A6C6EA274640F8046B00EE903A87
S315020015F0B3EB0E0F11EE103A7FF4A0AFBDE8F08FF9
S315020016002DE9F04F44F6BF6A40F6015B40F210093D
S3150200161090E8FE0111FB0AFC11FB2AFE4FEAAC6CB4
S315020016204FEAAE6E1CFB0BFC1EFB0BFECCEA0E4C0D
S31502001630D1FA4CF112FB0AFC12FB2AFE4FEAAC6C01
S315020016404FEAAE6E1CFB0BFC1EFB0BFECCEA0E4CED
S31502001650D2FA4CF213FB0AFC13FB2AFE4FEAAC6CDD
S315020016604FEAAE6E1CFB0BFC1EFB0BFECCEA0E4CCD
S31502001670D3FA4CF314FB0AFC14FB2AFE4FEAAC6CB9
S315020016804FEAAE6E1CFB0BFC1EFB0BFECCEA0E4CAD
S31502001690D4FA4CF415FB0AFC15FB2AFE4FEAAC6C95
S315020016A04FEAAE6E1CFB0BFC1EFB0BFECCEA0E4C8D
S315020016B0D5FA4CF516FB0AFC16FB2AFE4FEAAC6C71
S315020016C04FEAAE6E1CFB0BFC1EFB0BFECCEA0E4C6D
S315020016D0D6FA4CF617FB0AFC17FB2AFE4FEAAC6C4D
S315020016E04FEAAE6E1CFB0BFC1EFB0BFECCEA0E4C4D
S315020016F0D7FA4CF718FB0AFC18FB2AFE4FEAAC6C29
S315020017004FEAAE6E1CFB0BFC1EFB0BFECCEA0E4C2C
S31502001710D8FA4CF8A0E8FE01B9F101097FF478AFD6
S31502001720BDE8F08F2DE9F04F46F6080CC0F6015BD6
S3150200173044F6AC7AC9F2F47A40F2100990E8FE0156
S315020017403AFB01FE3AFB11F11EFB1BCE11FB1BC13C
S31502001750C1EA2E413AFB02FE3AFB12F21EFB1BCEF7
S3150200176012FB1BC2C2EA2E423AFB03FE3AFB13F3FA
S315020017701EFB1BCE13FB1BC3C3EA2E433AFB04FE1E
S315020017803AFB14F41EFB1BCE14FB1BC4C4EA2E4404
S315020017903AFB05FE3AFB15F51EFB1BCE15FB1BC5D8
S315020017A0C5EA2E453AFB06FE3AFB16F61EFB1BCE93
S315020017B016FB1BC6C6EA2E463AFB07FE3AFB17F78E
S315020017C01EFB1BCE17FB1BC7C7EA2E473AFB08FEBA
S315020017D03AFB18F81EFB1BCE18FB1BC8C8EA2E489C
S315020017E0A0E8FE01B9F101097FF4A8AFBDE8F08FC8
S315020017F000000000000000000000000000000000E1
S3150200180000000000000000000000000000000000D0
S3150200181000000000000000000000000000000000C0
S3150200182000000000000000000000000000000000B0
S3150200183000000000000000000000000000000000A0
S31502001840704700BFAFF30080AFF30080AFF30080B4
S31502001850AFF30080AFF30080AFF30080AFF30080F8
S31502001860AFF30080AFF30080AFF30080AFF30080E8
S31502001870AFF30080AFF30080AFF30080AFF30080D8
S315020018800000000000000000000000000000000050
S315020018900000000000000000000000000000000040
S315020018A00000000000000000000000000000000030
S315020018B00000000000000000000000000000000020
S315020018C00000000000000000000000000000000010
S315020018D00000000000000000000000000000000000
S315020018E000000000000000000000000000000000F0
S315020018F000000000000000000000000000000000E0
S3150200190000000000000000000000000000000000CF
S3150200191000000000000000000000000000000000BF
S3150200192000000000000000000000000000000000AF
S31502001930000000000000000000000000000000009F
S3150200194003B32DE9F04122F00704001912F0070251
S315020019500BD01C00C2F10805AC4200DD2C00A3EB43
S315020019600408230000F0ECF84346DA0804D098464F
S3150200197000F066F808F0070313B1002200F0E0F861
S31502001980BDE8F081704700BFAFF30080AFF300807F
S31502001990AFF30080AFF30080AFF30080AFF30080B7
S315020019A0AFF30080AFF30080AFF30080AFF30080A7
S315020019B0AFF30080AFF30080AFF30080AFF3008097
S315020019C0000000000000000000000000000000000F
S315020019D000000000000000000000000000000000FF
S315020019E000000000000000000000000000000000EF
S315020019F000000000000000000000000000000000DF
S31502001A0000000000000000000000000000000000CE
S31502001A1000000000000000000000000000000000BE
S31502001A2000000000000000000000000000000000AE
S31502001A30000000000000000000000000000000009E
S31502001A4051F8044B51F8045BD0E9006704F05533B2
S31502001A5043EA530303F0333343EA930303F00F33AA
S31502001A6043EA131303F0FF1363F30F2386EA1326E5
S31502001A7005F0553343EA530303F0333343EA930342
S31502001A8003F00F3343EA131303F0FF1343EA13235E
S31502001A9086EA034604F0AA3343EA430303F0CC334F
S31502001AA043EA830303F0F03343EA031303F0FF230D
S31502001AB043EA032387EA134705F0AA3343EA4303BB
S31502001AC003F0CC3343EA830303F0F03343EA031310
S31502001AD003F0FF2343EA03236FF30F035F40E0E8BB
S31502001AE00267013AACD17047AFF30080AFF30080D2
S31502001AF0AFF30080AFF30080AFF30080AFF3008056
S31502001B0000000000000000000000000000000000CD
S31502001B1000000000000000000000000000000000BD
S31502001B2000000000000000000000000000000000AD
S31502001B30000000000000000000000000000000009D
S31502001B400024002530B46A4411F8015B02F8015BF7
S31502001B50013BF9D130BCD0E9006704F0553343EAC2
S31502001B60530303F0333343EA930303F00F3343EA99
S31502001B70131303F0FF1363F30F2386EA132605F00C
S31502001B80553343EA530303F0333343EA930303F033
S31502001B900F3343EA131303F0FF1343EA132386EAD0
S31502001BA0034604F0AA3343EA430303F0CC3343EA81
S31502001BB0830303F0F03343EA031303F0FF2343EAFC
S31502001BC0032387EA134705F0AA3343EA430303F0E4
S31502001BD0CC3343EA830303F0F03343EA031303F0FF
S31502001BE0FF2343EA03236FF30F035F40E0E8026734
S31502001BF0704700BFAFF30080AFF30080AFF3008001
S31502001C0000000000000000000000000000000000CC
S31502001C1000000000000000000000000000000000BC
S31502001C2000000000000000000000000000000000AC
S31502001C30000000000000000000000000000000009C
S31502001C4003B32DE9F04122F00704001912F007024E
S31502001C500BD01C00C2F10805AC4200DD2C00A3EB40
S31502001C600408230000F0ECF84346DA0804D098464C
S31502001C7000F066F808F0070313B1002200F0E0F85E
S31502001C80BDE8F081704700BFAFF30080AFF300807C
S31502001C90AFF30080AFF30080AFF30080AFF30080B4
S31502001CA0AFF30080AFF30080AFF30080AFF30080A4
S31502001CB0AFF30080AFF30080AFF30080AFF3008094
S31502001CC0000000000000000000000000000000000C
S31502001CD000000000000000000000000000000000FC
S31502001CE000000000000000000000000000000000EC
S31502001CF000000000000000000000000000000000DC
S31502001D0000000000000000000000000000000000CB
S31502001D1000000000000000000000000000000000BB
S31502001D2000000000000000000000000000000000AB
S31502001D30000000000000000000000000000000009B
S31502001D40F0E80245230065F31F446FF30F0545EAE9
S31502001D50134584EA142303F47F435C4084EA032494
S31502001D6084EA141303F0F0135C4084EA031484EA51
S31502001D70940303F00C335C4084EA830484EA54033C
S31502001D8003F022335C4084EA430485EA152303F414
S31502001D907F435D4085EA032585EA151303F0F013B8
S31502001DA05D4085EA031585EA950303F00C335D4031
S31502001DB085EA830585EA550303F022335D4085EA09
S31502001DC0430541F8044B013A41F8045BB8D1704728
S31502001DD0AFF30080AFF30080AFF30080AFF3008073
S31502001DE0AFF30080AFF30080AFF30080AFF3008063
S31502001DF0AFF30080AFF30080AFF30080AFF3008053
S31502001E0000000000000000000000000000000000CA
S31502001E1000000000000000000000000000000000BA
S31502001E2000000000000000000000000000000000AA
S31502001E30000000000000000000000000000000009A
S31502001E40F0E80245260065F31F446FF30F0545EAE5
S31502001E50164584EA142606F47F46744084EA06246C
S31502001E6084EA141606F0F016744084EA061484EA2C
S31502001E70940606F00C36744084EA860484EA540614
S31502001E8006F02236744084EA460485EA152606F4EC
S31502001E907F46754085EA062585EA151606F0F01690
S31502001EA0754085EA061585EA950606F00C367540F4
S31502001EB085EA860585EA550606F02236754085EAE4
S31502001EC0460530B46A4412F8014B013B01F8014B56
S31502001ED0F9D102B0704700BFAFF30080AFF30080C4
S31502001EE0AFF30080AFF30080AFF30080AFF3008062
S31502001EF0AFF30080AFF30080AFF30080AFF3008052
S31502001F0000000000000000000000000000000000C9
S31502001F1000000000000000000000000000000000B9
S31502001F2000000000000000000000000000000000A9
S31502001F300000000000000000000000000000000099
S31502001F4001000000000000000000000089000000FF
S31502001F50000000008B0000800000000080800080EE
S31502001F60010000008B00000001000000008000005C
S31502001F7001000000888000800100000082000080CD
S31502001F80000000000B000000000000000A00000034
S31502001F9001000000828000000000000003800000B3
S31502001FA0010000008B800000010000000B00008091
S31502001FB0010000008A00008001000000810000800C
S31502001FC00000000081000080000000000800008080
S31502001FD00000000083000000000000000380008073
S31502001FE00100000088800080000000008800008058
S31502001FF001000000008000000000000082800080D6
S31502002000FF000000AFF30080AFF30080AFF3008063
S31502002010AFF30080AFF30080AFF30080AFF3008030
S31502002020AFF30080AFF30080AFF30080AFF3008020
S31502002030AFF30080AFF30080AFF30080AFF3008010
S31502002040AFF204112DE9F05F86B00591D0F8203089
S31502002050D0F84810D0F87050D0F898B0D0F8C0C078
S3150200206083EA010383EA050383EA0B0383EA0C038B
S31502002070D0F80C70D0F83410D0F85C50D0F884B098
S31502002080D0F8ACC087EA010787EA050787EA0B079B
S3150200209087EA0C0783EAF776D0F81440D0F83C10AA
S315020020A0D0F86450D0F88CB0D0F8B4C0CDF8006047
S315020020B084EA010484EA050484EA0B0484EA0C0433
S315020020C083EA0406D0F81830D0F84010D0F86850E9
S315020020D0D0F890B0D0F8B8C0CDF80C6083EA01030E
S315020020E083EA050383EA0B0383EA0C0387EA030206
S315020020F0D0F80070D0F82810D0F85050D0F878B048
S31502002100D0F8A0C087EA010787EA050787EA0B0726
S3150200211087EA0C0787EAF47AD0F81C40D0F8441014
S31502002120D0F86C50D0F894B0D0F8BCC084EA010460
S3150200213084EA050484EA0B0484EA0C0484EA070EA2
S31502002140D0F80870D0F83010D0F85850D0F880B0D7
S31502002150D0F8A8C087EA010787EA050787EA0B07CE
S3150200216087EA0C0787EAF476D0F82440D0F84C10B8
S31502002170D0F87450D0F89CB0D0F8C4C0CDF8106036
S3150200218084EA010484EA050484EA0B0484EA0C0462
S3150200219084EA0708D0F81070D0F83810D0F86050EA
S315020021A0D0F888B0D0F8B0C0CDF8048087EA01072D
S315020021B087EA050787EA0B0787EA0C0787EAF479B5
S315020021C0D0F80440D0F82C10D0F85450D0F87CB097
S315020021D0D0F8A4C0CDF8089084EA010484EA050484
S315020021E084EA0B0484EA0C0484EA070B83EAF47C8F
S315020021F0D0F81830D0F84840D0F85450D0F884605F
S31502002200D0F8B470C0F8541089EA03038CEA0404C7
S3150200221088EA05058BEA060682EA070725EA34619B
S3150200222081EA3351C0F8541026EA755181EA7431B5
S31502002230C0F8841027EA362181EA7571C0F8B41015
S3150200224023EAF73181EAF651C0F8181024EA33710D
S3150200225081EAF721D0F80830D0F83C40D0F868502F
S31502002260D0F89C60D0F8A470C0F848108AEA03033C
S3150200227082EA040489EA05058EEA060688EA070761
S3150200228025EA742181EA3331C0F8A41026EA3561C1
S3150200229081EA7401C0F8081027EA761181EA75719D
S315020022A0C0F83C1023EAF75181EA3671C0F868108B
S315020022B024EAF30181EAB761DDF80080D0F8243020
S315020022C0D0F82840D0F85850D0F88C60D0F8B870C2
S315020022D0C0F89C108EEA030388EA04048AEA05051C
S315020022E082EA060689EA070725EAF44181EAF351FA
S315020022F0C0F8281026EAF50181EAB451C0F8581050
S3150200230027EA365181EAF551C0F88C1023EAB74123
S3150200231081EAB611C0F8B81024EA331181EAB7513E
S31502002320D0F81430D0F84040D0F87050D0F8786029
S31502002330D0F8AC70C0F8241082EA030389EA0404D8
S315020023408CEA050588EA06068BEA070725EA346160
S3150200235081EA3351C0F8781026EA750181EA746180
S31502002360C0F8AC1027EA763181EAB531C0F814100C
S3150200237023EAB77181EAF621C0F8401024EA3371E4
S3150200238081EAB761DDF80C90D0F80030046B456E37
S31502002390D0F89460D0F8C070C0F8701088EA0303D1
S315020023A08AEA040482EA050589EA06068CEA070730
S315020023B026EA755181EA7451C0F8301027EA36715F
S315020023C081EA7541C0F8641023EA776181EA7651A1
S315020023D0C0F8941024EAB35181EAF731C0F8C0106C
S315020023E025EA040505990C6883EAB52384EA030104
S315020023F0DDF81020D0F81C30D0F84C40D0F8505000
S31502002400D0F88060D0F8B070C0F8001089EA0303F3
S315020024108EEA040488EA05058AEA060682EA0707BE
S3150200242025EAF45181EAF341C0F8501026EA7551C3
S3150200243081EA3431C0F8801027EA362181EA7571C3
S31502002440C0F8B01023EA374181EA3661C0F81C10A1
S3150200245024EA337181EA3731D0F80C30D0F83840AB
S31502002460D0F86C50D0F89860D0F8A070C0F84C1034
S315020024708BEA030382EA040489EA05058CEA060666
S3150200248088EA070725EAB42181EA3331C0F8A010A9
S3150200249026EAF55181EA7401C0F80C1027EA761192
S315020024A081EA3571C0F8381023EA376181EA76711C
S315020024B0C0F86C1024EAB30181EAB761DDF8048042
S315020024C0D0F82030D0F82C40D0F85C50D0F8886094
S315020024D0D0F8BC70C0F898108CEA030388EA0404AA
S315020024E08BEA050582EA060689EA070725EAF44128
S315020024F081EA3361C0F82C1026EAB50181EA7451EB
S31502002500C0F85C1027EA765181EAF551C0F88810C6
S3150200251023EA774181EAB611C0F8BC1024EA7311A6
S3150200252081EAB751D0F81030D0F84440D0F8745050
S31502002530D0F87C60D0F8A870C0F8201082EA0303B5
S3150200254089EA04048EEA050588EA06068AEA070786
S3150200255025EA346181EA7351C0F87C1026EA7501D6
S3150200256081EA7461C0F8A81027EA363181EA75312A
S31502002570C0F8101023EAB77181EAB621C0F84410F8
S3150200258024EA737181EAF761DDF80890D0F8043025
S31502002590446B056ED0F89060D0F8C470C0F8741021
S315020025A088EA03038BEA040482EA050589EA060639
S315020025B08EEA070726EA755181EA3451C0F83410CB
S315020025C027EA767181EAB541C0F8601023EA77619D
S315020025D081EAB651C0F8901024EAB35181EAF73184
S315020025E0C0F8C41025EAF47505994C6883EAF52308
S315020025F084EA030ED0F8C030D0F84810D0F89850CC
S31502002600D0F824B0D0F874C0C0F804E083EA3133BD
S3150200261083EAF54383EA3B1383EABC63D0F834705A
S31502002620D0F88010D0F80850D0F85CB0D0F8ACC022
S3150200263087EA315787EAB51787EAFB0787EABC5765
S315020026404FEAB32383EA7756D0F86040D0F8B01049
S31502002650D0F83C50D0F888B0D0F814C0CDF800605D
S3150200266084EA712484EAB57484EAFB2484EABC14FD
S3150200267083EA7466D0F89430D0F81810D0F86C500B
S31502002680D0F8B8B0D0F844C0CDF80C6083EAB143B4
S3150200269083EAF57383EABB4383EA7C0383EAB75290
S315020026A0D0F80070D0F85410D0F8A050D0F828B066
S315020026B0D0F87CC087EAB17787EAF54787EAFB67F5
S315020026C087EA3C3787EA346AD0F89040D0F81C1083
S315020026D0D0F86850D0F8BCB0D0F840C084EAB14413
S315020026E084EA050484EAFB4484EA7C0484EA070E4D
S315020026F0D0F83070D0F88410D0F80C50D0F858B01A
S31502002700D0F8A8C087EA315787EAF51787EAFB07A8
S3150200271087EABC574FEA775787EAF476D0F8C4407F
S31502002720D0F84C10D0F89C50D0F820B0D0F870C039
S31502002730CDF8106084EA313484EAF54484EA3B1425
S3150200274084EAFC6487EAB428D0F86470D0F8B4103E
S31502002750D0F83850D0F88CB0D0F810C0CDF804803C
S3150200276087EA312787EAB57787EAFB2787EABC1724
S315020027704FEA776787EA7429D0F80440D0F85010F8
S31502002780D0F8A450D0F82CB0D0F878C0CDF8089084
S3150200279084EAF17484EA355484EAFB6484EA7C347C
S315020027A084EA070B83EAF47CD0F89430D0F84840E8
S315020027B0D0F8A450D0F85C60D0F81470C0F8A41019
S315020027C089EA03038CEAB45488EA35558BEA7666BD
S315020027D082EAF77725EA346181EA3351C0F8A41018
S315020027E026EA755181EA7431C0F85C1027EA36216F
S315020027F081EA7571C0F8141023EAF73181EAF651BD
S31502002800C0F8941024EA337181EAF721D0F8303007
S31502002810D0F8B040D0F86C50D0F82060D0F878707C
S31502002820C0F848108AEA735382EAB40489EAF57555
S315020028308EEAB63688EA773725EA742181EA333199
S31502002840C0F8781026EA356181EA7401C0F83010C2
S3150200285027EA761181EA7571C0F8B01023EAF751BA
S3150200286081EA3671C0F86C1024EAF30181EAB76195
S31502002870DDF80080D0F8C430D0F85440D0F80C50BF
S31502002880D0F88860D0F84470C0F820108EEAB323DE
S3150200289088EAB4748AEA357582EA361689EA7707CF
S315020028A025EAF44181EAF351C0F8541026EAF5010B
S315020028B081EAB451C0F80C1027EA365181EAF55183
S315020028C0C0F8881023EAB74181EAB611C0F844106D
S315020028D024EA331181EAB751D0F86030D0F81840B3
S315020028E0D0F89850D0F82860D0F8AC70C0F8C41070
S315020028F082EA736389EAB4448CEA757588EAF666F5
S315020029008BEA373725EA346181EA3351C0F8281059
S3150200291026EA750181EA7461C0F8AC1027EA7631BD
S3150200292081EAB531C0F8601023EAB77181EAF6216F
S31502002930C0F8181024EA337181EAB761DDF80C9009
S31502002940D0F80030D0F88440C56BD0F8BC60476F31
S31502002950C0F8981088EA03038AEA742482EAF555D5
S3150200296089EAF6468CEA371726EA755181EA7451E6
S31502002970C0F8841027EA367181EA7541C0F83C1026
S3150200298023EA776181EA7651C0F8BC1024EAB35192
S3150200299081EAF731C0F8741025EA040505998C68B6
S315020029A083EAB52384EA0301DDF81020D0F89030DB
S315020029B0D0F84C40D0F8A050D0F85860D0F810703B
S315020029C0C0F8001089EA03038EEAB45488EAF54592
S315020029D08AEA366682EAF77725EAF45181EAF34112
S315020029E0C0F8A01026EA755181EA3431C0F85810B1
S315020029F027EA362181EA7571C0F8101023EA3741B9
S31502002A0081EA3661C0F8901024EA337181EA3731DF
S31502002A10D0F83430D0F8B440D0F86850D0F82460FA
S31502002A20D0F87C70C0F84C108BEAB35382EA740477
S31502002A3089EA05058CEAB63688EA373725EAB421EB
S31502002A4081EA3331C0F87C1026EAF55181EA740135
S31502002A50C0F8341027EA761181EA3571C0F8B4104D
S31502002A6023EA376181EA7671C0F8681024EAB30175
S31502002A7081EAB761DDF80480D0F8C030D0F8504062
S31502002A80D0F80850D0F88C60D0F84070C0F8241006
S31502002A908CEAB32388EAF4748BEA357582EA361631
S31502002AA089EA770725EAF44181EA3361C0F85010D2
S31502002AB026EAB50181EA7451C0F8081027EA765170
S31502002AC081EAF551C0F88C1023EA774181EAB61102
S31502002AD0C0F8401024EA731181EAB751D0F8643085
S31502002AE0D0F81C40D0F89C50D0F82C60D0F8A870D2
S31502002AF0C0F8C01082EA736389EAB4448EEA757537
S31502002B0088EAF6668AEAF72725EA346181EA73518A
S31502002B10C0F82C1026EA750181EA7461C0F8A81083
S31502002B2027EA363181EA7531C0F8641023EAB771B3
S31502002B3081EAB621C0F81C1024EA737181EAF761B2
S31502002B40DDF80890D0F80430D0F88040856BD0F8D4
S31502002B50B860076FC0F89C1088EA03038BEAB424B6
S31502002B6082EAF55589EAB6468EEA771726EA75515C
S31502002B7081EA3451C0F8801027EA767181EAB541BC
S31502002B80C0F8381023EA776181EAB651C0F8B81066
S31502002B9024EAB35181EAF731C0F8701025EAF475D8
S31502002BA00599CC6883EAF52384EA030ED0F87430DB
S31502002BB0D0F84810D0F82450D0F8C4B0D0F89CC051
S31502002BC0C0F804E083EA313383EAF54383EA3B1330
S31502002BD083EABC63D0F88070D0F85810D0F8305031
S31502002BE0D0F808B0D0F8ACC087EA315787EAB517F3
S31502002BF087EAFB0787EABC574FEAB32383EA77568D
S31502002C00D0F83840D0F81010D0F8B050D0F88CB0C8
S31502002C10D0F860C0CDF8006084EA712484EAB57405
S31502002C2084EAFB2484EABC1483EA7466D0F8BC30D6
S31502002C30D0F89410D0F86850D0F844B0D0F81CC040
S31502002C40CDF80C6083EAB14383EAF57383EABB43AA
S31502002C5083EA7C0383EAB752D0F80070D0F8A41056
S31502002C60D0F87C50D0F854B0D0F82CC087EAB177AF
S31502002C7087EAF54787EAFB6787EA3C3787EA346AD9
S31502002C80D0F8B840D0F89010D0F86C50D0F840B0D8
S31502002C90D0F818C084EAB14484EA050484EAFB4405
S31502002CA084EA7C0484EA070ED0F88470D0F85C10BB
S31502002CB0D0F83450D0F80CB0D0F8A8C087EA315713
S31502002CC087EAF51787EAFB0787EABC574FEA775781
S31502002CD087EAF476D0F87040D0F84C10D0F820503D
S31502002CE0D0F8C0B0D0F898C0CDF8106084EA31347C
S31502002CF084EAF54484EA3B1484EAFC6487EAB4284D
S31502002D00D0F83C70D0F81410D0F8B450D0F888B08F
S31502002D10D0F864C0CDF8048087EA312787EAB57710
S31502002D2087EAFB2787EABC174FEA776787EA74299F
S31502002D30D0F80440D0F8A010D0F87850D0F850B0AF
S31502002D40D0F828C0CDF8089084EAF17484EA3554A4
S31502002D5084EAFB6484EA7C3484EA070B83EAF47C23
S31502002D60D0F8BC30D0F84840D0F87850D0F8086097
S31502002D70D0F86070C0F8781089EA03038CEAB4547C
S31502002D8088EA35558BEA766682EAF77725EA346170
S31502002D9081EA3351C0F8781026EA755181EA743116
S31502002DA0C0F8081027EA362181EA7571C0F860106A
S31502002DB023EAF73181EAF651C0F8BC1024EA3371EE
S31502002DC081EAF721D0F88430D0F81040D0F8685064
S31502002DD0D0F8C060D0F82870C0F848108AEA735359
S31502002DE082EAB40489EAF5758EEAB63688EA773756
S31502002DF025EA742181EA3331C0F8281026EA3561C2
S31502002E0081EA7401C0F8841027EA761181EA7571A5
S31502002E10C0F8101023EAF75181EA3671C0F868103B
S31502002E2024EAF30181EAB761DDF80080D0F8703058
S31502002E30D0F8A440D0F83450D0F88C60D0F81C708A
S31502002E40C0F8C0108EEAB32388EAB4748AEA3575EC
S31502002E5082EA361689EA770725EAF44181EAF351CE
S31502002E60C0F8A41026EAF50181EAB451C0F834107C
S31502002E7027EA365181EAF551C0F88C1023EAB741A8
S31502002E8081EAB611C0F81C1024EA331181EAB7515F
S31502002E90D0F83830D0F89440D0F82450D0F85460A6
S31502002EA0D0F8AC70C0F8701082EA736389EAB44451
S31502002EB08CEA757588EAF6668BEA373725EA346155
S31502002EC081EA3351C0F8541026EA750181EA746129
S31502002ED0C0F8AC1027EA763181EAB531C0F838106D
S31502002EE023EAB77181EAF621C0F8941024EA337115
S31502002EF081EAB761DDF80C90D0F80030C46DD0F8E5
S31502002F00B050066CD0F89C70C0F8241088EA03030F
S31502002F108AEA742482EAF55589EAF6468CEA371774
S31502002F2026EA755181EA7451C0F85C1027EA3671B7
S31502002F3081EA7541C0F8B01023EA776181EA7651D9
S31502002F40C0F8401024EAB35181EAF731C0F89C1068
S31502002F5025EA040505990C6983EAB52384EA030187
S31502002F60DDF81020D0F8B830D0F84C40D0F87C50BC
S31502002F70D0F80C60D0F86470C0F8001089EA030338
S31502002F808EEAB45488EAF5458AEA366682EAF77723
S31502002F9025EAF45181EAF341C0F87C1026EA75511C
S31502002FA081EA3431C0F80C1027EA362181EA7571BC
S31502002FB0C0F8641023EA374181EA3661C0F8B810D6
S31502002FC024EA337181EA3731D0F88030D0F81440E0
S31502002FD0D0F86C50D0F8C460D0F82C70C0F84C1001
S31502002FE08BEAB35382EA740489EA05058CEAB6369B
S31502002FF088EA373725EAB42181EA3331C0F82C1042
S3150200300026EAF55181EA7401C0F8801027EA7611A2
S3150200301081EA3571C0F8141023EA376181EA7671C4
S31502003020C0F86C1024EAB30181EAB761DDF80480C6
S31502003030D0F87430D0F8A040D0F83050D0F888607C
S31502003040D0F81870C0F8C4108CEAB32388EAF47476
S315020030508BEA357582EA361689EA770725EAF4415C
S3150200306081EA3361C0F8A01026EAB50181EA7451FB
S31502003070C0F8301027EA765181EAF551C0F8881077
S3150200308023EA774181EAB611C0F8181024EA7311CF
S3150200309081EAB751D0F83C30D0F89040D0F82050B1
S315020030A0D0F85060D0F8A870C0F8741082EA736342
S315020030B089EAB4448EEA757588EAF6668AEAF727DB
S315020030C025EA346181EA7351C0F8501026EA750187
S315020030D081EA7461C0F8A81027EA363181EA7531AF
S315020030E0C0F83C1023EAB77181EAB621C0F8901005
S315020030F024EA737181EAF761DDF80890D0F80430AA
S31502003100846DD0F8B450466CD0F89870C0F8201090
S3150200311088EA03038BEAB42482EAF55589EAB646BD
S315020031208EEA771726EA755181EA3451C0F85810AB
S3150200313027EA767181EAB541C0F8B41023EA7761CD
S3150200314081EAB651C0F8441024EAB35181EAF73154
S31502003150C0F8981025EAF47505994C6983EAF523B7
S3150200316084EA030ED0F89C30D0F84810D0F8C45048
S31502003170D0F870B0D0F820C0C0F804E083EA31334A
S3150200318083EAF54383EA3B1383EABC63D0F85870BB
S31502003190D0F80C10D0F88450D0F830B0D0F8ACC0CB
S315020031A087EA315787EAB51787EAFB0787EABC57EA
S315020031B04FEAB32383EA7756D0F8B440D0F86410C6
S315020031C0D0F81050D0F888B0D0F838C0CDF80060EA
S315020031D084EA712484EAB57484EAFB2484EABC1482
S315020031E083EA7466D0F84030D0F8BC10D0F86C5040
S315020031F0D0F81CB0D0F890C0CDF80C6083EAB14389
S3150200320083EAF57383EABB4383EA7C0383EAB75214
S31502003210D0F80070D0F87810D0F82C50D0F8A4B0BE
S31502003220D0F850C087EAB17787EAF54787EAFB67A5
S3150200323087EA3C3787EA346AD0F84440D0F8B810B7
S31502003240D0F86850D0F818B0D0F894C084EAB144E7
S3150200325084EA050484EAFB4484EA7C0484EA070ED1
S31502003260D0F85C70D0F80810D0F88050D0F834B09E
S31502003270D0F8A8C087EA315787EAF51787EAFB072D
S3150200328087EABC574FEA775787EAF476D0F8984030
S31502003290D0F84C10D0F8C050D0F874B0D0F824C092
S315020032A0CDF8106084EA313484EAF54484EA3B14AA
S315020032B084EAFC6487EAB428D0F8B070D0F86010CB
S315020032C0D0F81450D0F88CB0D0F83CC0CDF80480B9
S315020032D087EA312787EAB57787EAFB2787EABC17A9
S315020032E04FEA776787EA7429D0F80440D0F87C1051
S315020032F0D0F82850D0F8A0B0D0F854C0CDF8089035
S3150200330084EAF17484EA355484EAFB6484EA7C3400
S3150200331084EA070B83EAF47CD0F84030D0F84840C0
S31502003320D0F82850D0F83060D0F83870C0F828109D
S3150200333089EA03038CEAB45488EA35558BEA766641
S3150200334082EAF77725EA346181EA33514FEAB171AD
S31502003350C0F8281026EA755181EA74314FEA7121C4
S31502003360C0F8301027EA362181EA75714FEA7101F9
S31502003370C0F8381023EAF73181EAF6514FEAB14133
S31502003380C0F8401024EA337181EAF7214FEAB151BD
S31502003390D0F85C30D0F86440D0F86C50D0F8746045
S315020033A0D0F85470C0F848108AEA735382EAB4041B
S315020033B089EAF5758EEAB63688EA773725EA742100
S315020033C081EA33314FEA3151C0F8541026EA3561A9
S315020033D081EA74014FEA3171C0F85C1027EA76116E
S315020033E081EA75714FEAF151C0F8641023EAF75188
S315020033F081EA3671C0F86C1024EAF30181EAB761FA
S315020034004FEA7171DDF80080D0F89830D0F8784034
S31502003410D0F88050D0F88860D0F89070C0F8741058
S315020034208EEAB32388EAB4748AEA357582EA3616D6
S3150200343089EA770725EAF44181EAF3514FEAF16115
S31502003440C0F8781026EAF50181EAB4514FEA3161F3
S31502003450C0F8801027EA365181EAF5514FEA311158
S31502003460C0F8881023EAB74181EAB6114FEAB141A2
S31502003470C0F8901024EA331181EAB7514FEAB1310C
S31502003480D0F8B430D0F8BC40D0F8C450D0F8A4601C
S31502003490D0F8AC70C0F8981082EA736389EAB44433
S315020034A08CEA757588EAF6668BEA373725EA34615F
S315020034B081EA33514FEA7131C0F8A41026EA750148
S315020034C081EA74614FEA3131C0F8AC1027EA7631ED
S315020034D081EAB5314FEAF171C0F8B41023EAB77147
S315020034E081EAF6214FEA7101C0F8BC1024EA337171
S315020034F081EAB7614FEA7111DDF80C90D0F800301D
S31502003500846805698669076AC0F8C41088EA0303F5
S315020035108AEA742482EAF55589EAF6468CEA37176E
S3150200352026EA755181EA74514FEA7151C0F80810C2
S3150200353027EA367181EA75414FEA7161C0F81010C7
S3150200354023EA776181EA7651C0F8181024EAB3516A
S3150200355081EAF7314FEAB121C0F8201025EA0405C5
S3150200356005998C6983EAB52384EA0301DDF8102004
S31502003570D0F84430D0F84C40D0F82C50D0F8346013
S31502003580D0F83C70C0F8001089EA03038EEAB454FE
S3150200359088EAF5458AEA366682EAF77725EAF45139
S315020035A081EAF3414FEAF171C0F82C1026EA75510F
S315020035B081EA34314FEAB121C0F8341027EA3621C4
S315020035C081EA75714FEAB101C0F83C1023EA37412E
S315020035D081EA36614FEAB141C0F8441024EA3371F8
S315020035E081EA37314FEAB151D0F85830D0F860400D
S315020035F0D0F86850D0F87060D0F85070C0F84C100F
S315020036008BEAB35382EA740489EA05058CEAB63674
S3150200361088EA373725EAB42181EA33314FEAF141A4
S31502003620C0F8501026EAF55181EA74014FEA317169
S31502003630C0F8581027EA761181EA35714FEAF1513E
S31502003640C0F8601023EA376181EA76714FEAF171B8
S31502003650C0F8681024EAB30181EAB7614FEA7171D2
S31502003660DDF80480D0F89C30D0F87C40D0F8845045
S31502003670D0F88C60D0F89470C0F870108CEAB3233E
S3150200368088EAF4748BEA357582EA361689EA770790
S3150200369025EAF44181EA33614FEAF161C0F87C1010
S315020036A026EAB50181EA74514FEA7161C0F88410C5
S315020036B027EA765181EAF5514FEA3111C0F88C10AA
S315020036C023EA774181EAB6114FEAF141C0F8941034
S315020036D024EA731181EAB7514FEAB131D0F8B0301A
S315020036E0D0F8B840D0F8C050D0F8A060D0F8A87092
S315020036F0C0F89C1082EA736389EAB4448EEA75754F
S3150200370088EAF6668AEAF72725EA346181EA73517E
S315020037104FEA3131C0F8A01026EA750181EA7461D8
S315020037204FEAF121C0F8A81027EA363181EA75314D
S315020037304FEAF171C0F8B01023EAB77181EAB621F7
S315020037404FEA7101C0F8B81024EA737181EAF76191
S315020037504FEA3111DDF80890D0F80430C4684569A3
S31502003760C669476AC0F8C01088EA03038BEAB42424
S3150200377082EAF55589EAB6468EEA771726EA755140
S3150200378081EA34514FEAB151C0F80C1027EA76713A
S3150200379081EAB5414FEA7161C0F8141023EA7761F4
S315020037A081EAB651C0F81C1024EAB35181EAF73116
S315020037B04FEAB121C0F8241025EAF4750599CC69BF
S315020037C051F8207F0591FF2F83EAF52384EA03014E
S315020037D0C0F804107EF43AAC06B0BDE8F09F00BF14
S315020037E0040000222DE9F04F2DED108B4FF2FF2C35
S315020037F05FF814B000F58071FBE802234FF0100E5B
S3150200380091ED001F11FE632EAEF1010E11EE62DE86
S3150200381090ED00BF13EE4CCE91ED041F1AFF4CE85B
S31502003820A1EC04FF1AEF4CE811FE632EA0EC04FF94
S315020038300FF015C011EE621E13EE4C0E90ED003F16
S3150200384012FF40E8A1EC04FF12EF40E8A0EC04FFEF
S31502003850A0F580704FF00201FBE806235BE9044500
S315020038605BE902674FF0040E90ED203F13EE627E95
S31502003870AEF1010E13FE630E90ED303F13EE62FEC3
S3150200388090ED10BF13FE632E90ED00DF13EE4CEEAB
S3150200389090ED243F11EE4C6E1AFF4E0811EE669E15
S315020038A01CEF464811FE670E1CFF466811EE4C8E51
S315020038B01AEF4EE81FFE65AE16FF48C81FEE64FEFD
S315020038C016EF48081BEE4CEE80ED30DF14FF4EC8B3
S315020038D080ED10DF13EE627E80ED201F14EF4EA8FE
S315020038E0A0EC04BF0FF03BC013FE63EE90ED305F19
S315020038F015EE62DE90ED103F15FE630E90ED005F51
S3150200390011EE4CCE1FEE4C6E12EF4CE81FFE658E8A
S3150200391014EF46081FEE64BE14FF464819EE4CAE7D
S3150200392012FF4CC81DFE676E10FF4AE880ED10FFBD
S315020039301DEE66FE10EF4A2817EE4CEEA0EC043F91
S3150200394014FF4EC880ED2CDF14EF4EE880ED1CFF0D
S3150200395000F1C00001397FF47FAFA0F500704FF08F
S31502003960080EFBE8068A90ED0CFF1FFE6A6E5BE905
S3150200397004711FEE683E90ED04FF17EE4C2EAEF179
S31502003980010E00BF1EEF420811EE677E90ED089F02
S3150200399019EE68BE1EFF42C819FE6AEE5BE90264B2
S315020039A01FEE4CAE90ED00FF11FE618E1EFF4A081F
S315020039B019EE4C6E1EEF4A281DEE665E12FF468811
S315020039C01DFE64CE12EF46681DEE4C4EFBE8068ADB
S315020039D010FF44C85BE9047110EF44A890ED1C3F48
S315020039E013FE6AEE80FC017F13EE683E80FC217FA7
S315020039F01FEE4C2E80FC417F90ED14FFA0FC617FF0
S31502003A000FF041C090ED089F19EE687E5BE90295C2
S31502003A1019FE6A8E1EFF424819EE4C6E90ED001F8B
S31502003A2015FE658E10FF46A815EE695E10EF466814
S31502003A3019EE4C4E1EEF42E81FEE671E1AFF44C8EF
S31502003A401FFE618E1AEF44A819EE4C0E16FF40882F
S31502003A5016EF406880FC017F80FC217F80FC417F5D
S31502003A60A0FC617FA0F500704FF0080E90ED0CFFF0
S31502003A70BBECB05E1EEF54691BEDA81E1EFF40EBA9
S31502003A8090ED043F1FEE4C6EAEF1010E12FF46C8DA
S31502003A9090ED08BF1AEF544912EF46681AFF402B01
S31502003AA01BED909E13EE4C4E90ED003F12EF44A894
S31502003AB01CEF580912FF44481BED889E1CFF488BD9
S31502003AC01BEDA0FE19EE4C0E1BED983E16FF428B27
S31502003AD014EF40C816EF5E6914FF40E819EE4C6E0B
S31502003AE090ED1C3F1AEF46889BED881E1AFF46A8EA
S31502003AF0BBECB05E12EF546980FC019F12FF402BB3
S31502003B0080FC219F13EE4C6E80FC419F90ED143F8A
S31502003B10A0FC619F0FF047C090ED08DF1CEF5489AF
S31502003B2012FF46A81CFF40EB12EF46681FEE4C8EB2
S31502003B3090ED003F12EF48C81BEDA0FE12FF4808A9
S31502003B4016EF5EE91BED983E16FF422B1BED907EAB
S31502003B5013EE4CEE1BED883E1AEF56491CEF4E88CB
S31502003B601AFF422B1CFF4EA813EE4C4E10EF44C810
S31502003B7010FF44E880FC019F80FC219F80FC419F4E
S31502003B80A0FC619FBDEC108BBDE8F04F704700BFF3
S31502003B9000040022AFF30080AFF30080AFF3008091
S31502003BA02DE9F04F2DED108B4FF2FF2C5FF820B070
S31502003BB040F2607844F6980942F25F714FF0080EBF
S31502003BC090ED08FF1FEE687E1FFE698EAEF1010EB4
S31502003BD019EE4C6E90ED0CFF1FEE689E90ED043FC1
S31502003BE01FFE69CE90ED001F1DEE4C8E13FE69CEB0
S31502003BF016FF48A813EE68FE16EF48881DEE4CEE37
S31502003C0011EE687E9BED083F11FE694E9BED101F7B
S31502003C1015EE4C6E9BED145F1AEF500916EF4EC867
S31502003C201AFF44AB9BED0C5F1BEE4C0E16FF4EA823
S31502003C301AEF52E91CFF48281AFF444B1CEF48882A
S31502003C4015EE4CEE9BED04DF12FF4CAB1EFF404817
S31502003C5014FF4CCBBBEC187F14EF5649A0EC109F17
S31502003C601DEE4C4E00ED045F12EF562990ED087FD3
S31502003C701BEE4C2E1EEF40A817FE698E00ED083F84
S31502003C8017EE687E00ED0CBF0FF05FC019EE4C6EAA
S31502003C9090ED0CFF1FEE68DE1FFE692E13EE4CCE72
S31502003CA090ED043F13FE69EE90ED001F13EE689E41
S31502003CB016FF4CA81FEE4C8E16EF4C2811EE687EAE
S31502003CC09BED085F11FE69CE9BED10FF1DEE4C6E5B
S31502003CD09BED14DF1AEF5EE916EF48081AFF4CABAC
S31502003CE09BED0CDF1BEE4CEE16FF486816EF5449AF
S31502003CF010FF428816FF4C6B10EF420817EE4C4E2F
S31502003D009BED04DF18FF4CAB14FF4E6816FF4C2BDD
S31502003D10BBEC18DF16EF5C69A0EC101F13EE4C6EBD
S31502003D2000ED047F18EF5CC914EF4E6800ED0C7FBE
S31502003D301BEE4CCE00ED08DFA0F500704FF0080E2A
S31502003D4090FC017F90FC217F90FC417FB0FC617F5B
S31502003D50AEF1010E16EF484815EE61EE1AEF4C0869
S31502003D6011EE612EDBE904261AFF4CA81BEE62DE79
S31502003D7096EF52221BFE66AE96EF5EE213EE4C0EF5
S31502003D8016FF48881FEE4C4EDBE902751BEE4CCE41
S31502003D9014EF406819FE652E00ED107F19EE677E5E
S31502003DA014FF40E813EE4C6EFBE8062716FF4C089C
S31502003DB01FFE674E16EF4C281FEE62FE90FC017F37
S31502003DC015EE4CEE90FC217F13EE614E00ED08FFDE
S31502003DD011FE67EE90FC417F11EE621E96EF544291
S31502003DE01FEE4C0EB0FC617F00ED141F15EE4C2E3B
S31502003DF000ED1C3F0FF053C016EF482813EE614E3C
S31502003E001AEF4CE81FEE610E96EF5442DBE90427E7
S31502003E1015EE4C2E1AFF4C4815EE62DE96EF500256
S31502003E2015FE67AEDBE902591BEE4CCE16FF48487B
S31502003E3015EE65BEFBE8065811EE4CEE15FE696EF0
S31502003E4012FF4E8819EE655E19FE680E12EF4E28B5
S31502003E5017EE4CAE00ED103F11EE4C4E1AFF4C28F9
S31502003E6013FE688E1AEF4CA81BEE61EE00ED085F9A
S31502003E7013EE655E96EF5EE219EE4C4E00ED045FC0
S31502003E801FEE4CAE00ED0CBFA0F500704FF0020124
S31502003E90FBE806235BE904455BE902674FF0040E83
S31502003EA090ED001FAEF1010E90ED105F10FF44C8B9
S31502003EB090ED309F1DFE65AE90ED207F16FF48E81F
S31502003EC01FFE672E10EF44081FEE66FE16EF4888A7
S31502003ED013EE4CEE10FF482813EE625E10EF488890
S31502003EE01DEE647EA0EC049F1BEE4C6E90ED001F4F
S31502003EF013FE63AE16FF4E2813EE629E16EF4E6851
S31502003F001BEE4C4E80ED0C7F13FE63EE80ED1C5FC4
S31502003F101FEE4C8E80ED2C9F0FF03BC090ED10BF34
S31502003F2010FF4AE81FFE652E90ED209F1FEE645E8D
S31502003F3090ED30FF18FF4EC81DEE667E10EF4A0860
S31502003F401DFE67AE18EF4EC81BEE4C6E10FF4CA856
S31502003F501BFE638E10EF4C0813EE4C4EA0EC041FB2
S31502003F601BEE62FE14FF462813EE621E14EF46682D
S31502003F7013FE632E80ED0C7F19EE4CEE80ED1CFFD6
S31502003F8013EE4C0E80ED2C1F00F1C00001397FF4B8
S31502003F907FAFA0F5007000F58071FBE802234FF0B9
S31502003FA0100E91ED005FAEF1010E00BF90ED00FF25
S31502003FB01EFF446817FE638E1EEF44E8A0EC04FF62
S31502003FC017EE627E91ED045F19EE4C6EA1EC047F52
S31502003FD00FF015C090ED00FF1EFF448819EE627EB9
S31502003FE01EEF440819FE638EA0EC041F19EE4C6EF8
S31502003FF0A1EC047FBDEC108BBDE8F04F704700BF0B
S3150200400004B58AB03CCAB1E80144A2FB006BA3FB2B
S31502004010007CE2FB6A7BCDE90067A4FB0086E3FB3A
S315020040206A8BA5FB0097E2FB6E8CE4FB6A9BE5FBC1
S315020040306AB7E3FB6E9CE4FB6EBCE5FB6EC7B1E8B8
S315020040400144E2FB6096E3FB60B6CDE902894FF0DC
S315020040500009E4FB60C6E2FB6AB951F8048BE5FB92
S315020040606067E3FB6AC94FF00000E4FB6A69E5FB9F
S315020040706A794FF0000AE2FB6ECAE3FB6E6AE4FB62
S315020040806E7AE5FB6E9A4FF0000EE2FB68E6E3FB02
S315020040906876E4FB6896E5FB68A651F81C89E2FBA4
S315020040A06870E3FB68900A9AE4FB68A0E5FB686027
S315020040B010323CCA51F8048B09904FF00000E2FB23
S315020040C068B0E3FB68C0E4FB68E0E5FB680751F80B
S315020040D0048BCDF810B04FF0000BE2FB68CBE3FB8C
S315020040E068EBE4FB680BE5FB68B751F8048BCDF887
S315020040F014C04FF0000CE2FB68ECE3FB680CE4FB37
S3150200410068BCE5FB68AC51F8048BCDF818E04FF0BB
S31502004110000EE2FB680EE3FB68BEE4FB68AEE5FB5D
S31502004120686E0790B1E80101E2FB60B9E3FB609AB1
S31502004130CDF820B0DDF824B0E2FB6897E4FB60A678
S31502004140E5FB60B6E3FB68A7E4FB68B7E5FB6867D7
S31502004150B1E80101E2FB60ACE3FB60BCE4FB606C2E
S31502004160E2FB68BEE3FB686EE5FB607C2623E4FBAC
S3150200417068E79DE80700E5FB687CDDE907454FF047
S315020041800008E3FB6C484FEA480824F0004C48EA72
S31502004190D478132408FB04F8E3FB6508E3FB6918EB
S315020041A0E3FB6A284FF02609DDE90334E9FB6B38A5
S315020041B0E9FB6648DDE90556E9FB6E58E9FB6768E7
S315020041C008EB0C070BB000BD00B585B0A0FB009A4A
S315020041D0A0FB01BC1BEB0B0B4FF0000EEEFB6EAB14
S315020041E02DE900064FF00008A0FB039AE0FB628C63
S315020041F0E1FB629C58EB0808E1FB618B59EB09096C
S31502004200EEFB6E9BCDE902894FF00009E0FB649A52
S31502004210E1FB639C59EB0909E2FB629BCDF8109026
S31502004220A0FB0598E1FB649AE2FB639C59EB090942
S31502004230EEFB6E9BCDF814904FF00009E1FB6598FA
S31502004240E2FB649CE0FB669A59EB0909E3FB639B7C
S31502004250CDF81890A0FB0709E1FB660AE2FB650CA4
S31502004260E3FB6408E1FB6798E2FB669A4041E3FBE5
S3150200427065C9E2FB67985CEB0C0CE3FB66A90022BE
S31502004280EEFB6E0BE4FB65A2E3FB6728E4FB66929A
S315020042905AEB0A0AE4FB64BC59EB0909EEFB6ECA47
S315020042A00023E5FB65A9E4FB6738E5FB6632E5FB1F
S315020042B06782AEFB0E455B41E6FB674258EB080898
S315020042C0EEFB6E93E6FB66386441EEFB6E485241A6
S315020042D0E7FB67824FF0260652EB0E02E6FB620E02
S315020042E013254FEA4E0E20F000474EEAD07E0EFB13
S315020042F005FE03BCE6FB6B0EE6FB6C1E9B46A44664
S315020043003CBCE6FB6A2EE6FB693EE6FB6B4EE6FB31
S315020043106C5E40BC4FF0260CECFB686E774400BD29
S31502004320FFF76EBEFFF750BF2DE9F04F82B0009047
S31502004330FFF7F6FFDDF8008088E8FF0002B0BDE86F
S31502004340F08F2DE9F04F82B000908C469CE8FF007A
S31502004350FFF7E8FFDDF8008088E8FF0002B0BDE85D
S31502004360F08F2DE9F04F82B0009088469146FBF718
S31502004370E7FEDDF8008088E8FF0002B0BDE8F08FB6
S315020043802DE9F04F82B0009088469146FBF704FF74
S31502004390DDF8008088E8FF0002B0BDE8F08F00BFBC
S315020043A02DE9F04FC3B04090DDF800C10CF12008B2
S315020043B0E146FBF7C5FE0DF1000C8CE8FF00DDF8C7
S315020043C000C1DCF8802000A9FFF7AAFF0DF1000C5E
S315020043D08CE8FF00DDF800C10CF12008E146FBF78E
S315020043E0DBFE0DF1200C8CE8FF00DDF800C1DCF8E5
S315020043F0842008A9FFF794FF0DF1200C8CE8FF003A
S31502004400DDF800C1DCF888100CF16002FFF788FFC6
S315020044100DF1400C8CE8FF00DDF800C10CF14008FC
S315020044200CF14009FBF78CFE0DF1600C8CE8FF00E5
S315020044300DF100080DF12009FBF7AEFE0DF1800C1F
S315020044408CE8FF000DF100080DF12009FBF778FE5C
S315020044500DF1A00C8CE8FF000DF160080DF140098A
S31502004460FBF76EFE0DF1C00C8CE8FF000DF1600843
S315020044700DF14009FBF790FE0DF1E00C8CE8FF0010
S31502004480DDF800C1DCF88CC00DF1C00A0DF1E00BBD
S315020044908AEA0B0909EA0C098AEA090A8BEA090B74
S315020044A0CDF800A0CDF820B020A9089AFFF738FF72
S315020044B0DDF800C18CE8FF0028A9009AFFF730FF5B
S315020044C0DDF800C10CF1200C8CE8FF0030A938AAF7
S315020044D0FFF726FFDDF800C10CF1400C8CE8FF0067
S315020044E020A928AAFFF71CFFDDF800C10CF1600C19
S315020044F08CE8FF0043B0BDE8F08F2DE9F04F82B0A3
S31502004500009001928C469CE8FF00FFF70BFFDDF856
S3150200451004C0BCF1010CCDF804C0F6D1DDF800C030
S315020045208CE8FF0002B0BDE8F08F00BF000000007B
S30D020045305FF800F0CD62000203
S3150200453842424242C0F9FFFF7BC2FFFF13FDFFFF63
S3150200454833E3FFFF51FDFFFF96E5FFFF760200000A
S3150200455839180000D8FFFFFF76FEFFFF68FAFFFF53
S31502004568F1C8FFFF500300009B200000260400004C
S31502004578D528000028010000620B00008EFCFFFF10
S3150200458816DEFFFF7EFAFFFFC9C9FFFF3B050000E3
S315020045987C330000C4050000C1380000C1000000D9
S315020045A86C070000E5FEFFFF1EF5FFFF380000005E
S315020045B8270200001D030000A51E0000BFFBFFFF27
S315020045C821D6FFFF3505000041330000E1FDFFFF5C
S315020045D81FEBFFFF92050000D43600002DFBFFFFFC
S315020045E884D0FFFFBBFFFFFF59FDFFFF1702000044
S315020045F89214000041FEFFFFD0EEFFFF39020000D1
S31502004608E115000058FCFFFF03DCFFFF3EFEFFFF3B
S31502004618B3EEFFFFD1F9FFFF22C3FFFFB5FAFFFF93
S31502004628E6CBFFFF35030000911F0000210121019F
S315020046384B014B01B4FFB4FFDBF9DBF91D0B1D0B74
S31502004648BA0CBA0C14FD14FD85C385C311001100FA
S315020046584702470265066506EFFBEFFBA700A700C0
S315020046686B166B16F13EF13EF9D7F9D7C8FDC8FDB0
S3150200467858FD58FDD302D3024C044C0429EA29EA10
S31502004688DBE5DBE5CD1BCD1B4C2A4C2AAD04AD047C
S31502004698FFFBFFFBE4FBE4FB06FB06FB062E062EEE
S315020046A897D897D88DD78DD704CF04CF81058105A2
S315020046B8D0FFD0FFF402F402C6FEC6FE2D362D3612
S315020046C828FE28FE111D111DEDF3EDF365FD65FDAE
S315020046D8E900E9006BFB6BFBE9FEE9FE5BE65BE6DC
S315020046E8F508F508E6D2E6D246F546F58A028A02C2
S315020046F8B8FAB8FAD0FCD0FC78027802FE18FE188E
S3150200470804CC04CCA0E0A0E04D184D18A6F9A6F9F1
S31502004718E4FDE4FD36FA36FAB505B5057BC17BC17B
S315020047283DEB3DEB04C704C72D382D3873067306D7
S31502004738FCF9FCF9B803B8037EFD7EFD7B3F7B3F9F
S31502004748C9C4C9C49B249B2451E751E730FE30FEF5
S3150200475821002100280528057AFA7AFA29EE29EE97
S3150200476845014501C132C132A2C9A2C9AB03AB0395
S3150200477884FC84FCDD02DD020C010C011B241B24D3
S31502004788B4DDB4DD2F1C2F1C4E0A4E0A03FC03FCB3
S3150200479853FC53FC20FC20FC81028102BED8BED801
S315020047A8D2DBD2DBDCD9DCD9A518A5180EFC0EFCA7
S315020047B89B059B0527032703C401C4012AD92AD9C5
S315020047C82D372D37071F071F611161113006300675
S315020047D8F4FAF4FA7701770129FB29FBE83CE83C6D
S315020047E853CE53CE6B0E6B0E5CD05CD0F9FBF9FB45
S315020047F893FF93FFF4FCF4FC6D066D065CD85CD857
S31502004808CFFBCFFB02E202E2403F403F9E059E05F8
S3150200481833FE33FEFE05FE0561FC61FC4B374B3762
S3150200482846EE46EEFB3AFB3A5BDC5BDC27042704E2
S31502004838D4FDD4FD32FB32FBA1FCA1FCDF28DF2824
S315020048489FEA9FEAB5D0B5D0D1DED1DE3F013F015E
S31502004858F502F5023102310221FD21FD440C440C18
S315020048681B1D1B1D92159215BDE3BDE356FD56FD94
S3150200487838FD38FDC905C90588028802C7E5C7E5B6
S31502004888A0E4A0E4F238F238EA18EA18F3FDF3FDD8
S315020048989301930177047704D6FDD6FDD0EBD0EBCE
S315020048A87F0F7F0FF32BF32BB3EAB3EA44044404D6
S315020048B80204020465FB65FB76037603FD29FD29DE
S315020048C873277327ABD2ABD211221122A9FCA9FCFA
S315020048D825FF25FFCB04CB048E038E0320DF20DFC2
S315020048E894F794F72E2F2E2FFD22FD22B9F9B9F946
S315020048F851FA51FA3DFB3DFB7503750336C236C2C2
S315020049080EC80EC821D121D107220722BC04BC0435
S315020049180504050476FE76FE69FB69FB9A2E9A2E35
S3150200492891279127DAF0DAF0D2D2D2D2000000002B
S3150200493872FC72FC35FB35FBDB00DB0057035703C1
S3150200494803DD03DDD2D0D2D06C086C08E020E0206B
S31502004958970497048A018A01FBFBFBFB44FB44FB91
S315020049682E2D2E2D260F260F6FD86FD866D166D11B
S315020049788BFC8BFCC304C304AF05AF054706470689
S31502004988F9DDF9DDDF2EDF2EF237F237CA3DCA3DF1
S3150200499878FD78FD37FA37FAC802C802AA02AA02CF
S315020049A816E716E70EC70EC7601B601B391A391AB7
S315020049B88AFC8AFC9B049B04FEFBFEFBBCFBBCFB3D
S315020049C8EFDDEFDD552D552D8DD88DD803D603D6BF
S315020049D82A022A0289FB89FB6DFE6DFE0D020D0273
S315020049E84D154D150DD40DD481F081F030143014C7
S315020049F89F039F0302FA02FACD01CD0162FA62FA17
S31502004A08A523A52305C505C5BA11BA11B5C8B5C8E2
S31502004A18DF02DF02CFFDCFFD0BFD0BFDC1FEC1FE9E
S31502004A28431C431C6EEA6EEAE5E2E5E2BCF3BCF31C
S31502004A385F035F03CE04CE042C022C02D9FBD9FBFA
S31502004A482F212F214B2F4B2F6115611521D721D7E6
S31502004A583CFE3CFED9FCD9FC65FA65FAF203F20380
S31502004A689FEE9FEEF9E0F9E0D3C8D3C8D626D6263C
S31502004A7893F993F90C030C036D006D000704070400
S31502004A88C0C0C0C0FE1DFE1D31043104A427A427E0
S31502004A98D704D70489FE89FE0C050C05D0F9D0F98E
S31502004AA8A42FA42F95F195F1AD31AD3118C318C3D2
S31502004AB886058605D8FAD8FADFFFDFFFD001D001CE
S31502004AC85E365E363FCD3FCDBBFEBBFED711D71154
S31502004AD87FFD7FFDE003E003AD03AD03FD03FD03A8
S31502004AE85BE75BE7242624262E242E244227422728
S31502004AF8F4FEF4FE23FD23FD7C037C0355FC55FCE2
S31502004B08B2F5B2F5D1E3D1E34C224C22E5DBE5DB83
S31502004B1888FD88FD300330034805480576FD76FD95
S31502004B28B3E7B3E7601F601FFC33FC3302E702E713
S31502004B388202820248FC48FC040604068DF98DF9B5
S31502004B48AF18AF1865DB65DB373B373B85C085C0D9
S31502004B584BFA4BFACA05CA051C021C025A065A0621
S31502004B68D3C7D3C7FC38FC38C314C314853E853E65
S31502004B78FA04FA041C041C040104010453FB53FB43
S31502004B88FC30FC307328732869276927FAD1FAD1D1
S31502004B98170117019504950417FF17FF9B029B023D
S31502004BA8BA0ABA0A1A2D1A2D0BF70BF7A519A5195F
S31502004BB83A013A010CFD0CFD300030007FFA7FFA0B
S31502004BC8130C130CEFE2EFE2D801D801D3C9D3C90B
S31502004BD8250625064C004C00B5FEB5FEDFFEDFFEB7
S31502004BE87B3C7B3CEC02EC0246F346F3E3F4E3F44B
S31502004BF8B4FBB4FB2DFD2DFDA802A802380238022B
S31502004C08B4D5B4D533E433E4251A251AD715D715FE
S31502004C18110411049BF99BF9B9FDB9FDEFFFEFFFEA
S31502004C28072807280FC10FC195E995E959FF59FFCA
S31502004C382F060000DE3C0000CBFCFFFF6FE0FFFF03
S31502004C484B0500001A340000C7FDFFFF1FEAFFFFED
S31502004C58C20100004D110000A8030000FD23000058
S31502004C6845000000A7020000BF0100003011000045
S31502004C78E9FDFFFF6EEBFFFF1F020000E1140000D3
S31502004C88D30400007C2F00006EFAFFFF2CC9FFFF39
S31502004C98E3FCFFFF5BE1FFFFCBFAFFFFBFCCFFFFA1
S31502004CA841040000DF2900003FFFFFFF94F8FFFFE1
S31502004CB8C8FFFFFFD9FDFFFF1B010000E20A000043
S31502004CC882050000373600003CFAFFFF3FC7FFFFA8
S31502004CD8C5FAFFFF84CCFFFFDAFBFFFF2BD7FFFFE6
S31502004CE872030000EA210000D8FEFFFF9EF4FFFFD0
S31502004CF8280000008A010000B0FCFFFF65DFFFFF05
S31502004D08980500000F370000ED020000CD1C0000D8
S31502004D188AFDFFFFC7E7FFFFAF0200006A1A00001D
S30D02004D2840060000853D000073
S31502004D300348044B834202D0034B03B11847704722
S31502004D40F8070022F807002200000000064B074978
S31502004D50C91A891048BF0131491003D0044B0BB15F
S31502004D6001481847704700BFF8070022F8070022DB
S31502004D700000000010B5064C237843B9FFF7D8FFB0
S31502004D80044B13B10448AFF300800123237010BD16
S31502004D90300C00220000000084A2000308B5054B77
S31502004DA01BB105490548AFF30080BDE80840FFF78F
S31502004DB0CDBF00BF00000000340C002284A2000315
S31502004DC000F078BD2DE9F0419646ADF6486D02AC8D
S31502004DD0A4464FF00308DEF80C3005460F4610686D
S31502004DE0516892680026ACE80F00DEF81000DEF883
S31502004DF01410DEF81820DEF81C30ACE80F0021464D
S31502004E00204621228DF8288001F0C2FA00230AA941
S31502004E101A4692A800F014FC0AA90DF5896000232F
S31502004E20012200F00DFC0AA9002302220DF5C96039
S31502004E3000F006FC92A800F0D1FF33460DF64802B8
S31502004E4092A912A8CDE9004600F0C6FA12A800F00F
S31502004E5013FC424601230AA912A800F0F1FB12A88C
S31502004E6000F008FC284612A900F0CEFB0DF6480217
S31502004E7092A9012312A8CDE9004600F033FB12A83D
S31502004E8000F0FAFB012304220AA912A800F0D8FBBB
S31502004E9012A800F0EFFB12A905F5C07000F0B4FBF2
S31502004EA00DF6480292A9022312A80196009400F078
S31502004EB019FB12A800F0E0FB012305220AA912A899
S31502004EC000F0BEFB12A800F0D5FB12A905F5407052
S31502004ED000F09AFB384692A900F058FFA446BCE8B7
S31502004EE00F00C5F88004C5F88414C5F88824C5F8EF
S31502004EF08C34BCE80F00C5F89004C5F89414C5F8C4
S31502004F009824C5F89C340DF6486DBDE8F08100BFC3
S31502004F102DE9F04F1D460023174601240646ADF53E
S31502004F20905D83B01A460DF5C1608946294600F0A8
S31502004F3087FB0023012229460DF6080000F080FBBC
S31502004F400023022229460DF6082000F079FB07F518
S31502004F50906A0DF5C16000F041FF00230DF608428C
S31502004F600DF5C16102A8CDE900A400F035FA02A848
S31502004F7000F082FB23460322294602A800F060FBCA
S31502004F8002A800F07BFB0022304602A900F034FBA7
S31502004F90A3465FFA84F843460DF608420DF5C16151
S31502004FA002A8CDE900AB00F09DFA02A800F064FB6E
S31502004FB00123294608F1030202A800F041FB02A8D8
S31502004FC000F05CFB2246304602A900F015FB012CDC
S31502004FD001D10224DDE782AC394602A800F016FBB5
S31502004FE00DF6084302AA20460DF5C16100F03CFB0E
S31502004FF002A807F5C07100F009FB02AA0DF60863C4
S3150200500020460DF6080100F031FB07F5407102A8B3
S3150200501000F0FCFA0DF580530DF6082102AA0DF5F3
S31502005020C1600833009400F023FB0DF5C16000F067
S3150200503023FB0123062229460DF5C16000F000FB81
S31502005040494602A800F020FB0DF5C161084602AAF6
S3150200505000F016FB0DF5C16000F010FB0DF5C16105
S3150200506006F5707000F0C4FA0DF5905D03B0BDE868
S31502005070F08F00BF2DE9F04F1F4600239146012510
S315020050808046ADF5905D85B01A468A460DF5C2603A
S31502005090394600F0D5FA0023012239460DF50160A2
S315020050A000F0CEFA0023022239460DF5216000F007
S315020050B0C7FA09F5906B0DF5C26000F08FFE00236A
S315020050C00DF541620DF5C26104A8CDE900B500F007
S315020050D083F904A800F0D0FA2B460322394604A825
S315020050E000F0AEFA04A800F0C9FA0022404604A96C
S315020050F000F088FA0446C617CDF80CA001215FFA23
S3150200510085FA53460DF54162CDE900B104A80DF5C5
S31502005110C26100F0E7F904A800F0AEFA01233946AD
S315020051200AF1030204A800F08BFA04A800F0A6FA1A
S315020051302A46404604A900F065FA012D44EA000415
S3150200514046EAE07601D10225D8E784AD494604A8AD
S31502005150DDF80CA000F05AFA0DF5416304AA2846C0
S315020051600DF5C26100F080FA04A809F5C07100F0DD
S315020051704DFA04AA0DF5616328460DF5016100F0AA
S3150200518075FA09F5407104A800F040FA0DF580534E
S315020051900DF5216104AA0DF5C2601033009500F0E9
S315020051A067FA0DF5C26000F067FA01230622394656
S315020051B00DF5C26000F044FA514604A800F064FA04
S315020051C00DF5C261084604AA00F05AFA0DF5C2604E
S315020051D000F054FA0DF5C26108F5707000F010FA8D
S315020051E00443644246EAE07060EB4000C00F0DF5EE
S315020051F0905D05B0BDE8F08F70B515460C460646C3
S31502005200ADF5006D0022684600F0F8F9684600F038
S3150200521031FA2A4669460DF5806000F0F9F9214611
S31502005220012280A800F0EAF980A800F023FA80A9FA
S315020052300DF5806005F5C07200F0F0F921460222F4
S3150200524080A800F0DBF980A800F014FA0DF580635F
S3150200525005F5407280A9684600F0E6F9684600F056
S315020052600BFA80A804F5707100F0C4F96A4680A9A9
S31502005270684600F007FA684600F000FA69463046CA
S3150200528000F004FA0DF5006D70BD00BFF8B50C46CE
S3150200529006464FF494671546FFF794FD31463A46A3
S315020052A004F5906001F098FA3A46314604F5126028
S315020052B001F048F82E6A696AAA6AEB6AC4F840697C
S315020052C0C4F84419C4F84829C4F84C392E6B696BE2
S315020052D0AA6BEB6BC4F85069C4F85419C4F8582980
S315020052E0C4F85C390020F8BD70B5A0B0EC469E4605
S315020052F015460C469A68596806461868DB68ACE893
S315020053000F00DEF81000DEF81410DEF81820DEF8C2
S315020053101C30ACE80F00294660464FF4946201F057
S3150200532011F8402269460DEB020001F031F82A46D7
S315020053306946304618ABFFF7EBFD0DF1400CBCE8B1
S315020053400F0020606160A260E360BCE80F0020618C
S3150200535000206161A261E36120B070BD70B51446A0
S315020053600E46A0B005466846FFF746FFD4F8200968
S31502005370D4F82419D4F82829D4F82C390DF1200CA4
S31502005380ACE80F00D4F83009D4F83419D4F8382927
S31502005390D4F83C39ACE80F0069466046402200F07A
S315020053A0F7FF694618AB04F590623046FFF762FED6
S315020053B0034604F514611C463246284600F0EAFD0F
S315020053C0C4F101032846202210A9DBB200F002FE36
S315020053D0002020B070BD00BF2DE9F04F2DED068BE9
S315020053E02DED04DBADF2945DDDF8E48583460E46D1
S315020053F015461F4632ACB8F1000F5AD000233A4682
S315020054002046DDF8E01500F011FD2246012107A82D
S3150200541000F05CFFDFF8C8900DF5C87A31465046B9
S31502005420CDE90145CDF8009007AB05AA02F02CF9AB
S31502005430B8F1000F44D001233A462046DDF8E015C4
S3150200544000F0F4FC2246012107A800F03FFF05F513
S31502005450007302935046CDE9009407AB05AA06F500
S31502005460007102F00DF9B8F1000F31D03A4602236D
S315020054702046DDF8E01500F0D9FC2246012107A8F6
S3150200548000F024FF05F580655846CDF80CA001947E
S31502005490029507AB05AACDF8009006F5806102F0E9
S315020054A007F90DF2945DBDEC04DBBDEC068BBDE89D
S315020054B0F08F42462046DDF8E01500F0B7FCA4E77F
S315020054C03B4601222046DDF8E01500F0AFFCB9E7C5
S315020054D03B4602222046DDF8E01500F0A7FCCCE7A9
S315020054E0C87600022DE9F04F2DED068B2DED04DB7B
